{
  "_format": "hh-sol-artifact-1",
  "contractName": "UniswapSwapSaleMock",
  "sourceName": "contracts/mocks/sale/UniswapSwapSaleMock.sol",
  "abi": [
    {
      "inputs": [
        {
          "internalType": "address",
          "name": "payoutWallet_",
          "type": "address"
        },
        {
          "internalType": "uint256",
          "name": "skusCapacity",
          "type": "uint256"
        },
        {
          "internalType": "uint256",
          "name": "tokensPerSkuCapacity",
          "type": "uint256"
        },
        {
          "internalType": "address",
          "name": "referenceToken",
          "type": "address"
        },
        {
          "internalType": "contract IUniswapV2Router",
          "name": "uniswapV2Router",
          "type": "address"
        }
      ],
      "stateMutability": "nonpayable",
      "type": "constructor"
    },
    {
      "anonymous": false,
      "inputs": [
        {
          "indexed": false,
          "internalType": "bytes32[]",
          "name": "names",
          "type": "bytes32[]"
        },
        {
          "indexed": false,
          "internalType": "bytes32[]",
          "name": "values",
          "type": "bytes32[]"
        }
      ],
      "name": "MagicValues",
      "type": "event"
    },
    {
      "anonymous": false,
      "inputs": [
        {
          "indexed": true,
          "internalType": "address",
          "name": "previousOwner",
          "type": "address"
        },
        {
          "indexed": true,
          "internalType": "address",
          "name": "newOwner",
          "type": "address"
        }
      ],
      "name": "OwnershipTransferred",
      "type": "event"
    },
    {
      "anonymous": false,
      "inputs": [
        {
          "indexed": false,
          "internalType": "address",
          "name": "account",
          "type": "address"
        }
      ],
      "name": "Paused",
      "type": "event"
    },
    {
      "anonymous": false,
      "inputs": [
        {
          "indexed": false,
          "internalType": "address",
          "name": "payoutWallet_",
          "type": "address"
        }
      ],
      "name": "PayoutWalletSet",
      "type": "event"
    },
    {
      "anonymous": false,
      "inputs": [
        {
          "indexed": true,
          "internalType": "address",
          "name": "purchaser",
          "type": "address"
        },
        {
          "indexed": false,
          "internalType": "address",
          "name": "recipient",
          "type": "address"
        },
        {
          "indexed": true,
          "internalType": "address",
          "name": "token",
          "type": "address"
        },
        {
          "indexed": true,
          "internalType": "bytes32",
          "name": "sku",
          "type": "bytes32"
        },
        {
          "indexed": false,
          "internalType": "uint256",
          "name": "quantity",
          "type": "uint256"
        },
        {
          "indexed": false,
          "internalType": "bytes",
          "name": "userData",
          "type": "bytes"
        },
        {
          "indexed": false,
          "internalType": "uint256",
          "name": "totalPrice",
          "type": "uint256"
        },
        {
          "indexed": false,
          "internalType": "bytes",
          "name": "extData",
          "type": "bytes"
        }
      ],
      "name": "Purchase",
      "type": "event"
    },
    {
      "anonymous": false,
      "inputs": [
        {
          "indexed": false,
          "internalType": "bytes32",
          "name": "sku",
          "type": "bytes32"
        },
        {
          "indexed": false,
          "internalType": "uint256",
          "name": "totalSupply",
          "type": "uint256"
        },
        {
          "indexed": false,
          "internalType": "uint256",
          "name": "maxQuantityPerPurchase",
          "type": "uint256"
        },
        {
          "indexed": false,
          "internalType": "address",
          "name": "notificationsReceiver",
          "type": "address"
        }
      ],
      "name": "SkuCreation",
      "type": "event"
    },
    {
      "anonymous": false,
      "inputs": [
        {
          "indexed": true,
          "internalType": "bytes32",
          "name": "sku",
          "type": "bytes32"
        },
        {
          "indexed": false,
          "internalType": "address[]",
          "name": "tokens",
          "type": "address[]"
        },
        {
          "indexed": false,
          "internalType": "uint256[]",
          "name": "prices",
          "type": "uint256[]"
        }
      ],
      "name": "SkuPricingUpdate",
      "type": "event"
    },
    {
      "anonymous": false,
      "inputs": [
        {
          "indexed": false,
          "internalType": "address",
          "name": "account",
          "type": "address"
        }
      ],
      "name": "Started",
      "type": "event"
    },
    {
      "anonymous": false,
      "inputs": [
        {
          "indexed": false,
          "internalType": "uint256",
          "name": "fromAmount",
          "type": "uint256"
        }
      ],
      "name": "UnderscoreSwapResult",
      "type": "event"
    },
    {
      "anonymous": false,
      "inputs": [
        {
          "indexed": false,
          "internalType": "contract IUniswapV2Router",
          "name": "uniswapV2Router",
          "type": "address"
        }
      ],
      "name": "UniswapV2RouterSet",
      "type": "event"
    },
    {
      "anonymous": false,
      "inputs": [
        {
          "indexed": false,
          "internalType": "address",
          "name": "account",
          "type": "address"
        }
      ],
      "name": "Unpaused",
      "type": "event"
    },
    {
      "inputs": [],
      "name": "PRICE_CONVERT_VIA_ORACLE",
      "outputs": [
        {
          "internalType": "uint256",
          "name": "",
          "type": "uint256"
        }
      ],
      "stateMutability": "view",
      "type": "function"
    },
    {
      "inputs": [],
      "name": "PRICE_SWAP_VIA_ORACLE",
      "outputs": [
        {
          "internalType": "uint256",
          "name": "",
          "type": "uint256"
        }
      ],
      "stateMutability": "view",
      "type": "function"
    },
    {
      "inputs": [],
      "name": "SUPPLY_UNLIMITED",
      "outputs": [
        {
          "internalType": "uint256",
          "name": "",
          "type": "uint256"
        }
      ],
      "stateMutability": "view",
      "type": "function"
    },
    {
      "inputs": [],
      "name": "TOKEN_ETH",
      "outputs": [
        {
          "internalType": "address",
          "name": "",
          "type": "address"
        }
      ],
      "stateMutability": "view",
      "type": "function"
    },
    {
      "inputs": [],
      "name": "addEth",
      "outputs": [],
      "stateMutability": "payable",
      "type": "function"
    },
    {
      "inputs": [
        {
          "internalType": "address",
          "name": "fromToken",
          "type": "address"
        },
        {
          "internalType": "address",
          "name": "toToken",
          "type": "address"
        },
        {
          "internalType": "bytes",
          "name": "data",
          "type": "bytes"
        }
      ],
      "name": "callUnderscoreConversionRate",
      "outputs": [
        {
          "internalType": "uint256",
          "name": "rate",
          "type": "uint256"
        }
      ],
      "stateMutability": "view",
      "type": "function"
    },
    {
      "inputs": [
        {
          "internalType": "address",
          "name": "fromToken",
          "type": "address"
        },
        {
          "internalType": "address",
          "name": "toToken",
          "type": "address"
        },
        {
          "internalType": "uint256",
          "name": "toAmount",
          "type": "uint256"
        },
        {
          "internalType": "bytes",
          "name": "data",
          "type": "bytes"
        }
      ],
      "name": "callUnderscoreEstimateSwap",
      "outputs": [
        {
          "internalType": "uint256",
          "name": "fromAmount",
          "type": "uint256"
        }
      ],
      "stateMutability": "view",
      "type": "function"
    },
    {
      "inputs": [
        {
          "internalType": "address payable",
          "name": "recipient",
          "type": "address"
        },
        {
          "internalType": "address",
          "name": "token",
          "type": "address"
        },
        {
          "internalType": "bytes32",
          "name": "sku",
          "type": "bytes32"
        },
        {
          "internalType": "uint256",
          "name": "quantity",
          "type": "uint256"
        },
        {
          "internalType": "bytes",
          "name": "userData",
          "type": "bytes"
        },
        {
          "internalType": "uint256",
          "name": "totalPrice",
          "type": "uint256"
        },
        {
          "internalType": "bytes32[]",
          "name": "pricingData",
          "type": "bytes32[]"
        }
      ],
      "name": "callUnderscorePayment",
      "outputs": [],
      "stateMutability": "payable",
      "type": "function"
    },
    {
      "inputs": [
        {
          "internalType": "address payable",
          "name": "recipient",
          "type": "address"
        },
        {
          "internalType": "address",
          "name": "token",
          "type": "address"
        },
        {
          "internalType": "bytes32",
          "name": "sku",
          "type": "bytes32"
        },
        {
          "internalType": "uint256",
          "name": "quantity",
          "type": "uint256"
        },
        {
          "internalType": "bytes",
          "name": "userData",
          "type": "bytes"
        }
      ],
      "name": "callUnderscorePricing",
      "outputs": [
        {
          "internalType": "uint256",
          "name": "totalPrice",
          "type": "uint256"
        },
        {
          "internalType": "bytes32[]",
          "name": "pricingData",
          "type": "bytes32[]"
        }
      ],
      "stateMutability": "view",
      "type": "function"
    },
    {
      "inputs": [
        {
          "internalType": "address",
          "name": "fromToken",
          "type": "address"
        },
        {
          "internalType": "uint256",
          "name": "fromAmount",
          "type": "uint256"
        },
        {
          "internalType": "address",
          "name": "toToken",
          "type": "address"
        },
        {
          "internalType": "uint256",
          "name": "toAmount",
          "type": "uint256"
        },
        {
          "internalType": "bytes",
          "name": "data",
          "type": "bytes"
        }
      ],
      "name": "callUnderscoreSwap",
      "outputs": [],
      "stateMutability": "payable",
      "type": "function"
    },
    {
      "inputs": [
        {
          "internalType": "address payable",
          "name": "recipient",
          "type": "address"
        },
        {
          "internalType": "address",
          "name": "token",
          "type": "address"
        },
        {
          "internalType": "bytes32",
          "name": "sku",
          "type": "bytes32"
        },
        {
          "internalType": "uint256",
          "name": "quantity",
          "type": "uint256"
        },
        {
          "internalType": "bytes",
          "name": "userData",
          "type": "bytes"
        }
      ],
      "name": "callUnderscoreValidation",
      "outputs": [],
      "stateMutability": "view",
      "type": "function"
    },
    {
      "inputs": [
        {
          "internalType": "address[]",
          "name": "tokens",
          "type": "address[]"
        },
        {
          "internalType": "bytes",
          "name": "data",
          "type": "bytes"
        }
      ],
      "name": "conversionRates",
      "outputs": [
        {
          "internalType": "uint256[]",
          "name": "rates",
          "type": "uint256[]"
        }
      ],
      "stateMutability": "view",
      "type": "function"
    },
    {
      "inputs": [
        {
          "internalType": "bytes32",
          "name": "sku",
          "type": "bytes32"
        },
        {
          "internalType": "uint256",
          "name": "totalSupply",
          "type": "uint256"
        },
        {
          "internalType": "uint256",
          "name": "maxQuantityPerPurchase",
          "type": "uint256"
        },
        {
          "internalType": "address",
          "name": "notificationsReceiver",
          "type": "address"
        }
      ],
      "name": "createSku",
      "outputs": [],
      "stateMutability": "nonpayable",
      "type": "function"
    },
    {
      "inputs": [
        {
          "internalType": "address payable",
          "name": "recipient",
          "type": "address"
        },
        {
          "internalType": "address",
          "name": "token",
          "type": "address"
        },
        {
          "internalType": "bytes32",
          "name": "sku",
          "type": "bytes32"
        },
        {
          "internalType": "uint256",
          "name": "quantity",
          "type": "uint256"
        },
        {
          "internalType": "bytes",
          "name": "userData",
          "type": "bytes"
        }
      ],
      "name": "estimatePurchase",
      "outputs": [
        {
          "internalType": "uint256",
          "name": "totalPrice",
          "type": "uint256"
        },
        {
          "internalType": "bytes32[]",
          "name": "pricingData",
          "type": "bytes32[]"
        }
      ],
      "stateMutability": "view",
      "type": "function"
    },
    {
      "inputs": [
        {
          "internalType": "address",
          "name": "tokenA",
          "type": "address"
        },
        {
          "internalType": "address",
          "name": "tokenB",
          "type": "address"
        }
      ],
      "name": "getReserves",
      "outputs": [
        {
          "internalType": "uint256",
          "name": "reserveA",
          "type": "uint256"
        },
        {
          "internalType": "uint256",
          "name": "reserveB",
          "type": "uint256"
        }
      ],
      "stateMutability": "view",
      "type": "function"
    },
    {
      "inputs": [
        {
          "internalType": "bytes32",
          "name": "sku",
          "type": "bytes32"
        }
      ],
      "name": "getSkuInfo",
      "outputs": [
        {
          "internalType": "uint256",
          "name": "totalSupply",
          "type": "uint256"
        },
        {
          "internalType": "uint256",
          "name": "remainingSupply",
          "type": "uint256"
        },
        {
          "internalType": "uint256",
          "name": "maxQuantityPerPurchase",
          "type": "uint256"
        },
        {
          "internalType": "address",
          "name": "notificationsReceiver",
          "type": "address"
        },
        {
          "internalType": "address[]",
          "name": "tokens",
          "type": "address[]"
        },
        {
          "internalType": "uint256[]",
          "name": "prices",
          "type": "uint256[]"
        }
      ],
      "stateMutability": "view",
      "type": "function"
    },
    {
      "inputs": [],
      "name": "getSkus",
      "outputs": [
        {
          "internalType": "bytes32[]",
          "name": "skus",
          "type": "bytes32[]"
        }
      ],
      "stateMutability": "view",
      "type": "function"
    },
    {
      "inputs": [],
      "name": "owner",
      "outputs": [
        {
          "internalType": "address",
          "name": "",
          "type": "address"
        }
      ],
      "stateMutability": "view",
      "type": "function"
    },
    {
      "inputs": [],
      "name": "pause",
      "outputs": [],
      "stateMutability": "nonpayable",
      "type": "function"
    },
    {
      "inputs": [],
      "name": "paused",
      "outputs": [
        {
          "internalType": "bool",
          "name": "",
          "type": "bool"
        }
      ],
      "stateMutability": "view",
      "type": "function"
    },
    {
      "inputs": [],
      "name": "payoutWallet",
      "outputs": [
        {
          "internalType": "address payable",
          "name": "",
          "type": "address"
        }
      ],
      "stateMutability": "view",
      "type": "function"
    },
    {
      "inputs": [
        {
          "internalType": "address payable",
          "name": "recipient",
          "type": "address"
        },
        {
          "internalType": "address",
          "name": "token",
          "type": "address"
        },
        {
          "internalType": "bytes32",
          "name": "sku",
          "type": "bytes32"
        },
        {
          "internalType": "uint256",
          "name": "quantity",
          "type": "uint256"
        },
        {
          "internalType": "bytes",
          "name": "userData",
          "type": "bytes"
        }
      ],
      "name": "purchaseFor",
      "outputs": [],
      "stateMutability": "payable",
      "type": "function"
    },
    {
      "inputs": [],
      "name": "referenceToken",
      "outputs": [
        {
          "internalType": "address",
          "name": "",
          "type": "address"
        }
      ],
      "stateMutability": "view",
      "type": "function"
    },
    {
      "inputs": [],
      "name": "renounceOwnership",
      "outputs": [],
      "stateMutability": "nonpayable",
      "type": "function"
    },
    {
      "inputs": [
        {
          "internalType": "address",
          "name": "payoutWallet_",
          "type": "address"
        }
      ],
      "name": "setPayoutWallet",
      "outputs": [],
      "stateMutability": "nonpayable",
      "type": "function"
    },
    {
      "inputs": [],
      "name": "start",
      "outputs": [],
      "stateMutability": "nonpayable",
      "type": "function"
    },
    {
      "inputs": [],
      "name": "startedAt",
      "outputs": [
        {
          "internalType": "uint256",
          "name": "",
          "type": "uint256"
        }
      ],
      "stateMutability": "view",
      "type": "function"
    },
    {
      "inputs": [
        {
          "internalType": "address[]",
          "name": "tokens",
          "type": "address[]"
        },
        {
          "internalType": "uint256",
          "name": "referenceAmount",
          "type": "uint256"
        },
        {
          "internalType": "bytes",
          "name": "data",
          "type": "bytes"
        }
      ],
      "name": "swapRates",
      "outputs": [
        {
          "internalType": "uint256[]",
          "name": "rates",
          "type": "uint256[]"
        }
      ],
      "stateMutability": "view",
      "type": "function"
    },
    {
      "inputs": [
        {
          "internalType": "address",
          "name": "newOwner",
          "type": "address"
        }
      ],
      "name": "transferOwnership",
      "outputs": [],
      "stateMutability": "nonpayable",
      "type": "function"
    },
    {
      "inputs": [],
      "name": "uniswapV2Router",
      "outputs": [
        {
          "internalType": "contract IUniswapV2Router",
          "name": "",
          "type": "address"
        }
      ],
      "stateMutability": "view",
      "type": "function"
    },
    {
      "inputs": [],
      "name": "unpause",
      "outputs": [],
      "stateMutability": "nonpayable",
      "type": "function"
    },
    {
      "inputs": [
        {
          "internalType": "bytes32",
          "name": "sku",
          "type": "bytes32"
        },
        {
          "internalType": "address[]",
          "name": "tokens",
          "type": "address[]"
        },
        {
          "internalType": "uint256[]",
          "name": "prices",
          "type": "uint256[]"
        }
      ],
      "name": "updateSkuPricing",
      "outputs": [],
      "stateMutability": "nonpayable",
      "type": "function"
    },
    {
      "stateMutability": "payable",
      "type": "receive"
    }
  ],
  "bytecode": "0x60c06040523480156200001157600080fd5b506040516200606a3803806200606a833981810160405260a08110156200003757600080fd5b508051602082015160408301516060840151608090940151929391929091908484848484808585858583838383838383828282826000620000806001600160e01b03620005ce16565b600080546001600160a01b0319166001600160a01b0383169081178255604051929350917f8be0079c531659141344cd1fd0a4f28419497f9722a3daafe3b4186f6b6457e0908290a350620000de816001600160e01b03620005d216565b506003805460ff19169055608082905260a081905260408051600280825260608083018452926020830190803683375050604080516002808252606080830184529495509092509060208301908036833750508351919250680a89e968a9cbe8aa8960bb1b9173eeeeeeeeeeeeeeeeeeeeeeeeeeeeeeeeeeeeeeee915084906000906200016757fe5b60200260200101836000815181106200017c57fe5b602002602001018281525082815250505060001960001b6f14d55414131657d5539312535255115160821b9083600181518110620001b657fe5b6020026020010183600181518110620001cb57fe5b60200260200101828152508281525050506000805160206200604a8339815191528282604051808060200180602001838103835285818151815260200191508051906020019060200280838360005b83811015620002345781810151838201526020016200021a565b50505050905001838103825284818151815260200191508051906020019060200280838360005b83811015620002755781810151838201526020016200025b565b5050505090500194505050505060405180910390a16200029d6001600160e01b03620007c116565b5050600780546001600160a01b0319166001600160a01b03891617905550606094506001935060009250620002d0915050565b50604051908082528060200260200182016040528015620002fb578160200160208202803683370190505b50604080516001808252818301909252919250606091906020808301908036833701905050905060001960001b7f50524943455f434f4e564552545f5649415f4f5241434c45000000000000000090836000815181106200035857fe5b60200260200101836000815181106200036d57fe5b60200260200101828152508281525050506000805160206200604a8339815191528282604051808060200180602001838103835285818151815260200191508051906020019060200280838360005b83811015620003d6578181015183820152602001620003bc565b50505050905001838103825284818151815260200191508051906020019060200280838360005b8381101562000417578181015183820152602001620003fd565b5050505090500194505050505060405180910390a1505050505050606060016001600160401b03811180156200044c57600080fd5b5060405190808252806020026020018201604052801562000477578160200160208202803683370190505b506040805160018082528183019092529192506060919060208083019080368337505083519192507f50524943455f535741505f5649415f4f5241434c4500000000000000000000009160011991508490600090620004d257fe5b6020026020010183600081518110620004e757fe5b60200260200101828152508281525050506000805160206200604a8339815191528282604051808060200180602001838103835285818151815260200191508051906020019060200280838360005b838110156200055057818101518382015260200162000536565b50505050905001838103825284818151815260200191508051906020019060200280838360005b838110156200059157818101518382015260200162000577565b5050505090500194505050505060405180910390a1505050505050620005bd816200086b60201b60201c565b5050505050505050505050620008bf565b3390565b620005e56001600160e01b03620005ce16565b6000546001600160a01b0390811691161462000648576040805162461bcd60e51b815260206004820181905260248201527f4f776e61626c653a2063616c6c6572206973206e6f7420746865206f776e6572604482015290519081900360640190fd5b6001600160a01b038116620006a4576040805162461bcd60e51b815260206004820152601460248201527f5061796f75743a207a65726f2061646472657373000000000000000000000000604482015290519081900360640190fd5b6001600160a01b03811630141562000703576040805162461bcd60e51b815260206004820152601f60248201527f5061796f75743a207468697320636f6e7472616374206173207061796f757400604482015290519081900360640190fd5b6001546001600160a01b038281169116141562000767576040805162461bcd60e51b815260206004820152601a60248201527f5061796f75743a2073616d65207061796f75742077616c6c6574000000000000604482015290519081900360640190fd5b600180546001600160a01b0319166001600160a01b03838116919091179182905560408051929091168252517fdd880d24a789958a6398c99c2e54ce31bc10a638cbc42f7dd34285479ae0f855916020908290030190a150565b60035460ff16156200080d576040805162461bcd60e51b815260206004820152601060248201526f14185d5cd8589b194e881c185d5cd95960821b604482015290519081900360640190fd5b6003805460ff191660011790557f62e78cea01bee320cd4e420270b5ea74000d11b0c9f74754ebdbfc544b05a2586200084e6001600160e01b03620005ce16565b604080516001600160a01b039092168252519081900360200190a1565b600880546001600160a01b0383166001600160a01b0319909116811790915560408051918252517ffe70995e26c62b71bbd53a5b9e09215c42e2006fad72ba845051faa8de1510ba9181900360200190a150565b60805160a051615767620008e3600039806138a75250806126ca52506157676000f3fe6080604052600436106101e75760003560e01c80638488bb4e11610102578063a963b25711610095578063c7b778db11610064578063c7b778db14610cf8578063d52bb6f414610dc7578063f21f537d14610e1b578063f2fde38b14610e3057610247565b8063a963b25714610b73578063bda4c5ab14610c08578063be9a655514610cdb578063c2ac3aff14610cf057610247565b80639865bcc8116100d15780639865bcc814610a325780639e04954514610a32578063a1e1690814610a47578063a541f89c14610add57610247565b80638488bb4e1461087b5780638ce507eb146108905780638da5cb5b1461097b57806397309b441461099057610247565b8063579f2c771161017a57806361bd38511161014957806361bd3851146107b95780636b8f9c431461081e578063715018a6146108515780638456cb591461086657610247565b8063579f2c771461062b5780635c4fafc7146106405780635c975abb146106555780635e6e9f701461067e57610247565b80632a8a45bc116101b65780632a8a45bc1461043e5780632c87927b1461052f5780633f4ba83a1461057457806356c1476e1461058957610247565b80631265b6511461024c5780631323b0661461027d578063151229f71461037a5780631694505e1461042957610247565b36610247576008546001600160a01b0316610200610e63565b6001600160a01b0316146102455760405162461bcd60e51b81526004018080602001828103825260238152602001806155ea6023913960400191505060405180910390fd5b005b600080fd5b34801561025857600080fd5b50610261610e67565b604080516001600160a01b039092168252519081900360200190f35b34801561028957600080fd5b5061031f600480360360a08110156102a057600080fd5b6001600160a01b03823581169260208101359091169160408201359160608101359181019060a0810160808201356401000000008111156102e057600080fd5b8201836020820111156102f257600080fd5b8035906020019184600183028401116401000000008311171561031457600080fd5b509092509050610e76565b6040518083815260200180602001828103825283818151815260200191508051906020019060200280838360005b8381101561036557818101518382015260200161034d565b50505050905001935050505060405180910390f35b34801561038657600080fd5b506104176004803603608081101561039d57600080fd5b6001600160a01b038235811692602081013590911691604082013591908101906080810160608201356401000000008111156103d857600080fd5b8201836020820111156103ea57600080fd5b8035906020019184600183028401116401000000008311171561040c57600080fd5b509092509050610fbb565b60408051918252519081900360200190f35b34801561043557600080fd5b50610261611009565b34801561044a57600080fd5b506104686004803603602081101561046157600080fd5b5035611018565b60405180878152602001868152602001858152602001846001600160a01b03166001600160a01b031681526020018060200180602001838103835285818151815260200191508051906020019060200280838360005b838110156104d65781810151838201526020016104be565b50505050905001838103825284818151815260200191508051906020019060200280838360005b838110156105155781810151838201526020016104fd565b505050509050019850505050505050505060405180910390f35b34801561053b57600080fd5b506102456004803603608081101561055257600080fd5b50803590602081013590604081013590606001356001600160a01b03166111c3565b34801561058057600080fd5b506102456111d5565b34801561059557600080fd5b50610245600480360360a08110156105ac57600080fd5b6001600160a01b03823581169260208101359091169160408201359160608101359181019060a0810160808201356401000000008111156105ec57600080fd5b8201836020820111156105fe57600080fd5b8035906020019184600183028401116401000000008311171561062057600080fd5b50909250905061129d565b34801561063757600080fd5b50610417611327565b34801561064c57600080fd5b5061026161132d565b34801561066157600080fd5b5061066a611345565b604080519115158252519081900360200190f35b34801561068a57600080fd5b50610245600480360360608110156106a157600080fd5b813591908101906040810160208201356401000000008111156106c357600080fd5b8201836020820111156106d557600080fd5b803590602001918460208302840111640100000000831117156106f757600080fd5b919080806020026020016040519081016040528093929190818152602001838360200280828437600092019190915250929594936020810193503591505064010000000081111561074757600080fd5b82018360208201111561075957600080fd5b8035906020019184602083028401116401000000008311171561077b57600080fd5b91908080602002602001604051908101604052809392919081815260200183836020028082843760009201919091525092955061134e945050505050565b3480156107c557600080fd5b506107ce611580565b60408051602080825283518183015283519192839290830191858101910280838360005b8381101561080a5781810151838201526020016107f2565b505050509050019250505060405180910390f35b34801561082a57600080fd5b506102456004803603602081101561084157600080fd5b50356001600160a01b03166115db565b34801561085d57600080fd5b506102456117c8565b34801561087257600080fd5b50610245611889565b34801561088757600080fd5b5061026161194f565b610245600480360360e08110156108a657600080fd5b6001600160a01b03823581169260208101359091169160408201359160608101359181019060a0810160808201356401000000008111156108e657600080fd5b8201836020820111156108f857600080fd5b8035906020019184600183028401116401000000008311171561091a57600080fd5b9193909282359260408101906020013564010000000081111561093c57600080fd5b82018360208201111561094e57600080fd5b8035906020019184602083028401116401000000008311171561097057600080fd5b50909250905061195e565b34801561098757600080fd5b50610261611a28565b34801561099c57600080fd5b5061031f600480360360a08110156109b357600080fd5b6001600160a01b03823581169260208101359091169160408201359160608101359181019060a0810160808201356401000000008111156109f357600080fd5b820183602082011115610a0557600080fd5b80359060200191846001830284011164010000000083111715610a2757600080fd5b509092509050611a37565b348015610a3e57600080fd5b50610417611ad6565b348015610a5357600080fd5b5061041760048036036060811015610a6a57600080fd5b6001600160a01b038235811692602081013590911691810190606081016040820135640100000000811115610a9e57600080fd5b820183602082011115610ab057600080fd5b80359060200191846001830284011164010000000083111715610ad257600080fd5b509092509050611adc565b610245600480360360a0811015610af357600080fd5b6001600160a01b0382358116926020810135926040820135909216916060820135919081019060a081016080820135640100000000811115610b3457600080fd5b820183602082011115610b4657600080fd5b80359060200191846001830284011164010000000083111715610b6857600080fd5b509092509050611b28565b610245600480360360a0811015610b8957600080fd5b6001600160a01b03823581169260208101359091169160408201359160608101359181019060a081016080820135640100000000811115610bc957600080fd5b820183602082011115610bdb57600080fd5b80359060200191846001830284011164010000000083111715610bfd57600080fd5b509092509050611e49565b348015610c1457600080fd5b506107ce60048036036060811015610c2b57600080fd5b810190602081018135640100000000811115610c4657600080fd5b820183602082011115610c5857600080fd5b80359060200191846020830284011164010000000083111715610c7a57600080fd5b91939092823592604081019060200135640100000000811115610c9c57600080fd5b820183602082011115610cae57600080fd5b80359060200191846001830284011164010000000083111715610cd057600080fd5b509092509050611f76565b348015610ce757600080fd5b50610245612091565b61024561129b565b348015610d0457600080fd5b506107ce60048036036040811015610d1b57600080fd5b810190602081018135640100000000811115610d3657600080fd5b820183602082011115610d4857600080fd5b80359060200191846020830284011164010000000083111715610d6a57600080fd5b919390929091602081019035640100000000811115610d8857600080fd5b820183602082011115610d9a57600080fd5b80359060200191846001830284011164010000000083111715610dbc57600080fd5b509092509050612103565b348015610dd357600080fd5b50610e0260048036036040811015610dea57600080fd5b506001600160a01b03813581169160200135166121ef565b6040805192835260208301919091528051918290030190f35b348015610e2757600080fd5b5061041761234b565b348015610e3c57600080fd5b5061024560048036036020811015610e5357600080fd5b50356001600160a01b0316612351565b3390565b6007546001600160a01b031681565b6000606060025460001415610ed2576040805162461bcd60e51b815260206004820152601660248201527f537461727461626c653a206e6f74207374617274656400000000000000000000604482015290519081900360640190fd5b60035460ff1615610f2a576040805162461bcd60e51b815260206004820152601060248201527f5061757361626c653a2070617573656400000000000000000000000000000000604482015290519081900360640190fd5b610f32615419565b610f3a610e63565b6001600160a01b03908116825289811660208084019190915290891660408084019190915260608301899052608083018890528051601f870183900483028101830190915285815290869086908190840183828082843760009201919091525050505060a0820152610fab81612468565b9250925050965096945050505050565b6000610fff86868686868080601f01602080910402602001604051908101604052809392919081815260200183838082843760009201919091525061248f92505050565b9695505050505050565b6008546001600160a01b031681565b600081815260066020526040812081908190819060609081908361103e600483016125e0565b82549850905087611096576040805162461bcd60e51b815260206004820152601660248201527f53616c653a206e6f6e2d6578697374656e7420736b7500000000000000000000604482015290519081900360640190fd5b60018201546002830154600384015491985096506001600160a01b031694508067ffffffffffffffff811180156110cc57600080fd5b506040519080825280602002602001820160405280156110f6578160200160208202803683370190505b5093508067ffffffffffffffff8111801561111057600080fd5b5060405190808252806020026020018201604052801561113a578160200160208202803683370190505b50925060005b818110156111b75760008061115e600486018463ffffffff6125e416565b915091508160001c87848151811061117257fe5b60200260200101906001600160a01b031690816001600160a01b0316815250508060001c8684815181106111a257fe5b60209081029190910101525050600101611140565b50505091939550919395565b6111cf84848484612676565b50505050565b6111dd610e63565b6000546001600160a01b0390811691161461123f576040805162461bcd60e51b815260206004820181905260248201527f4f776e61626c653a2063616c6c6572206973206e6f7420746865206f776e6572604482015290519081900360640190fd5b600254611293576040805162461bcd60e51b815260206004820152601660248201527f537461727461626c653a206e6f74207374617274656400000000000000000000604482015290519081900360640190fd5b61129b6128b3565b565b6112a5615419565b6112ad610e63565b6001600160a01b03908116825287811660208084019190915290871660408084019190915260608301879052608083018690528051601f850183900483028101830190915283815290849084908190840183828082843760009201919091525050505060a082015261131e8161295a565b50505050505050565b60011981565b73eeeeeeeeeeeeeeeeeeeeeeeeeeeeeeeeeeeeeeee81565b60035460ff1690565b611356610e63565b6000546001600160a01b039081169116146113b8576040805162461bcd60e51b815260206004820181905260248201527f4f776e61626c653a2063616c6c6572206973206e6f7420746865206f776e6572604482015290519081900360640190fd5b8151815181146113f95760405162461bcd60e51b815260040180806020018281038252602481526020018061565d6024913960400191505060405180910390fd5b6000848152600660205260409020805461145a576040805162461bcd60e51b815260206004820152601660248201527f53616c653a206e6f6e2d6578697374656e7420736b7500000000000000000000604482015290519081900360640190fd5b60048101826114b157600061146e826125e0565b905060005b818110156114aa57600061148d848263ffffffff6125e416565b5090506114a0848263ffffffff6129ab16565b5050600101611473565b50506114bc565b6114bc818686612a8b565b857fcb3fe5489e0cd43d0f4a33d1e09a4a0463a03d0d38f56165530854e5540db1438686604051808060200180602001838103835285818151815260200191508051906020019060200280838360005b8381101561152457818101518382015260200161150c565b50505050905001838103825284818151815260200191508051906020019060200280838360005b8381101561156357818101518382015260200161154b565b5050505090500194505050505060405180910390a2505050505050565b606060046000018054806020026020016040519081016040528092919081815260200182805480156115d157602002820191906000526020600020905b8154815260200190600101908083116115bd575b5050505050905090565b6115e3610e63565b6000546001600160a01b03908116911614611645576040805162461bcd60e51b815260206004820181905260248201527f4f776e61626c653a2063616c6c6572206973206e6f7420746865206f776e6572604482015290519081900360640190fd5b6001600160a01b0381166116a0576040805162461bcd60e51b815260206004820152601460248201527f5061796f75743a207a65726f2061646472657373000000000000000000000000604482015290519081900360640190fd5b6001600160a01b0381163014156116fe576040805162461bcd60e51b815260206004820152601f60248201527f5061796f75743a207468697320636f6e7472616374206173207061796f757400604482015290519081900360640190fd5b6001546001600160a01b0382811691161415611761576040805162461bcd60e51b815260206004820152601a60248201527f5061796f75743a2073616d65207061796f75742077616c6c6574000000000000604482015290519081900360640190fd5b6001805473ffffffffffffffffffffffffffffffffffffffff19166001600160a01b03838116919091179182905560408051929091168252517fdd880d24a789958a6398c99c2e54ce31bc10a638cbc42f7dd34285479ae0f855916020908290030190a150565b6117d0610e63565b6000546001600160a01b03908116911614611832576040805162461bcd60e51b815260206004820181905260248201527f4f776e61626c653a2063616c6c6572206973206e6f7420746865206f776e6572604482015290519081900360640190fd5b600080546040516001600160a01b03909116907f8be0079c531659141344cd1fd0a4f28419497f9722a3daafe3b4186f6b6457e0908390a36000805473ffffffffffffffffffffffffffffffffffffffff19169055565b611891610e63565b6000546001600160a01b039081169116146118f3576040805162461bcd60e51b815260206004820181905260248201527f4f776e61626c653a2063616c6c6572206973206e6f7420746865206f776e6572604482015290519081900360640190fd5b600254611947576040805162461bcd60e51b815260206004820152601660248201527f537461727461626c653a206e6f74207374617274656400000000000000000000604482015290519081900360640190fd5b61129b612b03565b6001546001600160a01b031681565b611966615419565b61196e610e63565b6001600160a01b0390811682528a8116602080840191909152908a16604080840191909152606083018a9052608083018990528051601f880183900483028101830190915286815290879087908190840183828082843760009201919091525050505060a082015260c081018490526040805160208085028281018201909352848252909185918591829185019084908082843760009201919091525050505060e0820152611a1c81612b91565b50505050505050505050565b6000546001600160a01b031690565b60006060611a43615419565b611a4b610e63565b6001600160a01b03908116825289811660208084019190915290891660408084019190915260608301899052608083018890528051601f870183900483028101830190915285815290869086908190840183828082843760009201919091525050505060a0820152611abc81612cc3565b8060c0015192508060e00151915050965096945050505050565b60001981565b6000611b1f858585858080601f016020809104026020016040519081016040528093929190818152602001838380828437600092019190915250612d6b92505050565b95945050505050565b6001600160a01b03861673eeeeeeeeeeeeeeeeeeeeeeeeeeeeeeeeeeeeeeee14611dc857600854604080517f095ea7b30000000000000000000000000000000000000000000000000000000081526001600160a01b0392831660048201526024810188905290519188169163095ea7b3916044808201926020929091908290030181600087803b158015611bbb57600080fd5b505af1158015611bcf573d6000803e3d6000fd5b505050506040513d6020811015611be557600080fd5b5051611c225760405162461bcd60e51b815260040180806020018281038252602f81526020018061560d602f913960400191505060405180910390fd5b604080517fdd62ed3e000000000000000000000000000000000000000000000000000000008152336004820152306024820152905186916001600160a01b0389169163dd62ed3e91604480820192602092909190829003018186803b158015611c8a57600080fd5b505afa158015611c9e573d6000803e3d6000fd5b505050506040513d6020811015611cb457600080fd5b50511015611cf35760405162461bcd60e51b815260040180806020018281038252603181526020018061550a6031913960400191505060405180910390fd5b604080517f23b872dd0000000000000000000000000000000000000000000000000000000081523360048201523060248201526044810187905290516001600160a01b038816916323b872dd9160648083019260209291908290030181600087803b158015611d6157600080fd5b505af1158015611d75573d6000803e3d6000fd5b505050506040513d6020811015611d8b57600080fd5b5051611dc85760405162461bcd60e51b815260040180806020018281038252602f8152602001806154db602f913960400191505060405180910390fd5b611e0a86858585858080601f016020809104026020016040519081016040528093929190818152602001838380828437600092019190915250612edf92505050565b6040805182815290519196507fe16fb73e6e5415265887cee6412691a8b3cd94e24c6528ed966dc06ffb799b78919081900360200190a1505050505050565b600254611e9d576040805162461bcd60e51b815260206004820152601660248201527f537461727461626c653a206e6f74207374617274656400000000000000000000604482015290519081900360640190fd5b60035460ff1615611ef5576040805162461bcd60e51b815260206004820152601060248201527f5061757361626c653a2070617573656400000000000000000000000000000000604482015290519081900360640190fd5b611efd615419565b611f05610e63565b6001600160a01b03908116825287811660208084019190915290871660408084019190915260608301879052608083018690528051601f850183900483028101830190915283815290849084908190840183828082843760009201919091525050505060a082015261131e8161308c565b6060848067ffffffffffffffff81118015611f9057600080fd5b50604051908082528060200260200182016040528015611fba578160200160208202803683370190505b50915060005b8181101561208657600061203c898984818110611fd957fe5b905060200201356001600160a01b0316600760009054906101000a90046001600160a01b03168989898080601f01602080910402602001604051908101604052809392919081815260200183838082843760009201919091525061248f92505050565b90506120668161205a89670de0b6b3a764000063ffffffff6130b916565b9063ffffffff61311916565b84838151811061207257fe5b602090810291909101015250600101611fc0565b505095945050505050565b612099610e63565b6000546001600160a01b039081169116146120fb576040805162461bcd60e51b815260206004820181905260248201527f4f776e61626c653a2063616c6c6572206973206e6f7420746865206f776e6572604482015290519081900360640190fd5b61129361315b565b6060838067ffffffffffffffff8111801561211d57600080fd5b50604051908082528060200260200182016040528015612147578160200160208202803683370190505b50915060005b818110156121e5576121c687878381811061216457fe5b905060200201356001600160a01b0316600760009054906101000a90046001600160a01b031687878080601f016020809104026020016040519081016040528093929190818152602001838380828437600092019190915250612d6b92505050565b8382815181106121d257fe5b602090810291909101015260010161214d565b5050949350505050565b6000806001600160a01b03841673eeeeeeeeeeeeeeeeeeeeeeeeeeeeeeeeeeeeeeee141561229457600860009054906101000a90046001600160a01b03166001600160a01b031663ad5c46486040518163ffffffff1660e01b815260040160206040518083038186803b15801561226557600080fd5b505afa158015612279573d6000803e3d6000fd5b505050506040513d602081101561228f57600080fd5b505193505b6001600160a01b03831673eeeeeeeeeeeeeeeeeeeeeeeeeeeeeeeeeeeeeeee141561233657600860009054906101000a90046001600160a01b03166001600160a01b031663ad5c46486040518163ffffffff1660e01b815260040160206040518083038186803b15801561230757600080fd5b505afa15801561231b573d6000803e3d6000fd5b505050506040513d602081101561233157600080fd5b505192505b61234084846131dd565b909590945092505050565b60025490565b612359610e63565b6000546001600160a01b039081169116146123bb576040805162461bcd60e51b815260206004820181905260248201527f4f776e61626c653a2063616c6c6572206973206e6f7420746865206f776e6572604482015290519081900360640190fd5b6001600160a01b0381166124005760405162461bcd60e51b815260040180806020018281038252602681526020018061553b6026913960400191505060405180910390fd5b600080546040516001600160a01b03808516939216917f8be0079c531659141344cd1fd0a4f28419497f9722a3daafe3b4186f6b6457e091a36000805473ffffffffffffffffffffffffffffffffffffffff19166001600160a01b0392909216919091179055565b600060606124758361295a565b61247e83612cc3565b505060c081015160e0909101519091565b60006001600160a01b03851673eeeeeeeeeeeeeeeeeeeeeeeeeeeeeeeeeeeeeeee141561253357600860009054906101000a90046001600160a01b03166001600160a01b031663ad5c46486040518163ffffffff1660e01b815260040160206040518083038186803b15801561250457600080fd5b505afa158015612518573d6000803e3d6000fd5b505050506040513d602081101561252e57600080fd5b505194505b6001600160a01b03841673eeeeeeeeeeeeeeeeeeeeeeeeeeeeeeeeeeeeeeee14156125d557600860009054906101000a90046001600160a01b03166001600160a01b031663ad5c46486040518163ffffffff1660e01b815260040160206040518083038186803b1580156125a657600080fd5b505afa1580156125ba573d6000803e3d6000fd5b505050506040513d60208110156125d057600080fd5b505193505b611b1f8585856132a9565b5490565b81546000908190831061263e576040805162461bcd60e51b815260206004820152601c60248201527f456e756d4d61703a20696e646578206f7574206f6620626f756e647300000000604482015290519081900360640190fd5b600084600001848154811061264f57fe5b906000526020600020906002020190508060000154816001015492509250505b9250929050565b826126c8576040805162461bcd60e51b815260206004820152601160248201527f53616c653a207a65726f20737570706c79000000000000000000000000000000604482015290519081900360640190fd5b7f00000000000000000000000000000000000000000000000000000000000000006126f360046125e0565b10612745576040805162461bcd60e51b815260206004820152601360248201527f53616c653a20746f6f206d616e7920736b757300000000000000000000000000604482015290519081900360640190fd5b61275660048563ffffffff6134b216565b6127a7576040805162461bcd60e51b815260206004820152601960248201527f53616c653a20736b7520616c7265616479206372656174656400000000000000604482015290519081900360640190fd5b6001600160a01b03811615612819576127c8816001600160a01b03166134fc565b612819576040805162461bcd60e51b815260206004820181905260248201527f53616c653a207265636569766572206973206e6f74206120636f6e7472616374604482015290519081900360640190fd5b60008481526006602090815260409182902085815560018101869055600281018590556003810180546001600160a01b03861673ffffffffffffffffffffffffffffffffffffffff1990911681179091558351888152928301879052828401869052606083015291517f38bd4aabce684540cd61351b91f2f5facf9d6963934347e25aab93d87ae7ac149181900360800190a15050505050565b60035460ff1661290a576040805162461bcd60e51b815260206004820152601460248201527f5061757361626c653a206e6f7420706175736564000000000000000000000000604482015290519081900360640190fd5b6003805460ff191690557f5db9ee0a495bf2e6ff9c91a7834c1ba4fdd244a5e8aa4e537bd38aeae4b073aa61293d610e63565b604080516001600160a01b039092168252519081900360200190a1565b61296381613502565b60408160a001515110156129a85760405162461bcd60e51b81526004018080602001828103825260348152602001806155b66034913960400191505060405180910390fd5b50565b60008181526001830160205260408120548015612a7f57835460001980830191908101906000908790839081106129de57fe5b90600052602060002090600202019050808760000184815481106129fe57fe5b600091825260208083208454600290930201918255600193840154918401919091558354825289830190526040902090840190558654879080612a3d57fe5b6000828152602080822060026000199094019384020182815560019081018390559290935588815289820190925260408220919091559450612a859350505050565b60009150505b92915050565b612a968383836137b2565b612a9f836125e0565b1580612ac35750600754612ac39084906001600160a01b031663ffffffff61392216565b612afe5760405162461bcd60e51b815260040180806020018281038252602381526020018061570f6023913960400191505060405180910390fd5b505050565b60035460ff1615612b5b576040805162461bcd60e51b815260206004820152601060248201527f5061757361626c653a2070617573656400000000000000000000000000000000604482015290519081900360640190fd5b6003805460ff191660011790557f62e78cea01bee320cd4e420270b5ea74000d11b0c9f74754ebdbfc544b05a25861293d610e63565b60e08101515115801590612bc6575060408101516001600160a01b031673eeeeeeeeeeeeeeeeeeeeeeeeeeeeeeeeeeeeeeee14155b15612cba5760a0810151602081015180612bdf57506000195b60408084015160085482517f095ea7b30000000000000000000000000000000000000000000000000000000081526001600160a01b03918216600482015260248101859052925191169163095ea7b39160448083019260209291908290030181600087803b158015612c5057600080fd5b505af1158015612c64573d6000803e3d6000fd5b505050506040513d6020811015612c7a57600080fd5b5051612cb75760405162461bcd60e51b815260040180806020018281038252602e815260200180615561602e913960400191505060405180910390fd5b50505b6129a88161393a565b606081015160009081526006602052604090208054612d29576040805162461bcd60e51b815260206004820152601560248201527f53616c653a20756e737570706f7274656420534b550000000000000000000000604482015290519081900360640190fd5b600481016000612d398483613e3e565b9050612d46848383613eb4565b6111cf576080840151612d6090829063ffffffff6130b916565b60c085015250505050565b60006001600160a01b03841673eeeeeeeeeeeeeeeeeeeeeeeeeeeeeeeeeeeeeeee1415612e0f57600860009054906101000a90046001600160a01b03166001600160a01b031663ad5c46486040518163ffffffff1660e01b815260040160206040518083038186803b158015612de057600080fd5b505afa158015612df4573d6000803e3d6000fd5b505050506040513d6020811015612e0a57600080fd5b505193505b6001600160a01b03831673eeeeeeeeeeeeeeeeeeeeeeeeeeeeeeeeeeeeeeee1415612eb157600860009054906101000a90046001600160a01b03166001600160a01b031663ad5c46486040518163ffffffff1660e01b815260040160206040518083038186803b158015612e8257600080fd5b505afa158015612e96573d6000803e3d6000fd5b505050506040513d6020811015612eac57600080fd5b505192505b600080612ebe86866131dd565b9092509050610fff8261205a83670de0b6b3a764000063ffffffff6130b916565b602081015160408201516000919081612f25576001600160a01b03871673eeeeeeeeeeeeeeeeeeeeeeeeeeeeeeeeeeeeeeee1415612f1f57349150612f25565b60001991505b80612f2f57506000195b6001600160a01b03871673eeeeeeeeeeeeeeeeeeeeeeeeeeeeeeeeeeeeeeee1415612fd157600860009054906101000a90046001600160a01b03166001600160a01b031663ad5c46486040518163ffffffff1660e01b815260040160206040518083038186803b158015612fa257600080fd5b505afa158015612fb6573d6000803e3d6000fd5b505050506040513d6020811015612fcc57600080fd5b505196505b6001600160a01b03861673eeeeeeeeeeeeeeeeeeeeeeeeeeeeeeeeeeeeeeee141561307357600860009054906101000a90046001600160a01b03166001600160a01b031663ad5c46486040518163ffffffff1660e01b815260040160206040518083038186803b15801561304457600080fd5b505afa158015613058573d6000803e3d6000fd5b505050506040513d602081101561306e57600080fd5b505195505b613081878787853086613fca565b979650505050505050565b6130958161295a565b61309e81612cc3565b6130a781612b91565b6130b081614643565b6129a881614753565b6000826130c857506000612a85565b828202828482816130d557fe5b04146131125760405162461bcd60e51b815260040180806020018281038252602181526020018061563c6021913960400191505060405180910390fd5b9392505050565b600061311283836040518060400160405280601a81526020017f536166654d6174683a206469766973696f6e206279207a65726f000000000000815250614c46565b600254156131b0576040805162461bcd60e51b815260206004820152601260248201527f537461727461626c653a20737461727465640000000000000000000000000000604482015290519081900360640190fd5b426002557f27029695aa5f602a4ee81f4c32dfa86e562f200a17966496f3a7c3f2ec0f941761293d610e63565b60008060006131ec8585614ce8565b5090506000806131fc8787614dbf565b6001600160a01b0316630902f1ac6040518163ffffffff1660e01b815260040160606040518083038186803b15801561323457600080fd5b505afa158015613248573d6000803e3d6000fd5b505050506040513d606081101561325e57600080fd5b5080516020909101516dffffffffffffffffffffffffffff91821693501690506001600160a01b038781169084161461329857808261329b565b81815b909890975095505050505050565b604080516002808252606080830184526000939092919060208301908036833701905050905084816000815181106132dd57fe5b60200260200101906001600160a01b031690816001600160a01b031681525050838160018151811061330b57fe5b6001600160a01b03928316602091820292909201810191909152600854604080517f1f00ca7400000000000000000000000000000000000000000000000000000000815260048101888152602482019283528651604483015286516060969490941694631f00ca74948a9489949092606490910191858201910280838360005b838110156133a357818101518382015260200161338b565b50505050905001935050505060006040518083038186803b1580156133c757600080fd5b505afa1580156133db573d6000803e3d6000fd5b505050506040513d6000823e601f3d908101601f19168201604052602081101561340457600080fd5b810190808051604051939291908464010000000082111561342457600080fd5b90830190602082018581111561343957600080fd5b825186602082028301116401000000008211171561345657600080fd5b82525081516020918201928201910280838360005b8381101561348357818101518382015260200161346b565b5050505090500160405250505090508060008151811061349f57fe5b6020026020010151925050509392505050565b60006134be8383613922565b6134f457508154600181810184556000848152602080822090930184905584548482528286019093526040902091909155612a85565b506000612a85565b3b151590565b60208101516001600160a01b0316613561576040805162461bcd60e51b815260206004820152601c60248201527f53616c653a207a65726f206164647265737320726563697069656e7400000000604482015290519081900360640190fd5b60408101516001600160a01b03166135c0576040805162461bcd60e51b815260206004820152601860248201527f53616c653a207a65726f206164647265737320746f6b656e0000000000000000604482015290519081900360640190fd5b6080810151613616576040805162461bcd60e51b815260206004820152601c60248201527f53616c653a207a65726f207175616e7469747920707572636861736500000000604482015290519081900360640190fd5b60608101516000908152600660205260409020805461367c576040805162461bcd60e51b815260206004820152601660248201527f53616c653a206e6f6e2d6578697374656e7420736b7500000000000000000000604482015290519081900360640190fd5b8160800151816002015410156136d9576040805162461bcd60e51b815260206004820152601860248201527f53616c653a2061626f7665206d6178207175616e746974790000000000000000604482015290519081900360640190fd5b80546000191461374057816080015181600101541015613740576040805162461bcd60e51b815260206004820152601960248201527f53616c653a20696e73756666696369656e7420737570706c7900000000000000604482015290519081900360640190fd5b60408201516001600160a01b0316613761600483018263ffffffff61392216565b612afe576040805162461bcd60e51b815260206004820152601c60248201527f53616c653a206e6f6e2d6578697374656e7420736b7520746f6b656e00000000604482015290519081900360640190fd5b60005b82518110156138a45760008382815181106137cc57fe5b6020026020010151905060006001600160a01b0316816001600160a01b0316141561383e576040805162461bcd60e51b815260206004820152601860248201527f53616c653a207a65726f206164647265737320746f6b656e0000000000000000604482015290519081900360640190fd5b600083838151811061384c57fe5b60200260200101519050806000141561387e57613878866001600160a01b03841663ffffffff6129ab16565b5061389a565b613898866001600160a01b0384168363ffffffff614f2216565b505b50506001016137b5565b507f00000000000000000000000000000000000000000000000000000000000000006138cf846125e0565b1115612afe576040805162461bcd60e51b815260206004820152601560248201527f53616c653a20746f6f206d616e7920746f6b656e730000000000000000000000604482015290519081900360640190fd5b60009081526001919091016020526040902054151590565b60e081015151158061396c57506001600019038160e0015160008151811061395e57fe5b602002602001015160001c14155b1561397f5761397a81614fb9565b6129a8565b60408101516001600160a01b031673eeeeeeeeeeeeeeeeeeeeeeeeeeeeeeeeeeeeeeee14156139f0578060c001513410156139eb5760405162461bcd60e51b81526004018080602001828103825260238152602001806156ec6023913960400191505060405180910390fd5b613afa565b80604001516001600160a01b03166323b872dd613a0b610e63565b60c0840151604080517fffffffff0000000000000000000000000000000000000000000000000000000060e086901b1681526001600160a01b03909316600484015230602484015260448301919091525160648083019260209291908290030181600087803b158015613a7d57600080fd5b505af1158015613a91573d6000803e3d6000fd5b505050506040513d6020811015613aa757600080fd5b5051613afa576040805162461bcd60e51b815260206004820152601e60248201527f5377617053616c653a204552433230207061796d656e74206661696c65640000604482015290519081900360640190fd5b60008160e00151600181518110613b0d57fe5b602002602001015160001c90506000613b3f670de0b6b3a764000061205a8560c00151856130b990919063ffffffff16565b604084015160075460a0860151929350600092613b6892916001600160a01b0316908590612edf565b60408501519091506001600160a01b031673eeeeeeeeeeeeeeeeeeeeeeeeeeeeeeeeeeeeeeee1415613bef576000613ba6348363ffffffff6151e916565b90508015613be95784516040516001600160a01b039091169082156108fc029083906000818181858888f19350505050158015613be7573d6000803e3d6000fd5b505b50613ce8565b60c0840151600090613c07908363ffffffff6151e916565b90508015613ce657604080860151865182517fa9059cbb0000000000000000000000000000000000000000000000000000000081526001600160a01b03918216600482015260248101859052925191169163a9059cbb9160448083019260209291908290030181600087803b158015613c7f57600080fd5b505af1158015613c93573d6000803e3d6000fd5b505050506040513d6020811015613ca957600080fd5b5051613ce65760405162461bcd60e51b81526004018080602001828103825260258152602001806156c76025913960400191505060405180910390fd5b505b6007546001600160a01b031673eeeeeeeeeeeeeeeeeeeeeeeeeeeeeeeeeeeeeeee1415613d4f576001546040516001600160a01b039091169082156108fc029083906000818181858888f19350505050158015613d49573d6000803e3d6000fd5b506111cf565b600754600154604080517fa9059cbb0000000000000000000000000000000000000000000000000000000081526001600160a01b039283166004820152602481018590529051919092169163a9059cbb9160448083019260209291908290030181600087803b158015613dc157600080fd5b505af1158015613dd5573d6000803e3d6000fd5b505050506040513d6020811015613deb57600080fd5b50516111cf576040805162461bcd60e51b815260206004820152601d60248201527f5377617053616c653a204552433230207061796f7574206661696c6564000000604482015290519081900360640190fd5b6040820151600090613e609083906001600160a01b031663ffffffff61522b16565b905080612a85576040805162461bcd60e51b815260206004820152601f60248201527f53616c653a20756e737570706f72746564207061796d656e7420746f6b656e00604482015290519081900360640190fd5b60006001198214613ed157613eca8484846152bb565b9050613112565b600754600090613ef19085906001600160a01b031663ffffffff61522b16565b6080860151909150600090613f0d90839063ffffffff6130b916565b604087015160075460a0890151929350600092613f3692916001600160a01b031690859061248f565b90506000613f568261205a85670de0b6b3a764000063ffffffff6130b916565b604080516002808252606082018352929350919060208301908036833750505060e089018190528051879190600090613f8b57fe5b6020026020010181815250508060001b8860e00151600181518110613fac57fe5b60209081029190910101525060c08701525060019150509392505050565b6000856001600160a01b0316876001600160a01b0316141561401d5760405162461bcd60e51b81526004018080602001828103825260258152602001806156816025913960400191505060405180910390fd5b6040805160028082526060808301845292602083019080368337019050509050878160008151811061404b57fe5b60200260200101906001600160a01b031690816001600160a01b031681525050868160018151811061407957fe5b6001600160a01b03928316602091820292909201810191909152600854604080517fad5c46480000000000000000000000000000000000000000000000000000000081529051606094929092169263ad5c464892600480840193829003018186803b1580156140e757600080fd5b505afa1580156140fb573d6000803e3d6000fd5b505050506040513d602081101561411157600080fd5b50516001600160a01b038a8116911614156142f6573486146141645760405162461bcd60e51b815260040180806020018281038252602781526020018061558f6027913960400191505060405180910390fd5b6008546040517ffb3bdb41000000000000000000000000000000000000000000000000000000008152600481018981526001600160a01b03888116604484015260648301889052608060248401908152865160848501528651919094169363fb3bdb419334938d9389938d938d939260a4909101906020808801910280838360005b838110156141fe5781810151838201526020016141e6565b50505050905001955050505050506000604051808303818588803b15801561422557600080fd5b505af1158015614239573d6000803e3d6000fd5b50505050506040513d6000823e601f3d908101601f19168201604052602081101561426357600080fd5b810190808051604051939291908464010000000082111561428357600080fd5b90830190602082018581111561429857600080fd5b82518660208202830111640100000000821117156142b557600080fd5b82525081516020918201928201910280838360005b838110156142e25781810151838201526020016142ca565b505050509050016040525050509050614620565b600860009054906101000a90046001600160a01b03166001600160a01b031663ad5c46486040518163ffffffff1660e01b815260040160206040518083038186803b15801561434457600080fd5b505afa158015614358573d6000803e3d6000fd5b505050506040513d602081101561436e57600080fd5b50516001600160a01b038981169116141561448a576008546040517f4a25d94a00000000000000000000000000000000000000000000000000000000815260048101898152602482018990526001600160a01b0388811660648401526084830188905260a060448401908152865160a485015286519190941693634a25d94a938c938c9389938d938d939260c4909101906020808801910280838360005b8381101561442457818101518382015260200161440c565b505050509050019650505050505050600060405180830381600087803b15801561444d57600080fd5b505af1158015614461573d6000803e3d6000fd5b505050506040513d6000823e601f3d908101601f19168201604052602081101561426357600080fd5b6008546040517f8803dbee00000000000000000000000000000000000000000000000000000000815260048101898152602482018990526001600160a01b0388811660648401526084830188905260a060448401908152865160a485015286519190941693638803dbee938c938c9389938d938d939260c4909101906020808801910280838360005b8381101561452b578181015183820152602001614513565b505050509050019650505050505050600060405180830381600087803b15801561455457600080fd5b505af1158015614568573d6000803e3d6000fd5b505050506040513d6000823e601f3d908101601f19168201604052602081101561459157600080fd5b81019080805160405193929190846401000000008211156145b157600080fd5b9083019060208201858111156145c657600080fd5b82518660208202830111640100000000821117156145e357600080fd5b82525081516020918201928201910280838360005b838110156146105781810151838201526020016145f8565b5050505090500160405250505090505b8060008151811061462d57fe5b6020026020010151925050509695505050505050565b61464b61548a565b6060808301516000908152600660209081526040808320815160a0810183528154815260018201548185015260028201548184015260038201546001600160a01b031695810195909552815160048201805480860283018501855294820185815292956080880195929491938593909285929085015b82821015614707578382906000526020600020906002020160405180604001604052908160008201548152602001600182015481525050815260200190600101906146c1565b5050509152505090525080519091506000191461474f57608082015160208201516147379163ffffffff6151e916565b60608301516000908152600660205260409020600101555b5050565b806060015181604001516001600160a01b031682600001516001600160a01b03167f29f844483ca6b10b5c0611d039afc15ce8f6380e905307b381c3a8ee4e90e11e846020015185608001518660a001518760c001518860e001518961010001518a610120015160405160200180848051906020019060200280838360005b838110156147ea5781810151838201526020016147d2565b50505050905001838051906020019060200280838360005b8381101561481a578181015183820152602001614802565b50505050905001828051906020019060200280838360005b8381101561484a578181015183820152602001614832565b50505050905001935050505060405160208183030381529060405260405180866001600160a01b03166001600160a01b031681526020018581526020018060200184815260200180602001838103835286818151815260200191508051906020019080838360005b838110156148ca5781810151838201526020016148b2565b50505050905090810190601f1680156148f75780820380516001836020036101000a031916815260200191505b50838103825284518152845160209182019186019080838360005b8381101561492a578181015183820152602001614912565b50505050905090810190601f1680156149575780820380516001836020036101000a031916815260200191505b5097505050505050505060405180910390a460608101516000908152600660205260409020600301546001600160a01b0316801561474f576361eceae860e01b7bffffffffffffffffffffffffffffffffffffffffffffffffffffffff1916816001600160a01b03166361eceae8846000015185602001518660400151876060015188608001518960a001518a60c001518b60e001518c61010001518d61012001516040518b63ffffffff1660e01b8152600401808b6001600160a01b03166001600160a01b031681526020018a6001600160a01b03166001600160a01b03168152602001896001600160a01b03166001600160a01b031681526020018881526020018781526020018060200186815260200180602001806020018060200185810385528a818151815260200191508051906020019080838360005b83811015614aab578181015183820152602001614a93565b50505050905090810190601f168015614ad85780820380516001836020036101000a031916815260200191505b508581038452885181528851602091820191808b01910280838360005b83811015614b0d578181015183820152602001614af5565b50505050905001858103835287818151815260200191508051906020019060200280838360005b83811015614b4c578181015183820152602001614b34565b50505050905001858103825286818151815260200191508051906020019060200280838360005b83811015614b8b578181015183820152602001614b73565b505050509050019e505050505050505050505050505050602060405180830381600087803b158015614bbc57600080fd5b505af1158015614bd0573d6000803e3d6000fd5b505050506040513d6020811015614be657600080fd5b50517fffffffff00000000000000000000000000000000000000000000000000000000161461474f5760405162461bcd60e51b81526004018080602001828103825260218152602001806156a66021913960400191505060405180910390fd5b60008183614cd25760405162461bcd60e51b81526004018080602001828103825283818151815260200191508051906020019080838360005b83811015614c97578181015183820152602001614c7f565b50505050905090810190601f168015614cc45780820380516001836020036101000a031916815260200191505b509250505060405180910390fd5b506000838581614cde57fe5b0495945050505050565b600080826001600160a01b0316846001600160a01b03161415614d3c5760405162461bcd60e51b81526004018080602001828103825260258152602001806156816025913960400191505060405180910390fd5b826001600160a01b0316846001600160a01b031610614d5c578284614d5f565b83835b90925090506001600160a01b03821661266f576040805162461bcd60e51b815260206004820152601e60248201527f556e69737761705632416461707465723a205a45524f5f414444524553530000604482015290519081900360640190fd5b6000806000614dce8585614ce8565b91509150600860009054906101000a90046001600160a01b03166001600160a01b031663c45a01556040518163ffffffff1660e01b815260040160206040518083038186803b158015614e2057600080fd5b505afa158015614e34573d6000803e3d6000fd5b505050506040513d6020811015614e4a57600080fd5b5051604080517fffffffffffffffffffffffffffffffffffffffff000000000000000000000000606095861b811660208381019190915294861b81166034830152825160288184030181526048830184528051908601207fff0000000000000000000000000000000000000000000000000000000000000060688401529390951b9094166069850152607d8401919091527f96e8ac4277198ff8b6f785478aa9a39f403cb768dd02cbee326c3e7da348845f609d808501919091528151808503909101815260bd909301905281519101209392505050565b600082815260018401602052604081205480614f87575050604080518082018252838152602080820184815286546001818101895560008981528481209551600290930290950191825591519082015586548684528188019092529290912055613112565b82856000016001830381548110614f9a57fe5b9060005260206000209060020201600101819055506000915050613112565b60408101516001600160a01b031673eeeeeeeeeeeeeeeeeeeeeeeeeeeeeeeeeeeeeeee14156150dc578060c0015134101561503b576040805162461bcd60e51b815260206004820152601f60248201527f53616c653a20696e73756666696369656e74204554482070726f766964656400604482015290519081900360640190fd5b60015460c08201516040516001600160a01b039092169181156108fc0291906000818181858888f19350505050158015615079573d6000803e3d6000fd5b5060006150938260c00151346151e990919063ffffffff16565b905080156150d65781516040516001600160a01b039091169082156108fc029083906000818181858888f193505050501580156150d4573d6000803e3d6000fd5b505b506129a8565b80604001516001600160a01b03166323b872dd6150f7610e63565b60015460c0850151604080517fffffffff0000000000000000000000000000000000000000000000000000000060e087901b1681526001600160a01b03948516600482015293909216602484015260448301525160648083019260209291908290030181600087803b15801561516c57600080fd5b505af1158015615180573d6000803e3d6000fd5b505050506040513d602081101561519657600080fd5b50516129a8576040805162461bcd60e51b815260206004820152601a60248201527f53616c653a204552433230207061796d656e74206661696c6564000000000000604482015290519081900360640190fd5b600061311283836040518060400160405280601e81526020017f536166654d6174683a207375627472616374696f6e206f766572666c6f7700008152506153bf565b60008181526001830160205260408120548061528e576040805162461bcd60e51b815260206004820152601860248201527f456e756d4d61703a206e6f6e6578697374656e74206b65790000000000000000604482015290519081900360640190fd5b8360000160018203815481106152a057fe5b90600052602060002090600202016001015491505092915050565b600060001982146152ce57506000613112565b6007546000906152ee9085906001600160a01b031663ffffffff61522b16565b604086015160075460a088015192935060009261531592916001600160a01b031690612d6b565b9050600061534c87608001516153408461205a670de0b6b3a7640000886130b990919063ffffffff16565b9063ffffffff6130b916565b604080516002808252606082018352929350919060208301908036833750505060e08801819052805186919060009061538157fe5b6020026020010181815250508160001b8760e001516001815181106153a257fe5b602090810291909101015260c08701525060019150509392505050565b600081848411156154115760405162461bcd60e51b8152602060048201818152835160248401528351909283926044909101919085019080838360008315614c97578181015183820152602001614c7f565b505050900390565b60405180610140016040528060006001600160a01b0316815260200160006001600160a01b0316815260200160006001600160a01b03168152602001600080191681526020016000815260200160608152602001600081526020016060815260200160608152602001606081525090565b6040518060a0016040528060008152602001600081526020016000815260200160006001600160a01b031681526020016154c26154c7565b905290565b604051806020016040528060608152509056fe556e69737761705377617053616c654d6f636b3a204552433230207472616e736665722066726f6d206661696c6564556e69737761705377617053616c654d6f636b3a20455243323020616c6c6f77616e636520696e73756666696369656e744f776e61626c653a206e6577206f776e657220697320746865207a65726f2061646472657373556e69737761705377617053616c653a204552433230207061796d656e7420617070726f76616c206661696c6564556e69737761705632416461707465723a20494e56414c49445f4d41585f414d4f554e545f494e556e69737761705377617053616c653a204d697373696e6720657870656374656420707572636861736520757365722064617461556e69737761705377617053616c653a20496e76616c6964204554482073656e646572556e69737761705377617053616c654d6f636b3a204552433230207377617020617070726f76616c206661696c6564536166654d6174683a206d756c7469706c69636174696f6e206f766572666c6f7753616c653a20746f6b656e732f707269636573206c656e67746873206d69736d61746368556e69737761705632416461707465723a204944454e544943414c5f41444452455353455353616c653a2077726f6e672072656365697665722072657475726e2076616c75655377617053616c653a204552433230207061796d656e74206368616e6765206661696c65645377617053616c653a20696e73756666696369656e74204554482070726f76696465644f7261636c6553616c653a206d697373696e67207265666572656e636520746f6b656ea2646970667358221220dd7ad8b942c5b78ed7c08b30f8a260b891cc59253ad78c8309bea2be549a6a0864736f6c63430006080033abb92614f53337043b55dc996a83ebb09adce78ec336ca188ea02180b61d1c14",
  "linkReferences": {},
  "deployedLinkReferences": {}
}