{
  "_format": "hh-sol-artifact-1",
  "contractName": "PurchaseNotificationsReceiverMock",
  "sourceName": "contracts/mocks/sale/abstract/PurchaseNotificationsReceiverMock.sol",
  "abi": [
    {
      "anonymous": false,
      "inputs": [
        {
          "indexed": false,
          "internalType": "bytes4",
          "name": "result",
          "type": "bytes4"
        }
      ],
      "name": "OnPurchaseNotificationReceivedResult",
      "type": "event"
    },
    {
      "anonymous": false,
      "inputs": [],
      "name": "PurchaseNotificationReceived",
      "type": "event"
    },
    {
      "inputs": [],
      "name": "PURCHASE_NOTIFICATION_RECEIVED_RESULT",
      "outputs": [
        {
          "internalType": "bytes4",
          "name": "",
          "type": "bytes4"
        }
      ],
      "stateMutability": "view",
      "type": "function"
    },
    {
      "inputs": [
        {
          "internalType": "address",
          "name": "",
          "type": "address"
        },
        {
          "internalType": "address",
          "name": "",
          "type": "address"
        },
        {
          "internalType": "address",
          "name": "",
          "type": "address"
        },
        {
          "internalType": "bytes32",
          "name": "",
          "type": "bytes32"
        },
        {
          "internalType": "uint256",
          "name": "",
          "type": "uint256"
        },
        {
          "internalType": "bytes",
          "name": "",
          "type": "bytes"
        },
        {
          "internalType": "uint256",
          "name": "",
          "type": "uint256"
        },
        {
          "internalType": "bytes32[]",
          "name": "",
          "type": "bytes32[]"
        },
        {
          "internalType": "bytes32[]",
          "name": "",
          "type": "bytes32[]"
        },
        {
          "internalType": "bytes32[]",
          "name": "",
          "type": "bytes32[]"
        }
      ],
      "name": "onPurchaseNotificationReceived",
      "outputs": [
        {
          "internalType": "bytes4",
          "name": "",
          "type": "bytes4"
        }
      ],
      "stateMutability": "nonpayable",
      "type": "function"
    },
    {
      "inputs": [
        {
          "internalType": "bytes4",
          "name": "interfaceId",
          "type": "bytes4"
        }
      ],
      "name": "supportsInterface",
      "outputs": [
        {
          "internalType": "bool",
          "name": "",
          "type": "bool"
        }
      ],
      "stateMutability": "view",
      "type": "function"
    }
  ],
  "bytecode": "0x608060405234801561001057600080fd5b5061002a6301ffc9a760e01b6001600160e01b0361004816565b610043630c3d9d5d60e31b6001600160e01b0361004816565b6100cc565b6001600160e01b031980821614156100a7576040805162461bcd60e51b815260206004820152601c60248201527f4552433136353a20696e76616c696420696e7465726661636520696400000000604482015290519081900360640190fd5b6001600160e01b0319166000908152602081905260409020805460ff19166001179055565b610425806100db6000396000f3fe608060405234801561001057600080fd5b50600436106100415760003560e01c806301ffc9a71461004657806361eceae814610099578063c9dde55614610273575b600080fd5b6100856004803603602081101561005c57600080fd5b50357fffffffff000000000000000000000000000000000000000000000000000000001661027b565b604080519115158252519081900360200190f35b61023e60048036036101408110156100b057600080fd5b73ffffffffffffffffffffffffffffffffffffffff8235811692602081013582169260408201359092169160608201359160808101359181019060c0810160a082013564010000000081111561010557600080fd5b82018360208201111561011757600080fd5b8035906020019184600183028401116401000000008311171561013957600080fd5b9193909282359260408101906020013564010000000081111561015b57600080fd5b82018360208201111561016d57600080fd5b8035906020019184602083028401116401000000008311171561018f57600080fd5b9193909290916020810190356401000000008111156101ad57600080fd5b8201836020820111156101bf57600080fd5b803590602001918460208302840111640100000000831117156101e157600080fd5b9193909290916020810190356401000000008111156101ff57600080fd5b82018360208201111561021157600080fd5b8035906020019184602083028401116401000000008311171561023357600080fd5b5090925090506102b2565b604080517fffffffff000000000000000000000000000000000000000000000000000000009092168252519081900360200190f35b61023e610361565b7fffffffff000000000000000000000000000000000000000000000000000000001660009081526020819052604090205460ff1690565b6040516000907faf051f3618aad08c47795b5fe3dabc284d5a7594e8ede9bddeea3c3012395edb908290a16000604051808061037d60739139604080519182900360730182207fffffffff000000000000000000000000000000000000000000000000000000008116835290519093507fffb5331ec0adf770cdc2542b0aaddc707717dba63305d6d89077e8e93e00182192509081900360200190a19f9e505050505050505050505050505050565b60405180607361037d8239607301905060405180910390208156fe6f6e50757263686173654e6f74696669636174696f6e526563656976656428616464726573732c616464726573732c616464726573732c627974657333322c75696e743235362c62797465732c75696e743235362c627974657333325b5d2c627974657333325b5d2c627974657333325b5d29a264697066735822122006f68ef2cf2dcde0ed1833ce7ef8e7344e69877f210224db16be728634a0f3ba64736f6c63430006080033",
  "linkReferences": {},
  "deployedLinkReferences": {}
}