{
  "_format": "hh-sol-artifact-1",
  "contractName": "UniswapSwapSale",
  "sourceName": "contracts/sale/UniswapSwapSale.sol",
  "abi": [
    {
      "inputs": [
        {
          "internalType": "address",
          "name": "payoutWallet_",
          "type": "address"
        },
        {
          "internalType": "uint256",
          "name": "skusCapacity",
          "type": "uint256"
        },
        {
          "internalType": "uint256",
          "name": "tokensPerSkuCapacity",
          "type": "uint256"
        },
        {
          "internalType": "address",
          "name": "referenceToken",
          "type": "address"
        },
        {
          "internalType": "contract IUniswapV2Router",
          "name": "uniswapV2Router",
          "type": "address"
        }
      ],
      "stateMutability": "nonpayable",
      "type": "constructor"
    },
    {
      "anonymous": false,
      "inputs": [
        {
          "indexed": false,
          "internalType": "bytes32[]",
          "name": "names",
          "type": "bytes32[]"
        },
        {
          "indexed": false,
          "internalType": "bytes32[]",
          "name": "values",
          "type": "bytes32[]"
        }
      ],
      "name": "MagicValues",
      "type": "event"
    },
    {
      "anonymous": false,
      "inputs": [
        {
          "indexed": true,
          "internalType": "address",
          "name": "previousOwner",
          "type": "address"
        },
        {
          "indexed": true,
          "internalType": "address",
          "name": "newOwner",
          "type": "address"
        }
      ],
      "name": "OwnershipTransferred",
      "type": "event"
    },
    {
      "anonymous": false,
      "inputs": [
        {
          "indexed": false,
          "internalType": "address",
          "name": "account",
          "type": "address"
        }
      ],
      "name": "Paused",
      "type": "event"
    },
    {
      "anonymous": false,
      "inputs": [
        {
          "indexed": false,
          "internalType": "address",
          "name": "payoutWallet_",
          "type": "address"
        }
      ],
      "name": "PayoutWalletSet",
      "type": "event"
    },
    {
      "anonymous": false,
      "inputs": [
        {
          "indexed": true,
          "internalType": "address",
          "name": "purchaser",
          "type": "address"
        },
        {
          "indexed": false,
          "internalType": "address",
          "name": "recipient",
          "type": "address"
        },
        {
          "indexed": true,
          "internalType": "address",
          "name": "token",
          "type": "address"
        },
        {
          "indexed": true,
          "internalType": "bytes32",
          "name": "sku",
          "type": "bytes32"
        },
        {
          "indexed": false,
          "internalType": "uint256",
          "name": "quantity",
          "type": "uint256"
        },
        {
          "indexed": false,
          "internalType": "bytes",
          "name": "userData",
          "type": "bytes"
        },
        {
          "indexed": false,
          "internalType": "uint256",
          "name": "totalPrice",
          "type": "uint256"
        },
        {
          "indexed": false,
          "internalType": "bytes",
          "name": "extData",
          "type": "bytes"
        }
      ],
      "name": "Purchase",
      "type": "event"
    },
    {
      "anonymous": false,
      "inputs": [
        {
          "indexed": false,
          "internalType": "bytes32",
          "name": "sku",
          "type": "bytes32"
        },
        {
          "indexed": false,
          "internalType": "uint256",
          "name": "totalSupply",
          "type": "uint256"
        },
        {
          "indexed": false,
          "internalType": "uint256",
          "name": "maxQuantityPerPurchase",
          "type": "uint256"
        },
        {
          "indexed": false,
          "internalType": "address",
          "name": "notificationsReceiver",
          "type": "address"
        }
      ],
      "name": "SkuCreation",
      "type": "event"
    },
    {
      "anonymous": false,
      "inputs": [
        {
          "indexed": true,
          "internalType": "bytes32",
          "name": "sku",
          "type": "bytes32"
        },
        {
          "indexed": false,
          "internalType": "address[]",
          "name": "tokens",
          "type": "address[]"
        },
        {
          "indexed": false,
          "internalType": "uint256[]",
          "name": "prices",
          "type": "uint256[]"
        }
      ],
      "name": "SkuPricingUpdate",
      "type": "event"
    },
    {
      "anonymous": false,
      "inputs": [
        {
          "indexed": false,
          "internalType": "address",
          "name": "account",
          "type": "address"
        }
      ],
      "name": "Started",
      "type": "event"
    },
    {
      "anonymous": false,
      "inputs": [
        {
          "indexed": false,
          "internalType": "contract IUniswapV2Router",
          "name": "uniswapV2Router",
          "type": "address"
        }
      ],
      "name": "UniswapV2RouterSet",
      "type": "event"
    },
    {
      "anonymous": false,
      "inputs": [
        {
          "indexed": false,
          "internalType": "address",
          "name": "account",
          "type": "address"
        }
      ],
      "name": "Unpaused",
      "type": "event"
    },
    {
      "inputs": [],
      "name": "PRICE_CONVERT_VIA_ORACLE",
      "outputs": [
        {
          "internalType": "uint256",
          "name": "",
          "type": "uint256"
        }
      ],
      "stateMutability": "view",
      "type": "function"
    },
    {
      "inputs": [],
      "name": "PRICE_SWAP_VIA_ORACLE",
      "outputs": [
        {
          "internalType": "uint256",
          "name": "",
          "type": "uint256"
        }
      ],
      "stateMutability": "view",
      "type": "function"
    },
    {
      "inputs": [],
      "name": "SUPPLY_UNLIMITED",
      "outputs": [
        {
          "internalType": "uint256",
          "name": "",
          "type": "uint256"
        }
      ],
      "stateMutability": "view",
      "type": "function"
    },
    {
      "inputs": [],
      "name": "TOKEN_ETH",
      "outputs": [
        {
          "internalType": "address",
          "name": "",
          "type": "address"
        }
      ],
      "stateMutability": "view",
      "type": "function"
    },
    {
      "inputs": [
        {
          "internalType": "address[]",
          "name": "tokens",
          "type": "address[]"
        },
        {
          "internalType": "bytes",
          "name": "data",
          "type": "bytes"
        }
      ],
      "name": "conversionRates",
      "outputs": [
        {
          "internalType": "uint256[]",
          "name": "rates",
          "type": "uint256[]"
        }
      ],
      "stateMutability": "view",
      "type": "function"
    },
    {
      "inputs": [
        {
          "internalType": "address payable",
          "name": "recipient",
          "type": "address"
        },
        {
          "internalType": "address",
          "name": "token",
          "type": "address"
        },
        {
          "internalType": "bytes32",
          "name": "sku",
          "type": "bytes32"
        },
        {
          "internalType": "uint256",
          "name": "quantity",
          "type": "uint256"
        },
        {
          "internalType": "bytes",
          "name": "userData",
          "type": "bytes"
        }
      ],
      "name": "estimatePurchase",
      "outputs": [
        {
          "internalType": "uint256",
          "name": "totalPrice",
          "type": "uint256"
        },
        {
          "internalType": "bytes32[]",
          "name": "pricingData",
          "type": "bytes32[]"
        }
      ],
      "stateMutability": "view",
      "type": "function"
    },
    {
      "inputs": [
        {
          "internalType": "bytes32",
          "name": "sku",
          "type": "bytes32"
        }
      ],
      "name": "getSkuInfo",
      "outputs": [
        {
          "internalType": "uint256",
          "name": "totalSupply",
          "type": "uint256"
        },
        {
          "internalType": "uint256",
          "name": "remainingSupply",
          "type": "uint256"
        },
        {
          "internalType": "uint256",
          "name": "maxQuantityPerPurchase",
          "type": "uint256"
        },
        {
          "internalType": "address",
          "name": "notificationsReceiver",
          "type": "address"
        },
        {
          "internalType": "address[]",
          "name": "tokens",
          "type": "address[]"
        },
        {
          "internalType": "uint256[]",
          "name": "prices",
          "type": "uint256[]"
        }
      ],
      "stateMutability": "view",
      "type": "function"
    },
    {
      "inputs": [],
      "name": "getSkus",
      "outputs": [
        {
          "internalType": "bytes32[]",
          "name": "skus",
          "type": "bytes32[]"
        }
      ],
      "stateMutability": "view",
      "type": "function"
    },
    {
      "inputs": [],
      "name": "owner",
      "outputs": [
        {
          "internalType": "address",
          "name": "",
          "type": "address"
        }
      ],
      "stateMutability": "view",
      "type": "function"
    },
    {
      "inputs": [],
      "name": "pause",
      "outputs": [],
      "stateMutability": "nonpayable",
      "type": "function"
    },
    {
      "inputs": [],
      "name": "paused",
      "outputs": [
        {
          "internalType": "bool",
          "name": "",
          "type": "bool"
        }
      ],
      "stateMutability": "view",
      "type": "function"
    },
    {
      "inputs": [],
      "name": "payoutWallet",
      "outputs": [
        {
          "internalType": "address payable",
          "name": "",
          "type": "address"
        }
      ],
      "stateMutability": "view",
      "type": "function"
    },
    {
      "inputs": [
        {
          "internalType": "address payable",
          "name": "recipient",
          "type": "address"
        },
        {
          "internalType": "address",
          "name": "token",
          "type": "address"
        },
        {
          "internalType": "bytes32",
          "name": "sku",
          "type": "bytes32"
        },
        {
          "internalType": "uint256",
          "name": "quantity",
          "type": "uint256"
        },
        {
          "internalType": "bytes",
          "name": "userData",
          "type": "bytes"
        }
      ],
      "name": "purchaseFor",
      "outputs": [],
      "stateMutability": "payable",
      "type": "function"
    },
    {
      "inputs": [],
      "name": "referenceToken",
      "outputs": [
        {
          "internalType": "address",
          "name": "",
          "type": "address"
        }
      ],
      "stateMutability": "view",
      "type": "function"
    },
    {
      "inputs": [],
      "name": "renounceOwnership",
      "outputs": [],
      "stateMutability": "nonpayable",
      "type": "function"
    },
    {
      "inputs": [
        {
          "internalType": "address",
          "name": "payoutWallet_",
          "type": "address"
        }
      ],
      "name": "setPayoutWallet",
      "outputs": [],
      "stateMutability": "nonpayable",
      "type": "function"
    },
    {
      "inputs": [],
      "name": "start",
      "outputs": [],
      "stateMutability": "nonpayable",
      "type": "function"
    },
    {
      "inputs": [],
      "name": "startedAt",
      "outputs": [
        {
          "internalType": "uint256",
          "name": "",
          "type": "uint256"
        }
      ],
      "stateMutability": "view",
      "type": "function"
    },
    {
      "inputs": [
        {
          "internalType": "address[]",
          "name": "tokens",
          "type": "address[]"
        },
        {
          "internalType": "uint256",
          "name": "referenceAmount",
          "type": "uint256"
        },
        {
          "internalType": "bytes",
          "name": "data",
          "type": "bytes"
        }
      ],
      "name": "swapRates",
      "outputs": [
        {
          "internalType": "uint256[]",
          "name": "rates",
          "type": "uint256[]"
        }
      ],
      "stateMutability": "view",
      "type": "function"
    },
    {
      "inputs": [
        {
          "internalType": "address",
          "name": "newOwner",
          "type": "address"
        }
      ],
      "name": "transferOwnership",
      "outputs": [],
      "stateMutability": "nonpayable",
      "type": "function"
    },
    {
      "inputs": [],
      "name": "uniswapV2Router",
      "outputs": [
        {
          "internalType": "contract IUniswapV2Router",
          "name": "",
          "type": "address"
        }
      ],
      "stateMutability": "view",
      "type": "function"
    },
    {
      "inputs": [],
      "name": "unpause",
      "outputs": [],
      "stateMutability": "nonpayable",
      "type": "function"
    },
    {
      "inputs": [
        {
          "internalType": "bytes32",
          "name": "sku",
          "type": "bytes32"
        },
        {
          "internalType": "address[]",
          "name": "tokens",
          "type": "address[]"
        },
        {
          "internalType": "uint256[]",
          "name": "prices",
          "type": "uint256[]"
        }
      ],
      "name": "updateSkuPricing",
      "outputs": [],
      "stateMutability": "nonpayable",
      "type": "function"
    },
    {
      "stateMutability": "payable",
      "type": "receive"
    }
  ],
  "bytecode": "0x60c06040523480156200001157600080fd5b506040516200514438038062005144833981810160405260a08110156200003757600080fd5b508051602082015160408301516060840151608090940151929391929091908085858585838383838383838282828260006200007b6001600160e01b03620005c416565b600080546001600160a01b0319166001600160a01b0383169081178255604051929350917f8be0079c531659141344cd1fd0a4f28419497f9722a3daafe3b4186f6b6457e0908290a350620000d9816001600160e01b03620005c816565b506003805460ff19169055608082905260a081905260408051600280825260608083018452926020830190803683375050604080516002808252606080830184529495509092509060208301908036833750508351919250680a89e968a9cbe8aa8960bb1b9173eeeeeeeeeeeeeeeeeeeeeeeeeeeeeeeeeeeeeeee915084906000906200016257fe5b60200260200101836000815181106200017757fe5b602002602001018281525082815250505060001960001b6f14d55414131657d5539312535255115160821b9083600181518110620001b157fe5b6020026020010183600181518110620001c657fe5b6020026020010182815250828152505050600080516020620051248339815191528282604051808060200180602001838103835285818151815260200191508051906020019060200280838360005b838110156200022f57818101518382015260200162000215565b50505050905001838103825284818151815260200191508051906020019060200280838360005b838110156200027057818101518382015260200162000256565b5050505090500194505050505060405180910390a1620002986001600160e01b03620007b716565b5050600780546001600160a01b0319166001600160a01b03891617905550606094506001935060009250620002cb915050565b50604051908082528060200260200182016040528015620002f6578160200160208202803683370190505b50604080516001808252818301909252919250606091906020808301908036833701905050905060001960001b7f50524943455f434f4e564552545f5649415f4f5241434c45000000000000000090836000815181106200035357fe5b60200260200101836000815181106200036857fe5b6020026020010182815250828152505050600080516020620051248339815191528282604051808060200180602001838103835285818151815260200191508051906020019060200280838360005b83811015620003d1578181015183820152602001620003b7565b50505050905001838103825284818151815260200191508051906020019060200280838360005b8381101562000412578181015183820152602001620003f8565b5050505090500194505050505060405180910390a1505050505050606060016001600160401b03811180156200044757600080fd5b5060405190808252806020026020018201604052801562000472578160200160208202803683370190505b506040805160018082528183019092529192506060919060208083019080368337505083519192507f50524943455f535741505f5649415f4f5241434c4500000000000000000000009160011991508490600090620004cd57fe5b6020026020010183600081518110620004e257fe5b6020026020010182815250828152505050600080516020620051248339815191528282604051808060200180602001838103835285818151815260200191508051906020019060200280838360005b838110156200054b57818101518382015260200162000531565b50505050905001838103825284818151815260200191508051906020019060200280838360005b838110156200058c57818101518382015260200162000572565b5050505090500194505050505060405180910390a1505050505050620005b8816200086160201b60201c565b505050505050620008b5565b3390565b620005db6001600160e01b03620005c416565b6000546001600160a01b039081169116146200063e576040805162461bcd60e51b815260206004820181905260248201527f4f776e61626c653a2063616c6c6572206973206e6f7420746865206f776e6572604482015290519081900360640190fd5b6001600160a01b0381166200069a576040805162461bcd60e51b815260206004820152601460248201527f5061796f75743a207a65726f2061646472657373000000000000000000000000604482015290519081900360640190fd5b6001600160a01b038116301415620006f9576040805162461bcd60e51b815260206004820152601f60248201527f5061796f75743a207468697320636f6e7472616374206173207061796f757400604482015290519081900360640190fd5b6001546001600160a01b03828116911614156200075d576040805162461bcd60e51b815260206004820152601a60248201527f5061796f75743a2073616d65207061796f75742077616c6c6574000000000000604482015290519081900360640190fd5b600180546001600160a01b0319166001600160a01b03838116919091179182905560408051929091168252517fdd880d24a789958a6398c99c2e54ce31bc10a638cbc42f7dd34285479ae0f855916020908290030190a150565b60035460ff161562000803576040805162461bcd60e51b815260206004820152601060248201526f14185d5cd8589b194e881c185d5cd95960821b604482015290519081900360640190fd5b6003805460ff191660011790557f62e78cea01bee320cd4e420270b5ea74000d11b0c9f74754ebdbfc544b05a258620008446001600160e01b03620005c416565b604080516001600160a01b039092168252519081900360200190a1565b600880546001600160a01b0383166001600160a01b0319909116811790915560408051918252517ffe70995e26c62b71bbd53a5b9e09215c42e2006fad72ba845051faa8de1510ba9181900360200190a150565b60805160a051614850620008d4600039806121bb5250506148506000f3fe6080604052600436106101845760003560e01c8063715018a6116100d6578063a963b2571161007f578063c7b778db11610059578063c7b778db14610850578063f21f537d1461091f578063f2fde38b14610934576101e4565b8063a963b257146106d3578063bda4c5ab14610768578063be9a65551461083b576101e4565b80638da5cb5b116100b05780638da5cb5b146106a95780639865bcc8146106be5780639e049545146106be576101e4565b8063715018a61461066a5780638456cb591461067f5780638488bb4e14610694576101e4565b8063579f2c77116101385780635e6e9f70116101125780635e6e9f701461049757806361bd3851146105d25780636b8f9c4314610637576101e4565b8063579f2c77146104325780635c4fafc7146104595780635c975abb1461046e576101e4565b80631694505e116101695780631694505e146103175780632a8a45bc1461032c5780633f4ba83a1461041d576101e4565b80631265b651146101e95780631323b0661461021a576101e4565b366101e4576008546001600160a01b031661019d610967565b6001600160a01b0316146101e25760405162461bcd60e51b81526004018080602001828103825260238152602001806147026023913960400191505060405180910390fd5b005b600080fd5b3480156101f557600080fd5b506101fe61096b565b604080516001600160a01b039092168252519081900360200190f35b34801561022657600080fd5b506102bc600480360360a081101561023d57600080fd5b6001600160a01b03823581169260208101359091169160408201359160608101359181019060a08101608082013564010000000081111561027d57600080fd5b82018360208201111561028f57600080fd5b803590602001918460018302840111640100000000831117156102b157600080fd5b50909250905061097a565b6040518083815260200180602001828103825283818151815260200191508051906020019060200280838360005b838110156103025781810151838201526020016102ea565b50505050905001935050505060405180910390f35b34801561032357600080fd5b506101fe610abf565b34801561033857600080fd5b506103566004803603602081101561034f57600080fd5b5035610ace565b60405180878152602001868152602001858152602001846001600160a01b03166001600160a01b031681526020018060200180602001838103835285818151815260200191508051906020019060200280838360005b838110156103c45781810151838201526020016103ac565b50505050905001838103825284818151815260200191508051906020019060200280838360005b838110156104035781810151838201526020016103eb565b505050509050019850505050505050505060405180910390f35b34801561042957600080fd5b506101e2610c79565b34801561043e57600080fd5b50610447610d41565b60408051918252519081900360200190f35b34801561046557600080fd5b506101fe610d47565b34801561047a57600080fd5b50610483610d5f565b604080519115158252519081900360200190f35b3480156104a357600080fd5b506101e2600480360360608110156104ba57600080fd5b813591908101906040810160208201356401000000008111156104dc57600080fd5b8201836020820111156104ee57600080fd5b8035906020019184602083028401116401000000008311171561051057600080fd5b919080806020026020016040519081016040528093929190818152602001838360200280828437600092019190915250929594936020810193503591505064010000000081111561056057600080fd5b82018360208201111561057257600080fd5b8035906020019184602083028401116401000000008311171561059457600080fd5b919080806020026020016040519081016040528093929190818152602001838360200280828437600092019190915250929550610d68945050505050565b3480156105de57600080fd5b506105e7610f9a565b60408051602080825283518183015283519192839290830191858101910280838360005b8381101561062357818101518382015260200161060b565b505050509050019250505060405180910390f35b34801561064357600080fd5b506101e26004803603602081101561065a57600080fd5b50356001600160a01b0316610ff5565b34801561067657600080fd5b506101e26111e2565b34801561068b57600080fd5b506101e26112a3565b3480156106a057600080fd5b506101fe611369565b3480156106b557600080fd5b506101fe611378565b3480156106ca57600080fd5b50610447611387565b6101e2600480360360a08110156106e957600080fd5b6001600160a01b03823581169260208101359091169160408201359160608101359181019060a08101608082013564010000000081111561072957600080fd5b82018360208201111561073b57600080fd5b8035906020019184600183028401116401000000008311171561075d57600080fd5b50909250905061138d565b34801561077457600080fd5b506105e76004803603606081101561078b57600080fd5b8101906020810181356401000000008111156107a657600080fd5b8201836020820111156107b857600080fd5b803590602001918460208302840111640100000000831117156107da57600080fd5b919390928235926040810190602001356401000000008111156107fc57600080fd5b82018360208201111561080e57600080fd5b8035906020019184600183028401116401000000008311171561083057600080fd5b5090925090506114c3565b34801561084757600080fd5b506101e26115de565b34801561085c57600080fd5b506105e76004803603604081101561087357600080fd5b81019060208101813564010000000081111561088e57600080fd5b8201836020820111156108a057600080fd5b803590602001918460208302840111640100000000831117156108c257600080fd5b9193909290916020810190356401000000008111156108e057600080fd5b8201836020820111156108f257600080fd5b8035906020019184600183028401116401000000008311171561091457600080fd5b509092509050611650565b34801561092b57600080fd5b5061044761173c565b34801561094057600080fd5b506101e26004803603602081101561095757600080fd5b50356001600160a01b0316611742565b3390565b6007546001600160a01b031681565b60006060600254600014156109d6576040805162461bcd60e51b815260206004820152601660248201527f537461727461626c653a206e6f74207374617274656400000000000000000000604482015290519081900360640190fd5b60035460ff1615610a2e576040805162461bcd60e51b815260206004820152601060248201527f5061757361626c653a2070617573656400000000000000000000000000000000604482015290519081900360640190fd5b610a36614591565b610a3e610967565b6001600160a01b03908116825289811660208084019190915290891660408084019190915260608301899052608083018890528051601f870183900483028101830190915285815290869086908190840183828082843760009201919091525050505060a0820152610aaf81611859565b9250925050965096945050505050565b6008546001600160a01b031681565b6000818152600660205260408120819081908190606090819083610af460048301611880565b82549850905087610b4c576040805162461bcd60e51b815260206004820152601660248201527f53616c653a206e6f6e2d6578697374656e7420736b7500000000000000000000604482015290519081900360640190fd5b60018201546002830154600384015491985096506001600160a01b031694508067ffffffffffffffff81118015610b8257600080fd5b50604051908082528060200260200182016040528015610bac578160200160208202803683370190505b5093508067ffffffffffffffff81118015610bc657600080fd5b50604051908082528060200260200182016040528015610bf0578160200160208202803683370190505b50925060005b81811015610c6d57600080610c14600486018463ffffffff61188416565b915091508160001c878481518110610c2857fe5b60200260200101906001600160a01b031690816001600160a01b0316815250508060001c868481518110610c5857fe5b60209081029190910101525050600101610bf6565b50505091939550919395565b610c81610967565b6000546001600160a01b03908116911614610ce3576040805162461bcd60e51b815260206004820181905260248201527f4f776e61626c653a2063616c6c6572206973206e6f7420746865206f776e6572604482015290519081900360640190fd5b600254610d37576040805162461bcd60e51b815260206004820152601660248201527f537461727461626c653a206e6f74207374617274656400000000000000000000604482015290519081900360640190fd5b610d3f611916565b565b60011981565b73eeeeeeeeeeeeeeeeeeeeeeeeeeeeeeeeeeeeeeee81565b60035460ff1690565b610d70610967565b6000546001600160a01b03908116911614610dd2576040805162461bcd60e51b815260206004820181905260248201527f4f776e61626c653a2063616c6c6572206973206e6f7420746865206f776e6572604482015290519081900360640190fd5b815181518114610e135760405162461bcd60e51b81526004018080602001828103825260248152602001806147466024913960400191505060405180910390fd5b60008481526006602052604090208054610e74576040805162461bcd60e51b815260206004820152601660248201527f53616c653a206e6f6e2d6578697374656e7420736b7500000000000000000000604482015290519081900360640190fd5b6004810182610ecb576000610e8882611880565b905060005b81811015610ec4576000610ea7848263ffffffff61188416565b509050610eba848263ffffffff6119bd16565b5050600101610e8d565b5050610ed6565b610ed6818686611a9d565b857fcb3fe5489e0cd43d0f4a33d1e09a4a0463a03d0d38f56165530854e5540db1438686604051808060200180602001838103835285818151815260200191508051906020019060200280838360005b83811015610f3e578181015183820152602001610f26565b50505050905001838103825284818151815260200191508051906020019060200280838360005b83811015610f7d578181015183820152602001610f65565b5050505090500194505050505060405180910390a2505050505050565b60606004600001805480602002602001604051908101604052809291908181526020018280548015610feb57602002820191906000526020600020905b815481526020019060010190808311610fd7575b5050505050905090565b610ffd610967565b6000546001600160a01b0390811691161461105f576040805162461bcd60e51b815260206004820181905260248201527f4f776e61626c653a2063616c6c6572206973206e6f7420746865206f776e6572604482015290519081900360640190fd5b6001600160a01b0381166110ba576040805162461bcd60e51b815260206004820152601460248201527f5061796f75743a207a65726f2061646472657373000000000000000000000000604482015290519081900360640190fd5b6001600160a01b038116301415611118576040805162461bcd60e51b815260206004820152601f60248201527f5061796f75743a207468697320636f6e7472616374206173207061796f757400604482015290519081900360640190fd5b6001546001600160a01b038281169116141561117b576040805162461bcd60e51b815260206004820152601a60248201527f5061796f75743a2073616d65207061796f75742077616c6c6574000000000000604482015290519081900360640190fd5b6001805473ffffffffffffffffffffffffffffffffffffffff19166001600160a01b03838116919091179182905560408051929091168252517fdd880d24a789958a6398c99c2e54ce31bc10a638cbc42f7dd34285479ae0f855916020908290030190a150565b6111ea610967565b6000546001600160a01b0390811691161461124c576040805162461bcd60e51b815260206004820181905260248201527f4f776e61626c653a2063616c6c6572206973206e6f7420746865206f776e6572604482015290519081900360640190fd5b600080546040516001600160a01b03909116907f8be0079c531659141344cd1fd0a4f28419497f9722a3daafe3b4186f6b6457e0908390a36000805473ffffffffffffffffffffffffffffffffffffffff19169055565b6112ab610967565b6000546001600160a01b0390811691161461130d576040805162461bcd60e51b815260206004820181905260248201527f4f776e61626c653a2063616c6c6572206973206e6f7420746865206f776e6572604482015290519081900360640190fd5b600254611361576040805162461bcd60e51b815260206004820152601660248201527f537461727461626c653a206e6f74207374617274656400000000000000000000604482015290519081900360640190fd5b610d3f611b15565b6001546001600160a01b031681565b6000546001600160a01b031690565b60001981565b6002546113e1576040805162461bcd60e51b815260206004820152601660248201527f537461727461626c653a206e6f74207374617274656400000000000000000000604482015290519081900360640190fd5b60035460ff1615611439576040805162461bcd60e51b815260206004820152601060248201527f5061757361626c653a2070617573656400000000000000000000000000000000604482015290519081900360640190fd5b611441614591565b611449610967565b6001600160a01b03908116825287811660208084019190915290871660408084019190915260608301879052608083018690528051601f850183900483028101830190915283815290849084908190840183828082843760009201919091525050505060a08201526114ba81611ba3565b50505050505050565b6060848067ffffffffffffffff811180156114dd57600080fd5b50604051908082528060200260200182016040528015611507578160200160208202803683370190505b50915060005b818110156115d357600061158989898481811061152657fe5b905060200201356001600160a01b0316600760009054906101000a90046001600160a01b03168989898080601f016020809104026020016040519081016040528093929190818152602001838380828437600092019190915250611bd392505050565b90506115b3816115a789670de0b6b3a764000063ffffffff611d2d16565b9063ffffffff611d8d16565b8483815181106115bf57fe5b60209081029190910101525060010161150d565b505095945050505050565b6115e6610967565b6000546001600160a01b03908116911614611648576040805162461bcd60e51b815260206004820181905260248201527f4f776e61626c653a2063616c6c6572206973206e6f7420746865206f776e6572604482015290519081900360640190fd5b610d37611dcf565b6060838067ffffffffffffffff8111801561166a57600080fd5b50604051908082528060200260200182016040528015611694578160200160208202803683370190505b50915060005b81811015611732576117138787838181106116b157fe5b905060200201356001600160a01b0316600760009054906101000a90046001600160a01b031687878080601f016020809104026020016040519081016040528093929190818152602001838380828437600092019190915250611e5192505050565b83828151811061171f57fe5b602090810291909101015260010161169a565b5050949350505050565b60025490565b61174a610967565b6000546001600160a01b039081169116146117ac576040805162461bcd60e51b815260206004820181905260248201527f4f776e61626c653a2063616c6c6572206973206e6f7420746865206f776e6572604482015290519081900360640190fd5b6001600160a01b0381166117f15760405162461bcd60e51b81526004018080602001828103825260268152602001806146536026913960400191505060405180910390fd5b600080546040516001600160a01b03808516939216917f8be0079c531659141344cd1fd0a4f28419497f9722a3daafe3b4186f6b6457e091a36000805473ffffffffffffffffffffffffffffffffffffffff19166001600160a01b0392909216919091179055565b6000606061186683611fcf565b61186f8361201d565b505060c081015160e0909101519091565b5490565b8154600090819083106118de576040805162461bcd60e51b815260206004820152601c60248201527f456e756d4d61703a20696e646578206f7574206f6620626f756e647300000000604482015290519081900360640190fd5b60008460000184815481106118ef57fe5b906000526020600020906002020190508060000154816001015492509250505b9250929050565b60035460ff1661196d576040805162461bcd60e51b815260206004820152601460248201527f5061757361626c653a206e6f7420706175736564000000000000000000000000604482015290519081900360640190fd5b6003805460ff191690557f5db9ee0a495bf2e6ff9c91a7834c1ba4fdd244a5e8aa4e537bd38aeae4b073aa6119a0610967565b604080516001600160a01b039092168252519081900360200190a1565b60008181526001830160205260408120548015611a9157835460001980830191908101906000908790839081106119f057fe5b9060005260206000209060020201905080876000018481548110611a1057fe5b600091825260208083208454600290930201918255600193840154918401919091558354825289830190526040902090840190558654879080611a4f57fe5b6000828152602080822060026000199094019384020182815560019081018390559290935588815289820190925260408220919091559450611a979350505050565b60009150505b92915050565b611aa88383836120c6565b611ab183611880565b1580611ad55750600754611ad59084906001600160a01b031663ffffffff61223616565b611b105760405162461bcd60e51b81526004018080602001828103825260238152602001806147f86023913960400191505060405180910390fd5b505050565b60035460ff1615611b6d576040805162461bcd60e51b815260206004820152601060248201527f5061757361626c653a2070617573656400000000000000000000000000000000604482015290519081900360640190fd5b6003805460ff191660011790557f62e78cea01bee320cd4e420270b5ea74000d11b0c9f74754ebdbfc544b05a2586119a0610967565b611bac81611fcf565b611bb58161201d565b611bbe8161224e565b611bc781612380565b611bd081612490565b50565b60006001600160a01b03851673eeeeeeeeeeeeeeeeeeeeeeeeeeeeeeeeeeeeeeee1415611c7757600860009054906101000a90046001600160a01b03166001600160a01b031663ad5c46486040518163ffffffff1660e01b815260040160206040518083038186803b158015611c4857600080fd5b505afa158015611c5c573d6000803e3d6000fd5b505050506040513d6020811015611c7257600080fd5b505194505b6001600160a01b03841673eeeeeeeeeeeeeeeeeeeeeeeeeeeeeeeeeeeeeeee1415611d1957600860009054906101000a90046001600160a01b03166001600160a01b031663ad5c46486040518163ffffffff1660e01b815260040160206040518083038186803b158015611cea57600080fd5b505afa158015611cfe573d6000803e3d6000fd5b505050506040513d6020811015611d1457600080fd5b505193505b611d24858585612983565b95945050505050565b600082611d3c57506000611a97565b82820282848281611d4957fe5b0414611d865760405162461bcd60e51b81526004018080602001828103825260218152602001806147256021913960400191505060405180910390fd5b9392505050565b6000611d8683836040518060400160405280601a81526020017f536166654d6174683a206469766973696f6e206279207a65726f000000000000815250612b8c565b60025415611e24576040805162461bcd60e51b815260206004820152601260248201527f537461727461626c653a20737461727465640000000000000000000000000000604482015290519081900360640190fd5b426002557f27029695aa5f602a4ee81f4c32dfa86e562f200a17966496f3a7c3f2ec0f94176119a0610967565b60006001600160a01b03841673eeeeeeeeeeeeeeeeeeeeeeeeeeeeeeeeeeeeeeee1415611ef557600860009054906101000a90046001600160a01b03166001600160a01b031663ad5c46486040518163ffffffff1660e01b815260040160206040518083038186803b158015611ec657600080fd5b505afa158015611eda573d6000803e3d6000fd5b505050506040513d6020811015611ef057600080fd5b505193505b6001600160a01b03831673eeeeeeeeeeeeeeeeeeeeeeeeeeeeeeeeeeeeeeee1415611f9757600860009054906101000a90046001600160a01b03166001600160a01b031663ad5c46486040518163ffffffff1660e01b815260040160206040518083038186803b158015611f6857600080fd5b505afa158015611f7c573d6000803e3d6000fd5b505050506040513d6020811015611f9257600080fd5b505192505b600080611fa48686612c2e565b9092509050611fc5826115a783670de0b6b3a764000063ffffffff611d2d16565b9695505050505050565b611fd881612cfa565b60408160a00151511015611bd05760405162461bcd60e51b81526004018080602001828103825260348152602001806146ce6034913960400191505060405180910390fd5b606081015160009081526006602052604090208054612083576040805162461bcd60e51b815260206004820152601560248201527f53616c653a20756e737570706f7274656420534b550000000000000000000000604482015290519081900360640190fd5b6004810160006120938483612faa565b90506120a0848383613020565b6120c05760808401516120ba90829063ffffffff611d2d16565b60c08501525b50505050565b60005b82518110156121b85760008382815181106120e057fe5b6020026020010151905060006001600160a01b0316816001600160a01b03161415612152576040805162461bcd60e51b815260206004820152601860248201527f53616c653a207a65726f206164647265737320746f6b656e0000000000000000604482015290519081900360640190fd5b600083838151811061216057fe5b6020026020010151905080600014156121925761218c866001600160a01b03841663ffffffff6119bd16565b506121ae565b6121ac866001600160a01b0384168363ffffffff61313616565b505b50506001016120c9565b507f00000000000000000000000000000000000000000000000000000000000000006121e384611880565b1115611b10576040805162461bcd60e51b815260206004820152601560248201527f53616c653a20746f6f206d616e7920746f6b656e730000000000000000000000604482015290519081900360640190fd5b60009081526001919091016020526040902054151590565b60e08101515115801590612283575060408101516001600160a01b031673eeeeeeeeeeeeeeeeeeeeeeeeeeeeeeeeeeeeeeee14155b156123775760a081015160208101518061229c57506000195b60408084015160085482517f095ea7b30000000000000000000000000000000000000000000000000000000081526001600160a01b03918216600482015260248101859052925191169163095ea7b39160448083019260209291908290030181600087803b15801561230d57600080fd5b505af1158015612321573d6000803e3d6000fd5b505050506040513d602081101561233757600080fd5b50516123745760405162461bcd60e51b815260040180806020018281038252602e815260200180614679602e913960400191505060405180910390fd5b50505b611bd0816131cd565b612388614602565b6060808301516000908152600660209081526040808320815160a0810183528154815260018201548185015260028201548184015260038201546001600160a01b031695810195909552815160048201805480860283018501855294820185815292956080880195929491938593909285929085015b82821015612444578382906000526020600020906002020160405180604001604052908160008201548152602001600182015481525050815260200190600101906123fe565b5050509152505090525080519091506000191461248c57608082015160208201516124749163ffffffff6136d116565b60608301516000908152600660205260409020600101555b5050565b806060015181604001516001600160a01b031682600001516001600160a01b03167f29f844483ca6b10b5c0611d039afc15ce8f6380e905307b381c3a8ee4e90e11e846020015185608001518660a001518760c001518860e001518961010001518a610120015160405160200180848051906020019060200280838360005b8381101561252757818101518382015260200161250f565b50505050905001838051906020019060200280838360005b8381101561255757818101518382015260200161253f565b50505050905001828051906020019060200280838360005b8381101561258757818101518382015260200161256f565b50505050905001935050505060405160208183030381529060405260405180866001600160a01b03166001600160a01b031681526020018581526020018060200184815260200180602001838103835286818151815260200191508051906020019080838360005b838110156126075781810151838201526020016125ef565b50505050905090810190601f1680156126345780820380516001836020036101000a031916815260200191505b50838103825284518152845160209182019186019080838360005b8381101561266757818101518382015260200161264f565b50505050905090810190601f1680156126945780820380516001836020036101000a031916815260200191505b5097505050505050505060405180910390a460608101516000908152600660205260409020600301546001600160a01b0316801561248c576361eceae860e01b7bffffffffffffffffffffffffffffffffffffffffffffffffffffffff1916816001600160a01b03166361eceae8846000015185602001518660400151876060015188608001518960a001518a60c001518b60e001518c61010001518d61012001516040518b63ffffffff1660e01b8152600401808b6001600160a01b03166001600160a01b031681526020018a6001600160a01b03166001600160a01b03168152602001896001600160a01b03166001600160a01b031681526020018881526020018781526020018060200186815260200180602001806020018060200185810385528a818151815260200191508051906020019080838360005b838110156127e85781810151838201526020016127d0565b50505050905090810190601f1680156128155780820380516001836020036101000a031916815260200191505b508581038452885181528851602091820191808b01910280838360005b8381101561284a578181015183820152602001612832565b50505050905001858103835287818151815260200191508051906020019060200280838360005b83811015612889578181015183820152602001612871565b50505050905001858103825286818151815260200191508051906020019060200280838360005b838110156128c85781810151838201526020016128b0565b505050509050019e505050505050505050505050505050602060405180830381600087803b1580156128f957600080fd5b505af115801561290d573d6000803e3d6000fd5b505050506040513d602081101561292357600080fd5b50517fffffffff00000000000000000000000000000000000000000000000000000000161461248c5760405162461bcd60e51b815260040180806020018281038252602181526020018061478f6021913960400191505060405180910390fd5b604080516002808252606080830184526000939092919060208301908036833701905050905084816000815181106129b757fe5b60200260200101906001600160a01b031690816001600160a01b03168152505083816001815181106129e557fe5b6001600160a01b03928316602091820292909201810191909152600854604080517f1f00ca7400000000000000000000000000000000000000000000000000000000815260048101888152602482019283528651604483015286516060969490941694631f00ca74948a9489949092606490910191858201910280838360005b83811015612a7d578181015183820152602001612a65565b50505050905001935050505060006040518083038186803b158015612aa157600080fd5b505afa158015612ab5573d6000803e3d6000fd5b505050506040513d6000823e601f3d908101601f191682016040526020811015612ade57600080fd5b8101908080516040519392919084640100000000821115612afe57600080fd5b908301906020820185811115612b1357600080fd5b8251866020820283011164010000000082111715612b3057600080fd5b82525081516020918201928201910280838360005b83811015612b5d578181015183820152602001612b45565b50505050905001604052505050905080600081518110612b7957fe5b6020026020010151925050509392505050565b60008183612c185760405162461bcd60e51b81526004018080602001828103825283818151815260200191508051906020019080838360005b83811015612bdd578181015183820152602001612bc5565b50505050905090810190601f168015612c0a5780820380516001836020036101000a031916815260200191505b509250505060405180910390fd5b506000838581612c2457fe5b0495945050505050565b6000806000612c3d8585613713565b509050600080612c4d87876137ea565b6001600160a01b0316630902f1ac6040518163ffffffff1660e01b815260040160606040518083038186803b158015612c8557600080fd5b505afa158015612c99573d6000803e3d6000fd5b505050506040513d6060811015612caf57600080fd5b5080516020909101516dffffffffffffffffffffffffffff91821693501690506001600160a01b0387811690841614612ce9578082612cec565b81815b909890975095505050505050565b60208101516001600160a01b0316612d59576040805162461bcd60e51b815260206004820152601c60248201527f53616c653a207a65726f206164647265737320726563697069656e7400000000604482015290519081900360640190fd5b60408101516001600160a01b0316612db8576040805162461bcd60e51b815260206004820152601860248201527f53616c653a207a65726f206164647265737320746f6b656e0000000000000000604482015290519081900360640190fd5b6080810151612e0e576040805162461bcd60e51b815260206004820152601c60248201527f53616c653a207a65726f207175616e7469747920707572636861736500000000604482015290519081900360640190fd5b606081015160009081526006602052604090208054612e74576040805162461bcd60e51b815260206004820152601660248201527f53616c653a206e6f6e2d6578697374656e7420736b7500000000000000000000604482015290519081900360640190fd5b816080015181600201541015612ed1576040805162461bcd60e51b815260206004820152601860248201527f53616c653a2061626f7665206d6178207175616e746974790000000000000000604482015290519081900360640190fd5b805460001914612f3857816080015181600101541015612f38576040805162461bcd60e51b815260206004820152601960248201527f53616c653a20696e73756666696369656e7420737570706c7900000000000000604482015290519081900360640190fd5b60408201516001600160a01b0316612f59600483018263ffffffff61223616565b611b10576040805162461bcd60e51b815260206004820152601c60248201527f53616c653a206e6f6e2d6578697374656e7420736b7520746f6b656e00000000604482015290519081900360640190fd5b6040820151600090612fcc9083906001600160a01b031663ffffffff61394d16565b905080611a97576040805162461bcd60e51b815260206004820152601f60248201527f53616c653a20756e737570706f72746564207061796d656e7420746f6b656e00604482015290519081900360640190fd5b6000600119821461303d576130368484846139dd565b9050611d86565b60075460009061305d9085906001600160a01b031663ffffffff61394d16565b608086015190915060009061307990839063ffffffff611d2d16565b604087015160075460a08901519293506000926130a292916001600160a01b0316908590611bd3565b905060006130c2826115a785670de0b6b3a764000063ffffffff611d2d16565b604080516002808252606082018352929350919060208301908036833750505060e0890181905280518791906000906130f757fe5b6020026020010181815250508060001b8860e0015160018151811061311857fe5b60209081029190910101525060c08701525060019150509392505050565b60008281526001840160205260408120548061319b575050604080518082018252838152602080820184815286546001818101895560008981528481209551600290930290950191825591519082015586548684528188019092529290912055611d86565b828560000160018303815481106131ae57fe5b9060005260206000209060020201600101819055506000915050611d86565b60e08101515115806131ff57506001600019038160e001516000815181106131f157fe5b602002602001015160001c14155b156132125761320d81613ae1565b611bd0565b60408101516001600160a01b031673eeeeeeeeeeeeeeeeeeeeeeeeeeeeeeeeeeeeeeee1415613283578060c0015134101561327e5760405162461bcd60e51b81526004018080602001828103825260238152602001806147d56023913960400191505060405180910390fd5b61338d565b80604001516001600160a01b03166323b872dd61329e610967565b60c0840151604080517fffffffff0000000000000000000000000000000000000000000000000000000060e086901b1681526001600160a01b03909316600484015230602484015260448301919091525160648083019260209291908290030181600087803b15801561331057600080fd5b505af1158015613324573d6000803e3d6000fd5b505050506040513d602081101561333a57600080fd5b505161338d576040805162461bcd60e51b815260206004820152601e60248201527f5377617053616c653a204552433230207061796d656e74206661696c65640000604482015290519081900360640190fd5b60008160e001516001815181106133a057fe5b602002602001015160001c905060006133d2670de0b6b3a76400006115a78560c0015185611d2d90919063ffffffff16565b604084015160075460a08601519293506000926133fb92916001600160a01b0316908590613d11565b60408501519091506001600160a01b031673eeeeeeeeeeeeeeeeeeeeeeeeeeeeeeeeeeeeeeee1415613482576000613439348363ffffffff6136d116565b9050801561347c5784516040516001600160a01b039091169082156108fc029083906000818181858888f1935050505015801561347a573d6000803e3d6000fd5b505b5061357b565b60c084015160009061349a908363ffffffff6136d116565b9050801561357957604080860151865182517fa9059cbb0000000000000000000000000000000000000000000000000000000081526001600160a01b03918216600482015260248101859052925191169163a9059cbb9160448083019260209291908290030181600087803b15801561351257600080fd5b505af1158015613526573d6000803e3d6000fd5b505050506040513d602081101561353c57600080fd5b50516135795760405162461bcd60e51b81526004018080602001828103825260258152602001806147b06025913960400191505060405180910390fd5b505b6007546001600160a01b031673eeeeeeeeeeeeeeeeeeeeeeeeeeeeeeeeeeeeeeee14156135e2576001546040516001600160a01b039091169082156108fc029083906000818181858888f193505050501580156135dc573d6000803e3d6000fd5b506120c0565b600754600154604080517fa9059cbb0000000000000000000000000000000000000000000000000000000081526001600160a01b039283166004820152602481018590529051919092169163a9059cbb9160448083019260209291908290030181600087803b15801561365457600080fd5b505af1158015613668573d6000803e3d6000fd5b505050506040513d602081101561367e57600080fd5b50516120c0576040805162461bcd60e51b815260206004820152601d60248201527f5377617053616c653a204552433230207061796f7574206661696c6564000000604482015290519081900360640190fd5b6000611d8683836040518060400160405280601e81526020017f536166654d6174683a207375627472616374696f6e206f766572666c6f770000815250613ebe565b600080826001600160a01b0316846001600160a01b031614156137675760405162461bcd60e51b815260040180806020018281038252602581526020018061476a6025913960400191505060405180910390fd5b826001600160a01b0316846001600160a01b03161061378757828461378a565b83835b90925090506001600160a01b03821661190f576040805162461bcd60e51b815260206004820152601e60248201527f556e69737761705632416461707465723a205a45524f5f414444524553530000604482015290519081900360640190fd5b60008060006137f98585613713565b91509150600860009054906101000a90046001600160a01b03166001600160a01b031663c45a01556040518163ffffffff1660e01b815260040160206040518083038186803b15801561384b57600080fd5b505afa15801561385f573d6000803e3d6000fd5b505050506040513d602081101561387557600080fd5b5051604080517fffffffffffffffffffffffffffffffffffffffff000000000000000000000000606095861b811660208381019190915294861b81166034830152825160288184030181526048830184528051908601207fff0000000000000000000000000000000000000000000000000000000000000060688401529390951b9094166069850152607d8401919091527f96e8ac4277198ff8b6f785478aa9a39f403cb768dd02cbee326c3e7da348845f609d808501919091528151808503909101815260bd909301905281519101209392505050565b6000818152600183016020526040812054806139b0576040805162461bcd60e51b815260206004820152601860248201527f456e756d4d61703a206e6f6e6578697374656e74206b65790000000000000000604482015290519081900360640190fd5b8360000160018203815481106139c257fe5b90600052602060002090600202016001015491505092915050565b600060001982146139f057506000611d86565b600754600090613a109085906001600160a01b031663ffffffff61394d16565b604086015160075460a0880151929350600092613a3792916001600160a01b031690611e51565b90506000613a6e8760800151613a62846115a7670de0b6b3a764000088611d2d90919063ffffffff16565b9063ffffffff611d2d16565b604080516002808252606082018352929350919060208301908036833750505060e088018190528051869190600090613aa357fe5b6020026020010181815250508160001b8760e00151600181518110613ac457fe5b602090810291909101015260c08701525060019150509392505050565b60408101516001600160a01b031673eeeeeeeeeeeeeeeeeeeeeeeeeeeeeeeeeeeeeeee1415613c04578060c00151341015613b63576040805162461bcd60e51b815260206004820152601f60248201527f53616c653a20696e73756666696369656e74204554482070726f766964656400604482015290519081900360640190fd5b60015460c08201516040516001600160a01b039092169181156108fc0291906000818181858888f19350505050158015613ba1573d6000803e3d6000fd5b506000613bbb8260c00151346136d190919063ffffffff16565b90508015613bfe5781516040516001600160a01b039091169082156108fc029083906000818181858888f19350505050158015613bfc573d6000803e3d6000fd5b505b50611bd0565b80604001516001600160a01b03166323b872dd613c1f610967565b60015460c0850151604080517fffffffff0000000000000000000000000000000000000000000000000000000060e087901b1681526001600160a01b03948516600482015293909216602484015260448301525160648083019260209291908290030181600087803b158015613c9457600080fd5b505af1158015613ca8573d6000803e3d6000fd5b505050506040513d6020811015613cbe57600080fd5b5051611bd0576040805162461bcd60e51b815260206004820152601a60248201527f53616c653a204552433230207061796d656e74206661696c6564000000000000604482015290519081900360640190fd5b602081015160408201516000919081613d57576001600160a01b03871673eeeeeeeeeeeeeeeeeeeeeeeeeeeeeeeeeeeeeeee1415613d5157349150613d57565b60001991505b80613d6157506000195b6001600160a01b03871673eeeeeeeeeeeeeeeeeeeeeeeeeeeeeeeeeeeeeeee1415613e0357600860009054906101000a90046001600160a01b03166001600160a01b031663ad5c46486040518163ffffffff1660e01b815260040160206040518083038186803b158015613dd457600080fd5b505afa158015613de8573d6000803e3d6000fd5b505050506040513d6020811015613dfe57600080fd5b505196505b6001600160a01b03861673eeeeeeeeeeeeeeeeeeeeeeeeeeeeeeeeeeeeeeee1415613ea557600860009054906101000a90046001600160a01b03166001600160a01b031663ad5c46486040518163ffffffff1660e01b815260040160206040518083038186803b158015613e7657600080fd5b505afa158015613e8a573d6000803e3d6000fd5b505050506040513d6020811015613ea057600080fd5b505195505b613eb3878787853086613f18565b979650505050505050565b60008184841115613f105760405162461bcd60e51b8152602060048201818152835160248401528351909283926044909101919085019080838360008315612bdd578181015183820152602001612bc5565b505050900390565b6000856001600160a01b0316876001600160a01b03161415613f6b5760405162461bcd60e51b815260040180806020018281038252602581526020018061476a6025913960400191505060405180910390fd5b60408051600280825260608083018452926020830190803683370190505090508781600081518110613f9957fe5b60200260200101906001600160a01b031690816001600160a01b0316815250508681600181518110613fc757fe5b6001600160a01b03928316602091820292909201810191909152600854604080517fad5c46480000000000000000000000000000000000000000000000000000000081529051606094929092169263ad5c464892600480840193829003018186803b15801561403557600080fd5b505afa158015614049573d6000803e3d6000fd5b505050506040513d602081101561405f57600080fd5b50516001600160a01b038a811691161415614244573486146140b25760405162461bcd60e51b81526004018080602001828103825260278152602001806146a76027913960400191505060405180910390fd5b6008546040517ffb3bdb41000000000000000000000000000000000000000000000000000000008152600481018981526001600160a01b03888116604484015260648301889052608060248401908152865160848501528651919094169363fb3bdb419334938d9389938d938d939260a4909101906020808801910280838360005b8381101561414c578181015183820152602001614134565b50505050905001955050505050506000604051808303818588803b15801561417357600080fd5b505af1158015614187573d6000803e3d6000fd5b50505050506040513d6000823e601f3d908101601f1916820160405260208110156141b157600080fd5b81019080805160405193929190846401000000008211156141d157600080fd5b9083019060208201858111156141e657600080fd5b825186602082028301116401000000008211171561420357600080fd5b82525081516020918201928201910280838360005b83811015614230578181015183820152602001614218565b50505050905001604052505050905061456e565b600860009054906101000a90046001600160a01b03166001600160a01b031663ad5c46486040518163ffffffff1660e01b815260040160206040518083038186803b15801561429257600080fd5b505afa1580156142a6573d6000803e3d6000fd5b505050506040513d60208110156142bc57600080fd5b50516001600160a01b03898116911614156143d8576008546040517f4a25d94a00000000000000000000000000000000000000000000000000000000815260048101898152602482018990526001600160a01b0388811660648401526084830188905260a060448401908152865160a485015286519190941693634a25d94a938c938c9389938d938d939260c4909101906020808801910280838360005b8381101561437257818101518382015260200161435a565b505050509050019650505050505050600060405180830381600087803b15801561439b57600080fd5b505af11580156143af573d6000803e3d6000fd5b505050506040513d6000823e601f3d908101601f1916820160405260208110156141b157600080fd5b6008546040517f8803dbee00000000000000000000000000000000000000000000000000000000815260048101898152602482018990526001600160a01b0388811660648401526084830188905260a060448401908152865160a485015286519190941693638803dbee938c938c9389938d938d939260c4909101906020808801910280838360005b83811015614479578181015183820152602001614461565b505050509050019650505050505050600060405180830381600087803b1580156144a257600080fd5b505af11580156144b6573d6000803e3d6000fd5b505050506040513d6000823e601f3d908101601f1916820160405260208110156144df57600080fd5b81019080805160405193929190846401000000008211156144ff57600080fd5b90830190602082018581111561451457600080fd5b825186602082028301116401000000008211171561453157600080fd5b82525081516020918201928201910280838360005b8381101561455e578181015183820152602001614546565b5050505090500160405250505090505b8060008151811061457b57fe5b6020026020010151925050509695505050505050565b60405180610140016040528060006001600160a01b0316815260200160006001600160a01b0316815260200160006001600160a01b03168152602001600080191681526020016000815260200160608152602001600081526020016060815260200160608152602001606081525090565b6040518060a0016040528060008152602001600081526020016000815260200160006001600160a01b0316815260200161463a61463f565b905290565b604051806020016040528060608152509056fe4f776e61626c653a206e6577206f776e657220697320746865207a65726f2061646472657373556e69737761705377617053616c653a204552433230207061796d656e7420617070726f76616c206661696c6564556e69737761705632416461707465723a20494e56414c49445f4d41585f414d4f554e545f494e556e69737761705377617053616c653a204d697373696e6720657870656374656420707572636861736520757365722064617461556e69737761705377617053616c653a20496e76616c6964204554482073656e646572536166654d6174683a206d756c7469706c69636174696f6e206f766572666c6f7753616c653a20746f6b656e732f707269636573206c656e67746873206d69736d61746368556e69737761705632416461707465723a204944454e544943414c5f41444452455353455353616c653a2077726f6e672072656365697665722072657475726e2076616c75655377617053616c653a204552433230207061796d656e74206368616e6765206661696c65645377617053616c653a20696e73756666696369656e74204554482070726f76696465644f7261636c6553616c653a206d697373696e67207265666572656e636520746f6b656ea2646970667358221220e392bd6e2f259ae61c95a495f28c126870c91c05caddf6676033058c03dfd4da64736f6c63430006080033abb92614f53337043b55dc996a83ebb09adce78ec336ca188ea02180b61d1c14",
  "linkReferences": {},
  "deployedLinkReferences": {}
}