{
  "_format": "hh-sol-artifact-1",
  "contractName": "UniswapOracleSaleMock",
  "sourceName": "contracts/mocks/sale/UniswapOracleSaleMock.sol",
  "abi": [
    {
      "inputs": [
        {
          "internalType": "address",
          "name": "payoutWallet_",
          "type": "address"
        },
        {
          "internalType": "uint256",
          "name": "skusCapacity",
          "type": "uint256"
        },
        {
          "internalType": "uint256",
          "name": "tokensPerSkuCapacity",
          "type": "uint256"
        },
        {
          "internalType": "address",
          "name": "referenceToken",
          "type": "address"
        },
        {
          "internalType": "contract IUniswapV2Router",
          "name": "uniswapV2Router",
          "type": "address"
        }
      ],
      "stateMutability": "nonpayable",
      "type": "constructor"
    },
    {
      "anonymous": false,
      "inputs": [
        {
          "indexed": false,
          "internalType": "bytes32[]",
          "name": "names",
          "type": "bytes32[]"
        },
        {
          "indexed": false,
          "internalType": "bytes32[]",
          "name": "values",
          "type": "bytes32[]"
        }
      ],
      "name": "MagicValues",
      "type": "event"
    },
    {
      "anonymous": false,
      "inputs": [
        {
          "indexed": true,
          "internalType": "address",
          "name": "previousOwner",
          "type": "address"
        },
        {
          "indexed": true,
          "internalType": "address",
          "name": "newOwner",
          "type": "address"
        }
      ],
      "name": "OwnershipTransferred",
      "type": "event"
    },
    {
      "anonymous": false,
      "inputs": [
        {
          "indexed": false,
          "internalType": "address",
          "name": "account",
          "type": "address"
        }
      ],
      "name": "Paused",
      "type": "event"
    },
    {
      "anonymous": false,
      "inputs": [
        {
          "indexed": false,
          "internalType": "address",
          "name": "payoutWallet_",
          "type": "address"
        }
      ],
      "name": "PayoutWalletSet",
      "type": "event"
    },
    {
      "anonymous": false,
      "inputs": [
        {
          "indexed": true,
          "internalType": "address",
          "name": "purchaser",
          "type": "address"
        },
        {
          "indexed": false,
          "internalType": "address",
          "name": "recipient",
          "type": "address"
        },
        {
          "indexed": true,
          "internalType": "address",
          "name": "token",
          "type": "address"
        },
        {
          "indexed": true,
          "internalType": "bytes32",
          "name": "sku",
          "type": "bytes32"
        },
        {
          "indexed": false,
          "internalType": "uint256",
          "name": "quantity",
          "type": "uint256"
        },
        {
          "indexed": false,
          "internalType": "bytes",
          "name": "userData",
          "type": "bytes"
        },
        {
          "indexed": false,
          "internalType": "uint256",
          "name": "totalPrice",
          "type": "uint256"
        },
        {
          "indexed": false,
          "internalType": "bytes",
          "name": "extData",
          "type": "bytes"
        }
      ],
      "name": "Purchase",
      "type": "event"
    },
    {
      "anonymous": false,
      "inputs": [
        {
          "indexed": false,
          "internalType": "bytes32",
          "name": "sku",
          "type": "bytes32"
        },
        {
          "indexed": false,
          "internalType": "uint256",
          "name": "totalSupply",
          "type": "uint256"
        },
        {
          "indexed": false,
          "internalType": "uint256",
          "name": "maxQuantityPerPurchase",
          "type": "uint256"
        },
        {
          "indexed": false,
          "internalType": "address",
          "name": "notificationsReceiver",
          "type": "address"
        }
      ],
      "name": "SkuCreation",
      "type": "event"
    },
    {
      "anonymous": false,
      "inputs": [
        {
          "indexed": true,
          "internalType": "bytes32",
          "name": "sku",
          "type": "bytes32"
        },
        {
          "indexed": false,
          "internalType": "address[]",
          "name": "tokens",
          "type": "address[]"
        },
        {
          "indexed": false,
          "internalType": "uint256[]",
          "name": "prices",
          "type": "uint256[]"
        }
      ],
      "name": "SkuPricingUpdate",
      "type": "event"
    },
    {
      "anonymous": false,
      "inputs": [
        {
          "indexed": false,
          "internalType": "address",
          "name": "account",
          "type": "address"
        }
      ],
      "name": "Started",
      "type": "event"
    },
    {
      "anonymous": false,
      "inputs": [
        {
          "indexed": false,
          "internalType": "contract IUniswapV2Router",
          "name": "uniswapV2Router",
          "type": "address"
        }
      ],
      "name": "UniswapV2RouterSet",
      "type": "event"
    },
    {
      "anonymous": false,
      "inputs": [
        {
          "indexed": false,
          "internalType": "address",
          "name": "account",
          "type": "address"
        }
      ],
      "name": "Unpaused",
      "type": "event"
    },
    {
      "inputs": [],
      "name": "PRICE_CONVERT_VIA_ORACLE",
      "outputs": [
        {
          "internalType": "uint256",
          "name": "",
          "type": "uint256"
        }
      ],
      "stateMutability": "view",
      "type": "function"
    },
    {
      "inputs": [],
      "name": "SUPPLY_UNLIMITED",
      "outputs": [
        {
          "internalType": "uint256",
          "name": "",
          "type": "uint256"
        }
      ],
      "stateMutability": "view",
      "type": "function"
    },
    {
      "inputs": [],
      "name": "TOKEN_ETH",
      "outputs": [
        {
          "internalType": "address",
          "name": "",
          "type": "address"
        }
      ],
      "stateMutability": "view",
      "type": "function"
    },
    {
      "inputs": [
        {
          "internalType": "address",
          "name": "fromToken",
          "type": "address"
        },
        {
          "internalType": "address",
          "name": "toToken",
          "type": "address"
        },
        {
          "internalType": "bytes",
          "name": "data",
          "type": "bytes"
        }
      ],
      "name": "callUnderscoreConversionRate",
      "outputs": [
        {
          "internalType": "uint256",
          "name": "rate",
          "type": "uint256"
        }
      ],
      "stateMutability": "view",
      "type": "function"
    },
    {
      "inputs": [
        {
          "internalType": "address[]",
          "name": "tokens",
          "type": "address[]"
        },
        {
          "internalType": "bytes",
          "name": "data",
          "type": "bytes"
        }
      ],
      "name": "conversionRates",
      "outputs": [
        {
          "internalType": "uint256[]",
          "name": "rates",
          "type": "uint256[]"
        }
      ],
      "stateMutability": "view",
      "type": "function"
    },
    {
      "inputs": [
        {
          "internalType": "bytes32",
          "name": "sku",
          "type": "bytes32"
        },
        {
          "internalType": "uint256",
          "name": "totalSupply",
          "type": "uint256"
        },
        {
          "internalType": "uint256",
          "name": "maxQuantityPerPurchase",
          "type": "uint256"
        },
        {
          "internalType": "address",
          "name": "notificationsReceiver",
          "type": "address"
        }
      ],
      "name": "createSku",
      "outputs": [],
      "stateMutability": "nonpayable",
      "type": "function"
    },
    {
      "inputs": [
        {
          "internalType": "address payable",
          "name": "recipient",
          "type": "address"
        },
        {
          "internalType": "address",
          "name": "token",
          "type": "address"
        },
        {
          "internalType": "bytes32",
          "name": "sku",
          "type": "bytes32"
        },
        {
          "internalType": "uint256",
          "name": "quantity",
          "type": "uint256"
        },
        {
          "internalType": "bytes",
          "name": "userData",
          "type": "bytes"
        }
      ],
      "name": "estimatePurchase",
      "outputs": [
        {
          "internalType": "uint256",
          "name": "totalPrice",
          "type": "uint256"
        },
        {
          "internalType": "bytes32[]",
          "name": "pricingData",
          "type": "bytes32[]"
        }
      ],
      "stateMutability": "view",
      "type": "function"
    },
    {
      "inputs": [
        {
          "internalType": "address",
          "name": "tokenA",
          "type": "address"
        },
        {
          "internalType": "address",
          "name": "tokenB",
          "type": "address"
        }
      ],
      "name": "getReserves",
      "outputs": [
        {
          "internalType": "uint256",
          "name": "reserveA",
          "type": "uint256"
        },
        {
          "internalType": "uint256",
          "name": "reserveB",
          "type": "uint256"
        }
      ],
      "stateMutability": "view",
      "type": "function"
    },
    {
      "inputs": [
        {
          "internalType": "bytes32",
          "name": "sku",
          "type": "bytes32"
        }
      ],
      "name": "getSkuInfo",
      "outputs": [
        {
          "internalType": "uint256",
          "name": "totalSupply",
          "type": "uint256"
        },
        {
          "internalType": "uint256",
          "name": "remainingSupply",
          "type": "uint256"
        },
        {
          "internalType": "uint256",
          "name": "maxQuantityPerPurchase",
          "type": "uint256"
        },
        {
          "internalType": "address",
          "name": "notificationsReceiver",
          "type": "address"
        },
        {
          "internalType": "address[]",
          "name": "tokens",
          "type": "address[]"
        },
        {
          "internalType": "uint256[]",
          "name": "prices",
          "type": "uint256[]"
        }
      ],
      "stateMutability": "view",
      "type": "function"
    },
    {
      "inputs": [],
      "name": "getSkus",
      "outputs": [
        {
          "internalType": "bytes32[]",
          "name": "skus",
          "type": "bytes32[]"
        }
      ],
      "stateMutability": "view",
      "type": "function"
    },
    {
      "inputs": [],
      "name": "owner",
      "outputs": [
        {
          "internalType": "address",
          "name": "",
          "type": "address"
        }
      ],
      "stateMutability": "view",
      "type": "function"
    },
    {
      "inputs": [],
      "name": "pause",
      "outputs": [],
      "stateMutability": "nonpayable",
      "type": "function"
    },
    {
      "inputs": [],
      "name": "paused",
      "outputs": [
        {
          "internalType": "bool",
          "name": "",
          "type": "bool"
        }
      ],
      "stateMutability": "view",
      "type": "function"
    },
    {
      "inputs": [],
      "name": "payoutWallet",
      "outputs": [
        {
          "internalType": "address payable",
          "name": "",
          "type": "address"
        }
      ],
      "stateMutability": "view",
      "type": "function"
    },
    {
      "inputs": [
        {
          "internalType": "address payable",
          "name": "recipient",
          "type": "address"
        },
        {
          "internalType": "address",
          "name": "token",
          "type": "address"
        },
        {
          "internalType": "bytes32",
          "name": "sku",
          "type": "bytes32"
        },
        {
          "internalType": "uint256",
          "name": "quantity",
          "type": "uint256"
        },
        {
          "internalType": "bytes",
          "name": "userData",
          "type": "bytes"
        }
      ],
      "name": "purchaseFor",
      "outputs": [],
      "stateMutability": "payable",
      "type": "function"
    },
    {
      "inputs": [],
      "name": "referenceToken",
      "outputs": [
        {
          "internalType": "address",
          "name": "",
          "type": "address"
        }
      ],
      "stateMutability": "view",
      "type": "function"
    },
    {
      "inputs": [],
      "name": "renounceOwnership",
      "outputs": [],
      "stateMutability": "nonpayable",
      "type": "function"
    },
    {
      "inputs": [
        {
          "internalType": "address",
          "name": "payoutWallet_",
          "type": "address"
        }
      ],
      "name": "setPayoutWallet",
      "outputs": [],
      "stateMutability": "nonpayable",
      "type": "function"
    },
    {
      "inputs": [],
      "name": "start",
      "outputs": [],
      "stateMutability": "nonpayable",
      "type": "function"
    },
    {
      "inputs": [],
      "name": "startedAt",
      "outputs": [
        {
          "internalType": "uint256",
          "name": "",
          "type": "uint256"
        }
      ],
      "stateMutability": "view",
      "type": "function"
    },
    {
      "inputs": [
        {
          "internalType": "address",
          "name": "newOwner",
          "type": "address"
        }
      ],
      "name": "transferOwnership",
      "outputs": [],
      "stateMutability": "nonpayable",
      "type": "function"
    },
    {
      "inputs": [],
      "name": "uniswapV2Router",
      "outputs": [
        {
          "internalType": "contract IUniswapV2Router",
          "name": "",
          "type": "address"
        }
      ],
      "stateMutability": "view",
      "type": "function"
    },
    {
      "inputs": [],
      "name": "unpause",
      "outputs": [],
      "stateMutability": "nonpayable",
      "type": "function"
    },
    {
      "inputs": [
        {
          "internalType": "bytes32",
          "name": "sku",
          "type": "bytes32"
        },
        {
          "internalType": "address[]",
          "name": "tokens",
          "type": "address[]"
        },
        {
          "internalType": "uint256[]",
          "name": "prices",
          "type": "uint256[]"
        }
      ],
      "name": "updateSkuPricing",
      "outputs": [],
      "stateMutability": "nonpayable",
      "type": "function"
    }
  ],
  "bytecode": "0x60c06040523480156200001157600080fd5b5060405162003edf38038062003edf833981810160405260a08110156200003757600080fd5b50805160208201516040830151606084015160809094015192939192909190848484848480858585858383838282828260006200007c6001600160e01b036200045016565b600080546001600160a01b0319166001600160a01b0383169081178255604051929350917f8be0079c531659141344cd1fd0a4f28419497f9722a3daafe3b4186f6b6457e0908290a350620000da816001600160e01b036200045416565b506003805460ff19169055608082905260a081905260408051600280825260608083018452926020830190803683375050604080516002808252606080830184529495509092509060208301908036833750508351919250680a89e968a9cbe8aa8960bb1b9173eeeeeeeeeeeeeeeeeeeeeeeeeeeeeeeeeeeeeeee915084906000906200016357fe5b60200260200101836000815181106200017857fe5b602002602001018281525082815250505060001960001b6f14d55414131657d5539312535255115160821b9083600181518110620001b257fe5b6020026020010183600181518110620001c757fe5b602002602001018281525082815250505060008051602062003ebf8339815191528282604051808060200180602001838103835285818151815260200191508051906020019060200280838360005b838110156200023057818101518382015260200162000216565b50505050905001838103825284818151815260200191508051906020019060200280838360005b838110156200027157818101518382015260200162000257565b5050505090500194505050505060405180910390a1620002996001600160e01b036200064316565b5050600780546001600160a01b0319166001600160a01b03891617905550606094506001935060009250620002cc915050565b50604051908082528060200260200182016040528015620002f7578160200160208202803683370190505b50604080516001808252818301909252919250606091906020808301908036833701905050905060001960001b7f50524943455f434f4e564552545f5649415f4f5241434c45000000000000000090836000815181106200035457fe5b60200260200101836000815181106200036957fe5b602002602001018281525082815250505060008051602062003ebf8339815191528282604051808060200180602001838103835285818151815260200191508051906020019060200280838360005b83811015620003d2578181015183820152602001620003b8565b50505050905001838103825284818151815260200191508051906020019060200280838360005b8381101562000413578181015183820152602001620003f9565b5050505090500194505050505060405180910390a15050505050506200043f81620006ed60201b60201c565b505050505050505050505062000741565b3390565b620004676001600160e01b036200045016565b6000546001600160a01b03908116911614620004ca576040805162461bcd60e51b815260206004820181905260248201527f4f776e61626c653a2063616c6c6572206973206e6f7420746865206f776e6572604482015290519081900360640190fd5b6001600160a01b03811662000526576040805162461bcd60e51b815260206004820152601460248201527f5061796f75743a207a65726f2061646472657373000000000000000000000000604482015290519081900360640190fd5b6001600160a01b03811630141562000585576040805162461bcd60e51b815260206004820152601f60248201527f5061796f75743a207468697320636f6e7472616374206173207061796f757400604482015290519081900360640190fd5b6001546001600160a01b0382811691161415620005e9576040805162461bcd60e51b815260206004820152601a60248201527f5061796f75743a2073616d65207061796f75742077616c6c6574000000000000604482015290519081900360640190fd5b600180546001600160a01b0319166001600160a01b03838116919091179182905560408051929091168252517fdd880d24a789958a6398c99c2e54ce31bc10a638cbc42f7dd34285479ae0f855916020908290030190a150565b60035460ff16156200068f576040805162461bcd60e51b815260206004820152601060248201526f14185d5cd8589b194e881c185d5cd95960821b604482015290519081900360640190fd5b6003805460ff191660011790557f62e78cea01bee320cd4e420270b5ea74000d11b0c9f74754ebdbfc544b05a258620006d06001600160e01b036200045016565b604080516001600160a01b039092168252519081900360200190a1565b600880546001600160a01b0383166001600160a01b0319909116811790915560408051918252517ffe70995e26c62b71bbd53a5b9e09215c42e2006fad72ba845051faa8de1510ba9181900360200190a150565b60805160a05161375a620007656000398061260e5250806119f3525061375a6000f3fe60806040526004361061018b5760003560e01c80638456cb59116100d6578063a963b2571161007f578063d52bb6f411610059578063d52bb6f4146108bb578063f21f537d1461090f578063f2fde38b146109245761018b565b8063a963b25714610742578063be9a6555146107d7578063c7b778db146107ec5761018b565b80639865bcc8116100b05780639865bcc8146106855780639e04954514610685578063a1e16908146106ac5761018b565b80638456cb59146106465780638488bb4e1461065b5780638da5cb5b146106705761018b565b80635c4fafc71161013857806361bd38511161011257806361bd3851146105995780636b8f9c43146105fe578063715018a6146106315761018b565b80635c4fafc7146104205780635c975abb146104355780635e6e9f701461045e5761018b565b80632a8a45bc116101695780632a8a45bc146102d35780632c87927b146103c45780633f4ba83a1461040b5761018b565b80631265b651146101905780631323b066146101c15780631694505e146102be575b600080fd5b34801561019c57600080fd5b506101a5610957565b604080516001600160a01b039092168252519081900360200190f35b3480156101cd57600080fd5b50610263600480360360a08110156101e457600080fd5b6001600160a01b03823581169260208101359091169160408201359160608101359181019060a08101608082013564010000000081111561022457600080fd5b82018360208201111561023657600080fd5b8035906020019184600183028401116401000000008311171561025857600080fd5b509092509050610966565b6040518083815260200180602001828103825283818151815260200191508051906020019060200280838360005b838110156102a9578181015183820152602001610291565b50505050905001935050505060405180910390f35b3480156102ca57600080fd5b506101a5610aab565b3480156102df57600080fd5b506102fd600480360360208110156102f657600080fd5b5035610aba565b60405180878152602001868152602001858152602001846001600160a01b03166001600160a01b031681526020018060200180602001838103835285818151815260200191508051906020019060200280838360005b8381101561036b578181015183820152602001610353565b50505050905001838103825284818151815260200191508051906020019060200280838360005b838110156103aa578181015183820152602001610392565b505050509050019850505050505050505060405180910390f35b3480156103d057600080fd5b50610409600480360360808110156103e757600080fd5b50803590602081013590604081013590606001356001600160a01b0316610c65565b005b34801561041757600080fd5b50610409610c77565b34801561042c57600080fd5b506101a5610d3f565b34801561044157600080fd5b5061044a610d57565b604080519115158252519081900360200190f35b34801561046a57600080fd5b506104096004803603606081101561048157600080fd5b813591908101906040810160208201356401000000008111156104a357600080fd5b8201836020820111156104b557600080fd5b803590602001918460208302840111640100000000831117156104d757600080fd5b919080806020026020016040519081016040528093929190818152602001838360200280828437600092019190915250929594936020810193503591505064010000000081111561052757600080fd5b82018360208201111561053957600080fd5b8035906020019184602083028401116401000000008311171561055b57600080fd5b919080806020026020016040519081016040528093929190818152602001838360200280828437600092019190915250929550610d60945050505050565b3480156105a557600080fd5b506105ae610f92565b60408051602080825283518183015283519192839290830191858101910280838360005b838110156105ea5781810151838201526020016105d2565b505050509050019250505060405180910390f35b34801561060a57600080fd5b506104096004803603602081101561062157600080fd5b50356001600160a01b0316610fed565b34801561063d57600080fd5b506104096111da565b34801561065257600080fd5b5061040961129b565b34801561066757600080fd5b506101a5611361565b34801561067c57600080fd5b506101a5611370565b34801561069157600080fd5b5061069a61137f565b60408051918252519081900360200190f35b3480156106b857600080fd5b5061069a600480360360608110156106cf57600080fd5b6001600160a01b03823581169260208101359091169181019060608101604082013564010000000081111561070357600080fd5b82018360208201111561071557600080fd5b8035906020019184600183028401116401000000008311171561073757600080fd5b509092509050611385565b610409600480360360a081101561075857600080fd5b6001600160a01b03823581169260208101359091169160408201359160608101359181019060a08101608082013564010000000081111561079857600080fd5b8201836020820111156107aa57600080fd5b803590602001918460018302840111640100000000831117156107cc57600080fd5b5090925090506113d1565b3480156107e357600080fd5b50610409611507565b3480156107f857600080fd5b506105ae6004803603604081101561080f57600080fd5b81019060208101813564010000000081111561082a57600080fd5b82018360208201111561083c57600080fd5b8035906020019184602083028401116401000000008311171561085e57600080fd5b91939092909160208101903564010000000081111561087c57600080fd5b82018360208201111561088e57600080fd5b803590602001918460018302840111640100000000831117156108b057600080fd5b509092509050611579565b3480156108c757600080fd5b506108f6600480360360408110156108de57600080fd5b506001600160a01b0381358116916020013516611665565b6040805192835260208301919091528051918290030190f35b34801561091b57600080fd5b5061069a6117c1565b34801561093057600080fd5b506104096004803603602081101561094757600080fd5b50356001600160a01b03166117c7565b6007546001600160a01b031681565b60006060600254600014156109c2576040805162461bcd60e51b815260206004820152601660248201527f537461727461626c653a206e6f74207374617274656400000000000000000000604482015290519081900360640190fd5b60035460ff1615610a1a576040805162461bcd60e51b815260206004820152601060248201527f5061757361626c653a2070617573656400000000000000000000000000000000604482015290519081900360640190fd5b610a2261358f565b610a2a6118de565b6001600160a01b03908116825289811660208084019190915290891660408084019190915260608301899052608083018890528051601f870183900483028101830190915285815290869086908190840183828082843760009201919091525050505060a0820152610a9b816118e2565b9250925050965096945050505050565b6008546001600160a01b031681565b6000818152600660205260408120819081908190606090819083610ae060048301611909565b82549850905087610b38576040805162461bcd60e51b815260206004820152601660248201527f53616c653a206e6f6e2d6578697374656e7420736b7500000000000000000000604482015290519081900360640190fd5b60018201546002830154600384015491985096506001600160a01b031694508067ffffffffffffffff81118015610b6e57600080fd5b50604051908082528060200260200182016040528015610b98578160200160208202803683370190505b5093508067ffffffffffffffff81118015610bb257600080fd5b50604051908082528060200260200182016040528015610bdc578160200160208202803683370190505b50925060005b81811015610c5957600080610c00600486018463ffffffff61190d16565b915091508160001c878481518110610c1457fe5b60200260200101906001600160a01b031690816001600160a01b0316815250508060001c868481518110610c4457fe5b60209081029190910101525050600101610be2565b50505091939550919395565b610c718484848461199f565b50505050565b610c7f6118de565b6000546001600160a01b03908116911614610ce1576040805162461bcd60e51b815260206004820181905260248201527f4f776e61626c653a2063616c6c6572206973206e6f7420746865206f776e6572604482015290519081900360640190fd5b600254610d35576040805162461bcd60e51b815260206004820152601660248201527f537461727461626c653a206e6f74207374617274656400000000000000000000604482015290519081900360640190fd5b610d3d611bdc565b565b73eeeeeeeeeeeeeeeeeeeeeeeeeeeeeeeeeeeeeeee81565b60035460ff1690565b610d686118de565b6000546001600160a01b03908116911614610dca576040805162461bcd60e51b815260206004820181905260248201527f4f776e61626c653a2063616c6c6572206973206e6f7420746865206f776e6572604482015290519081900360640190fd5b815181518114610e0b5760405162461bcd60e51b81526004018080602001828103825260248152602001806136986024913960400191505060405180910390fd5b60008481526006602052604090208054610e6c576040805162461bcd60e51b815260206004820152601660248201527f53616c653a206e6f6e2d6578697374656e7420736b7500000000000000000000604482015290519081900360640190fd5b6004810182610ec3576000610e8082611909565b905060005b81811015610ebc576000610e9f848263ffffffff61190d16565b509050610eb2848263ffffffff611c8316565b5050600101610e85565b5050610ece565b610ece818686611d63565b857fcb3fe5489e0cd43d0f4a33d1e09a4a0463a03d0d38f56165530854e5540db1438686604051808060200180602001838103835285818151815260200191508051906020019060200280838360005b83811015610f36578181015183820152602001610f1e565b50505050905001838103825284818151815260200191508051906020019060200280838360005b83811015610f75578181015183820152602001610f5d565b5050505090500194505050505060405180910390a2505050505050565b60606004600001805480602002602001604051908101604052809291908181526020018280548015610fe357602002820191906000526020600020905b815481526020019060010190808311610fcf575b5050505050905090565b610ff56118de565b6000546001600160a01b03908116911614611057576040805162461bcd60e51b815260206004820181905260248201527f4f776e61626c653a2063616c6c6572206973206e6f7420746865206f776e6572604482015290519081900360640190fd5b6001600160a01b0381166110b2576040805162461bcd60e51b815260206004820152601460248201527f5061796f75743a207a65726f2061646472657373000000000000000000000000604482015290519081900360640190fd5b6001600160a01b038116301415611110576040805162461bcd60e51b815260206004820152601f60248201527f5061796f75743a207468697320636f6e7472616374206173207061796f757400604482015290519081900360640190fd5b6001546001600160a01b0382811691161415611173576040805162461bcd60e51b815260206004820152601a60248201527f5061796f75743a2073616d65207061796f75742077616c6c6574000000000000604482015290519081900360640190fd5b6001805473ffffffffffffffffffffffffffffffffffffffff19166001600160a01b03838116919091179182905560408051929091168252517fdd880d24a789958a6398c99c2e54ce31bc10a638cbc42f7dd34285479ae0f855916020908290030190a150565b6111e26118de565b6000546001600160a01b03908116911614611244576040805162461bcd60e51b815260206004820181905260248201527f4f776e61626c653a2063616c6c6572206973206e6f7420746865206f776e6572604482015290519081900360640190fd5b600080546040516001600160a01b03909116907f8be0079c531659141344cd1fd0a4f28419497f9722a3daafe3b4186f6b6457e0908390a36000805473ffffffffffffffffffffffffffffffffffffffff19169055565b6112a36118de565b6000546001600160a01b03908116911614611305576040805162461bcd60e51b815260206004820181905260248201527f4f776e61626c653a2063616c6c6572206973206e6f7420746865206f776e6572604482015290519081900360640190fd5b600254611359576040805162461bcd60e51b815260206004820152601660248201527f537461727461626c653a206e6f74207374617274656400000000000000000000604482015290519081900360640190fd5b610d3d611ddb565b6001546001600160a01b031681565b6000546001600160a01b031690565b60001981565b60006113c8858585858080601f016020809104026020016040519081016040528093929190818152602001838380828437600092019190915250611e6992505050565b95945050505050565b600254611425576040805162461bcd60e51b815260206004820152601660248201527f537461727461626c653a206e6f74207374617274656400000000000000000000604482015290519081900360640190fd5b60035460ff161561147d576040805162461bcd60e51b815260206004820152601060248201527f5061757361626c653a2070617573656400000000000000000000000000000000604482015290519081900360640190fd5b61148561358f565b61148d6118de565b6001600160a01b03908116825287811660208084019190915290871660408084019190915260608301879052608083018690528051601f850183900483028101830190915283815290849084908190840183828082843760009201919091525050505060a08201526114fe81611ff3565b50505050505050565b61150f6118de565b6000546001600160a01b03908116911614611571576040805162461bcd60e51b815260206004820181905260248201527f4f776e61626c653a2063616c6c6572206973206e6f7420746865206f776e6572604482015290519081900360640190fd5b610d35612023565b6060838067ffffffffffffffff8111801561159357600080fd5b506040519080825280602002602001820160405280156115bd578160200160208202803683370190505b50915060005b8181101561165b5761163c8787838181106115da57fe5b905060200201356001600160a01b0316600760009054906101000a90046001600160a01b031687878080601f016020809104026020016040519081016040528093929190818152602001838380828437600092019190915250611e6992505050565b83828151811061164857fe5b60209081029190910101526001016115c3565b5050949350505050565b6000806001600160a01b03841673eeeeeeeeeeeeeeeeeeeeeeeeeeeeeeeeeeeeeeee141561170a57600860009054906101000a90046001600160a01b03166001600160a01b031663ad5c46486040518163ffffffff1660e01b815260040160206040518083038186803b1580156116db57600080fd5b505afa1580156116ef573d6000803e3d6000fd5b505050506040513d602081101561170557600080fd5b505193505b6001600160a01b03831673eeeeeeeeeeeeeeeeeeeeeeeeeeeeeeeeeeeeeeee14156117ac57600860009054906101000a90046001600160a01b03166001600160a01b031663ad5c46486040518163ffffffff1660e01b815260040160206040518083038186803b15801561177d57600080fd5b505afa158015611791573d6000803e3d6000fd5b505050506040513d60208110156117a757600080fd5b505192505b6117b684846120a5565b909590945092505050565b60025490565b6117cf6118de565b6000546001600160a01b03908116911614611831576040805162461bcd60e51b815260206004820181905260248201527f4f776e61626c653a2063616c6c6572206973206e6f7420746865206f776e6572604482015290519081900360640190fd5b6001600160a01b0381166118765760405162461bcd60e51b81526004018080602001828103825260268152602001806136516026913960400191505060405180910390fd5b600080546040516001600160a01b03808516939216917f8be0079c531659141344cd1fd0a4f28419497f9722a3daafe3b4186f6b6457e091a36000805473ffffffffffffffffffffffffffffffffffffffff19166001600160a01b0392909216919091179055565b3390565b600060606118ef83612171565b6118f883612421565b505060c081015160e0909101519091565b5490565b815460009081908310611967576040805162461bcd60e51b815260206004820152601c60248201527f456e756d4d61703a20696e646578206f7574206f6620626f756e647300000000604482015290519081900360640190fd5b600084600001848154811061197857fe5b906000526020600020906002020190508060000154816001015492509250505b9250929050565b826119f1576040805162461bcd60e51b815260206004820152601160248201527f53616c653a207a65726f20737570706c79000000000000000000000000000000604482015290519081900360640190fd5b7f0000000000000000000000000000000000000000000000000000000000000000611a1c6004611909565b10611a6e576040805162461bcd60e51b815260206004820152601360248201527f53616c653a20746f6f206d616e7920736b757300000000000000000000000000604482015290519081900360640190fd5b611a7f60048563ffffffff6124c916565b611ad0576040805162461bcd60e51b815260206004820152601960248201527f53616c653a20736b7520616c7265616479206372656174656400000000000000604482015290519081900360640190fd5b6001600160a01b03811615611b4257611af1816001600160a01b0316612513565b611b42576040805162461bcd60e51b815260206004820181905260248201527f53616c653a207265636569766572206973206e6f74206120636f6e7472616374604482015290519081900360640190fd5b60008481526006602090815260409182902085815560018101869055600281018590556003810180546001600160a01b03861673ffffffffffffffffffffffffffffffffffffffff1990911681179091558351888152928301879052828401869052606083015291517f38bd4aabce684540cd61351b91f2f5facf9d6963934347e25aab93d87ae7ac149181900360800190a15050505050565b60035460ff16611c33576040805162461bcd60e51b815260206004820152601460248201527f5061757361626c653a206e6f7420706175736564000000000000000000000000604482015290519081900360640190fd5b6003805460ff191690557f5db9ee0a495bf2e6ff9c91a7834c1ba4fdd244a5e8aa4e537bd38aeae4b073aa611c666118de565b604080516001600160a01b039092168252519081900360200190a1565b60008181526001830160205260408120548015611d575783546000198083019190810190600090879083908110611cb657fe5b9060005260206000209060020201905080876000018481548110611cd657fe5b600091825260208083208454600290930201918255600193840154918401919091558354825289830190526040902090840190558654879080611d1557fe5b6000828152602080822060026000199094019384020182815560019081018390559290935588815289820190925260408220919091559450611d5d9350505050565b60009150505b92915050565b611d6e838383612519565b611d7783611909565b1580611d9b5750600754611d9b9084906001600160a01b031663ffffffff61268916565b611dd65760405162461bcd60e51b81526004018080602001828103825260238152602001806137026023913960400191505060405180910390fd5b505050565b60035460ff1615611e33576040805162461bcd60e51b815260206004820152601060248201527f5061757361626c653a2070617573656400000000000000000000000000000000604482015290519081900360640190fd5b6003805460ff191660011790557f62e78cea01bee320cd4e420270b5ea74000d11b0c9f74754ebdbfc544b05a258611c666118de565b60006001600160a01b03841673eeeeeeeeeeeeeeeeeeeeeeeeeeeeeeeeeeeeeeee1415611f0d57600860009054906101000a90046001600160a01b03166001600160a01b031663ad5c46486040518163ffffffff1660e01b815260040160206040518083038186803b158015611ede57600080fd5b505afa158015611ef2573d6000803e3d6000fd5b505050506040513d6020811015611f0857600080fd5b505193505b6001600160a01b03831673eeeeeeeeeeeeeeeeeeeeeeeeeeeeeeeeeeeeeeee1415611faf57600860009054906101000a90046001600160a01b03166001600160a01b031663ad5c46486040518163ffffffff1660e01b815260040160206040518083038186803b158015611f8057600080fd5b505afa158015611f94573d6000803e3d6000fd5b505050506040513d6020811015611faa57600080fd5b505192505b600080611fbc86866120a5565b9092509050611fe982611fdd83670de0b6b3a764000063ffffffff6126a116565b9063ffffffff61270116565b9695505050505050565b611ffc81612171565b61200581612421565b61200e81612743565b61201781612973565b61202081612a83565b50565b60025415612078576040805162461bcd60e51b815260206004820152601260248201527f537461727461626c653a20737461727465640000000000000000000000000000604482015290519081900360640190fd5b426002557f27029695aa5f602a4ee81f4c32dfa86e562f200a17966496f3a7c3f2ec0f9417611c666118de565b60008060006120b48585612f76565b5090506000806120c4878761304d565b6001600160a01b0316630902f1ac6040518163ffffffff1660e01b815260040160606040518083038186803b1580156120fc57600080fd5b505afa158015612110573d6000803e3d6000fd5b505050506040513d606081101561212657600080fd5b5080516020909101516dffffffffffffffffffffffffffff91821693501690506001600160a01b0387811690841614612160578082612163565b81815b909890975095505050505050565b60208101516001600160a01b03166121d0576040805162461bcd60e51b815260206004820152601c60248201527f53616c653a207a65726f206164647265737320726563697069656e7400000000604482015290519081900360640190fd5b60408101516001600160a01b031661222f576040805162461bcd60e51b815260206004820152601860248201527f53616c653a207a65726f206164647265737320746f6b656e0000000000000000604482015290519081900360640190fd5b6080810151612285576040805162461bcd60e51b815260206004820152601c60248201527f53616c653a207a65726f207175616e7469747920707572636861736500000000604482015290519081900360640190fd5b6060810151600090815260066020526040902080546122eb576040805162461bcd60e51b815260206004820152601660248201527f53616c653a206e6f6e2d6578697374656e7420736b7500000000000000000000604482015290519081900360640190fd5b816080015181600201541015612348576040805162461bcd60e51b815260206004820152601860248201527f53616c653a2061626f7665206d6178207175616e746974790000000000000000604482015290519081900360640190fd5b8054600019146123af578160800151816001015410156123af576040805162461bcd60e51b815260206004820152601960248201527f53616c653a20696e73756666696369656e7420737570706c7900000000000000604482015290519081900360640190fd5b60408201516001600160a01b03166123d0600483018263ffffffff61268916565b611dd6576040805162461bcd60e51b815260206004820152601c60248201527f53616c653a206e6f6e2d6578697374656e7420736b7520746f6b656e00000000604482015290519081900360640190fd5b606081015160009081526006602052604090208054612487576040805162461bcd60e51b815260206004820152601560248201527f53616c653a20756e737570706f7274656420534b550000000000000000000000604482015290519081900360640190fd5b60048101600061249784836131b0565b90506124a4848383613226565b610c715760808401516124be90829063ffffffff6126a116565b60c085015250505050565b60006124d58383612689565b61250b57508154600181810184556000848152602080822090930184905584548482528286019093526040902091909155611d5d565b506000611d5d565b3b151590565b60005b825181101561260b57600083828151811061253357fe5b6020026020010151905060006001600160a01b0316816001600160a01b031614156125a5576040805162461bcd60e51b815260206004820152601860248201527f53616c653a207a65726f206164647265737320746f6b656e0000000000000000604482015290519081900360640190fd5b60008383815181106125b357fe5b6020026020010151905080600014156125e5576125df866001600160a01b03841663ffffffff611c8316565b50612601565b6125ff866001600160a01b0384168363ffffffff61332a16565b505b505060010161251c565b507f000000000000000000000000000000000000000000000000000000000000000061263684611909565b1115611dd6576040805162461bcd60e51b815260206004820152601560248201527f53616c653a20746f6f206d616e7920746f6b656e730000000000000000000000604482015290519081900360640190fd5b60009081526001919091016020526040902054151590565b6000826126b057506000611d5d565b828202828482816126bd57fe5b04146126fa5760405162461bcd60e51b81526004018080602001828103825260218152602001806136776021913960400191505060405180910390fd5b9392505050565b60006126fa83836040518060400160405280601a81526020017f536166654d6174683a206469766973696f6e206279207a65726f0000000000008152506133c1565b60408101516001600160a01b031673eeeeeeeeeeeeeeeeeeeeeeeeeeeeeeeeeeeeeeee1415612866578060c001513410156127c5576040805162461bcd60e51b815260206004820152601f60248201527f53616c653a20696e73756666696369656e74204554482070726f766964656400604482015290519081900360640190fd5b60015460c08201516040516001600160a01b039092169181156108fc0291906000818181858888f19350505050158015612803573d6000803e3d6000fd5b50600061281d8260c001513461346390919063ffffffff16565b905080156128605781516040516001600160a01b039091169082156108fc029083906000818181858888f1935050505015801561285e573d6000803e3d6000fd5b505b50612020565b80604001516001600160a01b03166323b872dd6128816118de565b60015460c0850151604080517fffffffff0000000000000000000000000000000000000000000000000000000060e087901b1681526001600160a01b03948516600482015293909216602484015260448301525160648083019260209291908290030181600087803b1580156128f657600080fd5b505af115801561290a573d6000803e3d6000fd5b505050506040513d602081101561292057600080fd5b5051612020576040805162461bcd60e51b815260206004820152601a60248201527f53616c653a204552433230207061796d656e74206661696c6564000000000000604482015290519081900360640190fd5b61297b613600565b6060808301516000908152600660209081526040808320815160a0810183528154815260018201548185015260028201548184015260038201546001600160a01b031695810195909552815160048201805480860283018501855294820185815292956080880195929491938593909285929085015b82821015612a37578382906000526020600020906002020160405180604001604052908160008201548152602001600182015481525050815260200190600101906129f1565b50505091525050905250805190915060001914612a7f5760808201516020820151612a679163ffffffff61346316565b60608301516000908152600660205260409020600101555b5050565b806060015181604001516001600160a01b031682600001516001600160a01b03167f29f844483ca6b10b5c0611d039afc15ce8f6380e905307b381c3a8ee4e90e11e846020015185608001518660a001518760c001518860e001518961010001518a610120015160405160200180848051906020019060200280838360005b83811015612b1a578181015183820152602001612b02565b50505050905001838051906020019060200280838360005b83811015612b4a578181015183820152602001612b32565b50505050905001828051906020019060200280838360005b83811015612b7a578181015183820152602001612b62565b50505050905001935050505060405160208183030381529060405260405180866001600160a01b03166001600160a01b031681526020018581526020018060200184815260200180602001838103835286818151815260200191508051906020019080838360005b83811015612bfa578181015183820152602001612be2565b50505050905090810190601f168015612c275780820380516001836020036101000a031916815260200191505b50838103825284518152845160209182019186019080838360005b83811015612c5a578181015183820152602001612c42565b50505050905090810190601f168015612c875780820380516001836020036101000a031916815260200191505b5097505050505050505060405180910390a460608101516000908152600660205260409020600301546001600160a01b03168015612a7f576361eceae860e01b7bffffffffffffffffffffffffffffffffffffffffffffffffffffffff1916816001600160a01b03166361eceae8846000015185602001518660400151876060015188608001518960a001518a60c001518b60e001518c61010001518d61012001516040518b63ffffffff1660e01b8152600401808b6001600160a01b03166001600160a01b031681526020018a6001600160a01b03166001600160a01b03168152602001896001600160a01b03166001600160a01b031681526020018881526020018781526020018060200186815260200180602001806020018060200185810385528a818151815260200191508051906020019080838360005b83811015612ddb578181015183820152602001612dc3565b50505050905090810190601f168015612e085780820380516001836020036101000a031916815260200191505b508581038452885181528851602091820191808b01910280838360005b83811015612e3d578181015183820152602001612e25565b50505050905001858103835287818151815260200191508051906020019060200280838360005b83811015612e7c578181015183820152602001612e64565b50505050905001858103825286818151815260200191508051906020019060200280838360005b83811015612ebb578181015183820152602001612ea3565b505050509050019e505050505050505050505050505050602060405180830381600087803b158015612eec57600080fd5b505af1158015612f00573d6000803e3d6000fd5b505050506040513d6020811015612f1657600080fd5b50517fffffffff000000000000000000000000000000000000000000000000000000001614612a7f5760405162461bcd60e51b81526004018080602001828103825260218152602001806136e16021913960400191505060405180910390fd5b600080826001600160a01b0316846001600160a01b03161415612fca5760405162461bcd60e51b81526004018080602001828103825260258152602001806136bc6025913960400191505060405180910390fd5b826001600160a01b0316846001600160a01b031610612fea578284612fed565b83835b90925090506001600160a01b038216611998576040805162461bcd60e51b815260206004820152601e60248201527f556e69737761705632416461707465723a205a45524f5f414444524553530000604482015290519081900360640190fd5b600080600061305c8585612f76565b91509150600860009054906101000a90046001600160a01b03166001600160a01b031663c45a01556040518163ffffffff1660e01b815260040160206040518083038186803b1580156130ae57600080fd5b505afa1580156130c2573d6000803e3d6000fd5b505050506040513d60208110156130d857600080fd5b5051604080517fffffffffffffffffffffffffffffffffffffffff000000000000000000000000606095861b811660208381019190915294861b81166034830152825160288184030181526048830184528051908601207fff0000000000000000000000000000000000000000000000000000000000000060688401529390951b9094166069850152607d8401919091527f96e8ac4277198ff8b6f785478aa9a39f403cb768dd02cbee326c3e7da348845f609d808501919091528151808503909101815260bd909301905281519101209392505050565b60408201516000906131d29083906001600160a01b031663ffffffff6134a516565b905080611d5d576040805162461bcd60e51b815260206004820152601f60248201527f53616c653a20756e737570706f72746564207061796d656e7420746f6b656e00604482015290519081900360640190fd5b60006000198214613239575060006126fa565b6007546000906132599085906001600160a01b031663ffffffff6134a516565b604086015160075460a088015192935060009261328092916001600160a01b031690611e69565b905060006132b787608001516132ab84611fdd670de0b6b3a7640000886126a190919063ffffffff16565b9063ffffffff6126a116565b604080516002808252606082018352929350919060208301908036833750505060e0880181905280518691906000906132ec57fe5b6020026020010181815250508160001b8760e0015160018151811061330d57fe5b602090810291909101015260c08701525060019150509392505050565b60008281526001840160205260408120548061338f5750506040805180820182528381526020808201848152865460018181018955600089815284812095516002909302909501918255915190820155865486845281880190925292909120556126fa565b828560000160018303815481106133a257fe5b90600052602060002090600202016001018190555060009150506126fa565b6000818361344d5760405162461bcd60e51b81526004018080602001828103825283818151815260200191508051906020019080838360005b838110156134125781810151838201526020016133fa565b50505050905090810190601f16801561343f5780820380516001836020036101000a031916815260200191505b509250505060405180910390fd5b50600083858161345957fe5b0495945050505050565b60006126fa83836040518060400160405280601e81526020017f536166654d6174683a207375627472616374696f6e206f766572666c6f770000815250613535565b600081815260018301602052604081205480613508576040805162461bcd60e51b815260206004820152601860248201527f456e756d4d61703a206e6f6e6578697374656e74206b65790000000000000000604482015290519081900360640190fd5b83600001600182038154811061351a57fe5b90600052602060002090600202016001015491505092915050565b600081848411156135875760405162461bcd60e51b81526020600482018181528351602484015283519092839260449091019190850190808383600083156134125781810151838201526020016133fa565b505050900390565b60405180610140016040528060006001600160a01b0316815260200160006001600160a01b0316815260200160006001600160a01b03168152602001600080191681526020016000815260200160608152602001600081526020016060815260200160608152602001606081525090565b6040518060a0016040528060008152602001600081526020016000815260200160006001600160a01b0316815260200161363861363d565b905290565b604051806020016040528060608152509056fe4f776e61626c653a206e6577206f776e657220697320746865207a65726f2061646472657373536166654d6174683a206d756c7469706c69636174696f6e206f766572666c6f7753616c653a20746f6b656e732f707269636573206c656e67746873206d69736d61746368556e69737761705632416461707465723a204944454e544943414c5f41444452455353455353616c653a2077726f6e672072656365697665722072657475726e2076616c75654f7261636c6553616c653a206d697373696e67207265666572656e636520746f6b656ea2646970667358221220b74ba61c8f99ac4c6970c7354b01b5957ae9c9f61320d0dfa57038ad5d057dd464736f6c63430006080033abb92614f53337043b55dc996a83ebb09adce78ec336ca188ea02180b61d1c14",
  "linkReferences": {},
  "deployedLinkReferences": {}
}