{
  "_format": "hh-sol-artifact-1",
  "contractName": "OracleSaleMock",
  "sourceName": "contracts/mocks/sale/abstract/OracleSaleMock.sol",
  "abi": [
    {
      "inputs": [
        {
          "internalType": "address",
          "name": "payoutWallet_",
          "type": "address"
        },
        {
          "internalType": "uint256",
          "name": "skusCapacity",
          "type": "uint256"
        },
        {
          "internalType": "uint256",
          "name": "tokensPerSkuCapacity",
          "type": "uint256"
        },
        {
          "internalType": "address",
          "name": "referenceToken",
          "type": "address"
        }
      ],
      "stateMutability": "nonpayable",
      "type": "constructor"
    },
    {
      "anonymous": false,
      "inputs": [
        {
          "indexed": false,
          "internalType": "bytes32[]",
          "name": "names",
          "type": "bytes32[]"
        },
        {
          "indexed": false,
          "internalType": "bytes32[]",
          "name": "values",
          "type": "bytes32[]"
        }
      ],
      "name": "MagicValues",
      "type": "event"
    },
    {
      "anonymous": false,
      "inputs": [
        {
          "indexed": true,
          "internalType": "address",
          "name": "previousOwner",
          "type": "address"
        },
        {
          "indexed": true,
          "internalType": "address",
          "name": "newOwner",
          "type": "address"
        }
      ],
      "name": "OwnershipTransferred",
      "type": "event"
    },
    {
      "anonymous": false,
      "inputs": [
        {
          "indexed": false,
          "internalType": "address",
          "name": "account",
          "type": "address"
        }
      ],
      "name": "Paused",
      "type": "event"
    },
    {
      "anonymous": false,
      "inputs": [
        {
          "indexed": false,
          "internalType": "address",
          "name": "payoutWallet_",
          "type": "address"
        }
      ],
      "name": "PayoutWalletSet",
      "type": "event"
    },
    {
      "anonymous": false,
      "inputs": [
        {
          "indexed": true,
          "internalType": "address",
          "name": "purchaser",
          "type": "address"
        },
        {
          "indexed": false,
          "internalType": "address",
          "name": "recipient",
          "type": "address"
        },
        {
          "indexed": true,
          "internalType": "address",
          "name": "token",
          "type": "address"
        },
        {
          "indexed": true,
          "internalType": "bytes32",
          "name": "sku",
          "type": "bytes32"
        },
        {
          "indexed": false,
          "internalType": "uint256",
          "name": "quantity",
          "type": "uint256"
        },
        {
          "indexed": false,
          "internalType": "bytes",
          "name": "userData",
          "type": "bytes"
        },
        {
          "indexed": false,
          "internalType": "uint256",
          "name": "totalPrice",
          "type": "uint256"
        },
        {
          "indexed": false,
          "internalType": "bytes",
          "name": "extData",
          "type": "bytes"
        }
      ],
      "name": "Purchase",
      "type": "event"
    },
    {
      "anonymous": false,
      "inputs": [
        {
          "indexed": false,
          "internalType": "bytes32",
          "name": "sku",
          "type": "bytes32"
        },
        {
          "indexed": false,
          "internalType": "uint256",
          "name": "totalSupply",
          "type": "uint256"
        },
        {
          "indexed": false,
          "internalType": "uint256",
          "name": "maxQuantityPerPurchase",
          "type": "uint256"
        },
        {
          "indexed": false,
          "internalType": "address",
          "name": "notificationsReceiver",
          "type": "address"
        }
      ],
      "name": "SkuCreation",
      "type": "event"
    },
    {
      "anonymous": false,
      "inputs": [
        {
          "indexed": true,
          "internalType": "bytes32",
          "name": "sku",
          "type": "bytes32"
        },
        {
          "indexed": false,
          "internalType": "address[]",
          "name": "tokens",
          "type": "address[]"
        },
        {
          "indexed": false,
          "internalType": "uint256[]",
          "name": "prices",
          "type": "uint256[]"
        }
      ],
      "name": "SkuPricingUpdate",
      "type": "event"
    },
    {
      "anonymous": false,
      "inputs": [
        {
          "indexed": false,
          "internalType": "address",
          "name": "account",
          "type": "address"
        }
      ],
      "name": "Started",
      "type": "event"
    },
    {
      "anonymous": false,
      "inputs": [
        {
          "indexed": false,
          "internalType": "bool",
          "name": "handled",
          "type": "bool"
        },
        {
          "indexed": false,
          "internalType": "bytes32[]",
          "name": "pricingData",
          "type": "bytes32[]"
        },
        {
          "indexed": false,
          "internalType": "uint256",
          "name": "totalPrice",
          "type": "uint256"
        }
      ],
      "name": "UnderscoreOraclePricingResult",
      "type": "event"
    },
    {
      "anonymous": false,
      "inputs": [
        {
          "indexed": false,
          "internalType": "address",
          "name": "account",
          "type": "address"
        }
      ],
      "name": "Unpaused",
      "type": "event"
    },
    {
      "inputs": [],
      "name": "PRICE_CONVERT_VIA_ORACLE",
      "outputs": [
        {
          "internalType": "uint256",
          "name": "",
          "type": "uint256"
        }
      ],
      "stateMutability": "view",
      "type": "function"
    },
    {
      "inputs": [],
      "name": "SUPPLY_UNLIMITED",
      "outputs": [
        {
          "internalType": "uint256",
          "name": "",
          "type": "uint256"
        }
      ],
      "stateMutability": "view",
      "type": "function"
    },
    {
      "inputs": [],
      "name": "TOKEN_ETH",
      "outputs": [
        {
          "internalType": "address",
          "name": "",
          "type": "address"
        }
      ],
      "stateMutability": "view",
      "type": "function"
    },
    {
      "inputs": [
        {
          "internalType": "address payable",
          "name": "recipient",
          "type": "address"
        },
        {
          "internalType": "address",
          "name": "token",
          "type": "address"
        },
        {
          "internalType": "bytes32",
          "name": "sku",
          "type": "bytes32"
        },
        {
          "internalType": "uint256",
          "name": "quantity",
          "type": "uint256"
        },
        {
          "internalType": "bytes",
          "name": "userData",
          "type": "bytes"
        }
      ],
      "name": "callUnderscoreOraclePricing",
      "outputs": [],
      "stateMutability": "nonpayable",
      "type": "function"
    },
    {
      "inputs": [
        {
          "internalType": "bytes32",
          "name": "sku",
          "type": "bytes32"
        },
        {
          "internalType": "address[]",
          "name": "tokens",
          "type": "address[]"
        },
        {
          "internalType": "uint256[]",
          "name": "prices",
          "type": "uint256[]"
        }
      ],
      "name": "callUnderscoreSetTokenPrices",
      "outputs": [],
      "stateMutability": "nonpayable",
      "type": "function"
    },
    {
      "inputs": [
        {
          "internalType": "address[]",
          "name": "tokens",
          "type": "address[]"
        },
        {
          "internalType": "bytes",
          "name": "data",
          "type": "bytes"
        }
      ],
      "name": "conversionRates",
      "outputs": [
        {
          "internalType": "uint256[]",
          "name": "rates",
          "type": "uint256[]"
        }
      ],
      "stateMutability": "view",
      "type": "function"
    },
    {
      "inputs": [
        {
          "internalType": "bytes32",
          "name": "sku",
          "type": "bytes32"
        },
        {
          "internalType": "uint256",
          "name": "totalSupply",
          "type": "uint256"
        },
        {
          "internalType": "uint256",
          "name": "maxQuantityPerPurchase",
          "type": "uint256"
        },
        {
          "internalType": "address",
          "name": "notificationsReceiver",
          "type": "address"
        }
      ],
      "name": "createSku",
      "outputs": [],
      "stateMutability": "nonpayable",
      "type": "function"
    },
    {
      "inputs": [
        {
          "internalType": "address payable",
          "name": "recipient",
          "type": "address"
        },
        {
          "internalType": "address",
          "name": "token",
          "type": "address"
        },
        {
          "internalType": "bytes32",
          "name": "sku",
          "type": "bytes32"
        },
        {
          "internalType": "uint256",
          "name": "quantity",
          "type": "uint256"
        },
        {
          "internalType": "bytes",
          "name": "userData",
          "type": "bytes"
        }
      ],
      "name": "estimatePurchase",
      "outputs": [
        {
          "internalType": "uint256",
          "name": "totalPrice",
          "type": "uint256"
        },
        {
          "internalType": "bytes32[]",
          "name": "pricingData",
          "type": "bytes32[]"
        }
      ],
      "stateMutability": "view",
      "type": "function"
    },
    {
      "inputs": [
        {
          "internalType": "bytes32",
          "name": "sku",
          "type": "bytes32"
        }
      ],
      "name": "getSkuInfo",
      "outputs": [
        {
          "internalType": "uint256",
          "name": "totalSupply",
          "type": "uint256"
        },
        {
          "internalType": "uint256",
          "name": "remainingSupply",
          "type": "uint256"
        },
        {
          "internalType": "uint256",
          "name": "maxQuantityPerPurchase",
          "type": "uint256"
        },
        {
          "internalType": "address",
          "name": "notificationsReceiver",
          "type": "address"
        },
        {
          "internalType": "address[]",
          "name": "tokens",
          "type": "address[]"
        },
        {
          "internalType": "uint256[]",
          "name": "prices",
          "type": "uint256[]"
        }
      ],
      "stateMutability": "view",
      "type": "function"
    },
    {
      "inputs": [],
      "name": "getSkus",
      "outputs": [
        {
          "internalType": "bytes32[]",
          "name": "skus",
          "type": "bytes32[]"
        }
      ],
      "stateMutability": "view",
      "type": "function"
    },
    {
      "inputs": [
        {
          "internalType": "address",
          "name": "",
          "type": "address"
        },
        {
          "internalType": "address",
          "name": "",
          "type": "address"
        }
      ],
      "name": "mockConversionRates",
      "outputs": [
        {
          "internalType": "uint256",
          "name": "",
          "type": "uint256"
        }
      ],
      "stateMutability": "view",
      "type": "function"
    },
    {
      "inputs": [],
      "name": "owner",
      "outputs": [
        {
          "internalType": "address",
          "name": "",
          "type": "address"
        }
      ],
      "stateMutability": "view",
      "type": "function"
    },
    {
      "inputs": [],
      "name": "pause",
      "outputs": [],
      "stateMutability": "nonpayable",
      "type": "function"
    },
    {
      "inputs": [],
      "name": "paused",
      "outputs": [
        {
          "internalType": "bool",
          "name": "",
          "type": "bool"
        }
      ],
      "stateMutability": "view",
      "type": "function"
    },
    {
      "inputs": [],
      "name": "payoutWallet",
      "outputs": [
        {
          "internalType": "address payable",
          "name": "",
          "type": "address"
        }
      ],
      "stateMutability": "view",
      "type": "function"
    },
    {
      "inputs": [
        {
          "internalType": "address payable",
          "name": "recipient",
          "type": "address"
        },
        {
          "internalType": "address",
          "name": "token",
          "type": "address"
        },
        {
          "internalType": "bytes32",
          "name": "sku",
          "type": "bytes32"
        },
        {
          "internalType": "uint256",
          "name": "quantity",
          "type": "uint256"
        },
        {
          "internalType": "bytes",
          "name": "userData",
          "type": "bytes"
        }
      ],
      "name": "purchaseFor",
      "outputs": [],
      "stateMutability": "payable",
      "type": "function"
    },
    {
      "inputs": [],
      "name": "referenceToken",
      "outputs": [
        {
          "internalType": "address",
          "name": "",
          "type": "address"
        }
      ],
      "stateMutability": "view",
      "type": "function"
    },
    {
      "inputs": [],
      "name": "renounceOwnership",
      "outputs": [],
      "stateMutability": "nonpayable",
      "type": "function"
    },
    {
      "inputs": [
        {
          "internalType": "address",
          "name": "fromToken",
          "type": "address"
        },
        {
          "internalType": "address",
          "name": "toToken",
          "type": "address"
        },
        {
          "internalType": "uint256",
          "name": "rate",
          "type": "uint256"
        }
      ],
      "name": "setMockConversionRate",
      "outputs": [],
      "stateMutability": "nonpayable",
      "type": "function"
    },
    {
      "inputs": [
        {
          "internalType": "address",
          "name": "payoutWallet_",
          "type": "address"
        }
      ],
      "name": "setPayoutWallet",
      "outputs": [],
      "stateMutability": "nonpayable",
      "type": "function"
    },
    {
      "inputs": [],
      "name": "start",
      "outputs": [],
      "stateMutability": "nonpayable",
      "type": "function"
    },
    {
      "inputs": [],
      "name": "startedAt",
      "outputs": [
        {
          "internalType": "uint256",
          "name": "",
          "type": "uint256"
        }
      ],
      "stateMutability": "view",
      "type": "function"
    },
    {
      "inputs": [
        {
          "internalType": "address",
          "name": "newOwner",
          "type": "address"
        }
      ],
      "name": "transferOwnership",
      "outputs": [],
      "stateMutability": "nonpayable",
      "type": "function"
    },
    {
      "inputs": [],
      "name": "unpause",
      "outputs": [],
      "stateMutability": "nonpayable",
      "type": "function"
    },
    {
      "inputs": [
        {
          "internalType": "bytes32",
          "name": "sku",
          "type": "bytes32"
        },
        {
          "internalType": "address[]",
          "name": "tokens",
          "type": "address[]"
        },
        {
          "internalType": "uint256[]",
          "name": "prices",
          "type": "uint256[]"
        }
      ],
      "name": "updateSkuPricing",
      "outputs": [],
      "stateMutability": "nonpayable",
      "type": "function"
    }
  ],
  "bytecode": "0x60c06040523480156200001157600080fd5b5060405162003ba138038062003ba1833981810160405260808110156200003757600080fd5b5080516020820151604083015160609093015191929091838383838383838282828260006200006e6001600160e01b036200042a16565b600080546001600160a01b0319166001600160a01b0383169081178255604051929350917f8be0079c531659141344cd1fd0a4f28419497f9722a3daafe3b4186f6b6457e0908290a350620000cc816001600160e01b036200042e16565b506003805460ff19169055608082905260a081905260408051600280825260608083018452926020830190803683375050604080516002808252606080830184529495509092509060208301908036833750508351919250680a89e968a9cbe8aa8960bb1b9173eeeeeeeeeeeeeeeeeeeeeeeeeeeeeeeeeeeeeeee915084906000906200015557fe5b60200260200101836000815181106200016a57fe5b602002602001018281525082815250505060001960001b6f14d55414131657d5539312535255115160821b9083600181518110620001a457fe5b6020026020010183600181518110620001b957fe5b602002602001018281525082815250505060008051602062003b818339815191528282604051808060200180602001838103835285818151815260200191508051906020019060200280838360005b838110156200022257818101518382015260200162000208565b50505050905001838103825284818151815260200191508051906020019060200280838360005b838110156200026357818101518382015260200162000249565b5050505090500194505050505060405180910390a16200028b6001600160e01b036200061d16565b5050600780546001600160a01b0319166001600160a01b03891617905550606094506001935060009250620002be915050565b50604051908082528060200260200182016040528015620002e9578160200160208202803683370190505b50604080516001808252818301909252919250606091906020808301908036833701905050905060001960001b7f50524943455f434f4e564552545f5649415f4f5241434c45000000000000000090836000815181106200034657fe5b60200260200101836000815181106200035b57fe5b602002602001018281525082815250505060008051602062003b818339815191528282604051808060200180602001838103835285818151815260200191508051906020019060200280838360005b83811015620003c4578181015183820152602001620003aa565b50505050905001838103825284818151815260200191508051906020019060200280838360005b8381101562000405578181015183820152602001620003eb565b5050505090500194505050505060405180910390a150505050505050505050620006c7565b3390565b620004416001600160e01b036200042a16565b6000546001600160a01b03908116911614620004a4576040805162461bcd60e51b815260206004820181905260248201527f4f776e61626c653a2063616c6c6572206973206e6f7420746865206f776e6572604482015290519081900360640190fd5b6001600160a01b03811662000500576040805162461bcd60e51b815260206004820152601460248201527f5061796f75743a207a65726f2061646472657373000000000000000000000000604482015290519081900360640190fd5b6001600160a01b0381163014156200055f576040805162461bcd60e51b815260206004820152601f60248201527f5061796f75743a207468697320636f6e7472616374206173207061796f757400604482015290519081900360640190fd5b6001546001600160a01b0382811691161415620005c3576040805162461bcd60e51b815260206004820152601a60248201527f5061796f75743a2073616d65207061796f75742077616c6c6574000000000000604482015290519081900360640190fd5b600180546001600160a01b0319166001600160a01b03838116919091179182905560408051929091168252517fdd880d24a789958a6398c99c2e54ce31bc10a638cbc42f7dd34285479ae0f855916020908290030190a150565b60035460ff161562000669576040805162461bcd60e51b815260206004820152601060248201526f14185d5cd8589b194e881c185d5cd95960821b604482015290519081900360640190fd5b6003805460ff191660011790557f62e78cea01bee320cd4e420270b5ea74000d11b0c9f74754ebdbfc544b05a258620006aa6001600160e01b036200042a16565b604080516001600160a01b039092168252519081900360200190a1565b60805160a051613496620006eb60003980612706525080611b5852506134966000f3fe6080604052600436106101965760003560e01c80638488bb4e116100e1578063b3150ef01161008a578063d2da153911610064578063d2da153914610993578063de965215146109ce578063f21f537d14610a11578063f2fde38b14610a2657610196565b8063b3150ef0146107d9578063be9a6555146108af578063c7b778db146108c457610196565b80639e049545116100bb5780639e0495451461067b578063a0cf0735146106a2578063a963b2571461074457610196565b80638488bb4e146106515780638da5cb5b146106665780639865bcc81461067b57610196565b80635c975abb116101435780636b8f9c431161011d5780636b8f9c43146105f4578063715018a6146106275780638456cb591461063c57610196565b80635c975abb1461042b5780635e6e9f701461045457806361bd38511461058f57610196565b80632c87927b116101745780632c87927b146103ba5780633f4ba83a146104015780635c4fafc71461041657610196565b80631265b6511461019b5780631323b066146101cc5780632a8a45bc146102c9575b600080fd5b3480156101a757600080fd5b506101b0610a59565b604080516001600160a01b039092168252519081900360200190f35b3480156101d857600080fd5b5061026e600480360360a08110156101ef57600080fd5b6001600160a01b03823581169260208101359091169160408201359160608101359181019060a08101608082013564010000000081111561022f57600080fd5b82018360208201111561024157600080fd5b8035906020019184600183028401116401000000008311171561026357600080fd5b509092509050610a68565b6040518083815260200180602001828103825283818151815260200191508051906020019060200280838360005b838110156102b457818101518382015260200161029c565b50505050905001935050505060405180910390f35b3480156102d557600080fd5b506102f3600480360360208110156102ec57600080fd5b5035610bad565b60405180878152602001868152602001858152602001846001600160a01b03166001600160a01b031681526020018060200180602001838103835285818151815260200191508051906020019060200280838360005b83811015610361578181015183820152602001610349565b50505050905001838103825284818151815260200191508051906020019060200280838360005b838110156103a0578181015183820152602001610388565b505050509050019850505050505050505060405180910390f35b3480156103c657600080fd5b506103ff600480360360808110156103dd57600080fd5b50803590602081013590604081013590606001356001600160a01b0316610d58565b005b34801561040d57600080fd5b506103ff610d6a565b34801561042257600080fd5b506101b0610e32565b34801561043757600080fd5b50610440610e4a565b604080519115158252519081900360200190f35b34801561046057600080fd5b506103ff6004803603606081101561047757600080fd5b8135919081019060408101602082013564010000000081111561049957600080fd5b8201836020820111156104ab57600080fd5b803590602001918460208302840111640100000000831117156104cd57600080fd5b919080806020026020016040519081016040528093929190818152602001838360200280828437600092019190915250929594936020810193503591505064010000000081111561051d57600080fd5b82018360208201111561052f57600080fd5b8035906020019184602083028401116401000000008311171561055157600080fd5b919080806020026020016040519081016040528093929190818152602001838360200280828437600092019190915250929550610e53945050505050565b34801561059b57600080fd5b506105a4611085565b60408051602080825283518183015283519192839290830191858101910280838360005b838110156105e05781810151838201526020016105c8565b505050509050019250505060405180910390f35b34801561060057600080fd5b506103ff6004803603602081101561061757600080fd5b50356001600160a01b03166110e0565b34801561063357600080fd5b506103ff6112cd565b34801561064857600080fd5b506103ff61138e565b34801561065d57600080fd5b506101b0611454565b34801561067257600080fd5b506101b0611463565b34801561068757600080fd5b50610690611472565b60408051918252519081900360200190f35b3480156106ae57600080fd5b506103ff600480360360a08110156106c557600080fd5b6001600160a01b03823581169260208101359091169160408201359160608101359181019060a08101608082013564010000000081111561070557600080fd5b82018360208201111561071757600080fd5b8035906020019184600183028401116401000000008311171561073957600080fd5b509092509050611478565b6103ff600480360360a081101561075a57600080fd5b6001600160a01b03823581169260208101359091169160408201359160608101359181019060a08101608082013564010000000081111561079a57600080fd5b8201836020820111156107ac57600080fd5b803590602001918460018302840111640100000000831117156107ce57600080fd5b5090925090506115bd565b3480156107e557600080fd5b506103ff600480360360608110156107fc57600080fd5b8135919081019060408101602082013564010000000081111561081e57600080fd5b82018360208201111561083057600080fd5b8035906020019184602083028401116401000000008311171561085257600080fd5b91939092909160208101903564010000000081111561087057600080fd5b82018360208201111561088257600080fd5b803590602001918460208302840111640100000000831117156108a457600080fd5b5090925090506116f3565b3480156108bb57600080fd5b506103ff611780565b3480156108d057600080fd5b506105a4600480360360408110156108e757600080fd5b81019060208101813564010000000081111561090257600080fd5b82018360208201111561091457600080fd5b8035906020019184602083028401116401000000008311171561093657600080fd5b91939092909160208101903564010000000081111561095457600080fd5b82018360208201111561096657600080fd5b8035906020019184600183028401116401000000008311171561098857600080fd5b5090925090506117f2565b34801561099f57600080fd5b50610690600480360360408110156109b657600080fd5b506001600160a01b03813581169160200135166118de565b3480156109da57600080fd5b506103ff600480360360608110156109f157600080fd5b506001600160a01b038135811691602081013590911690604001356118fb565b348015610a1d57600080fd5b50610690611927565b348015610a3257600080fd5b506103ff60048036036020811015610a4957600080fd5b50356001600160a01b031661192d565b6007546001600160a01b031681565b6000606060025460001415610ac4576040805162461bcd60e51b815260206004820152601660248201527f537461727461626c653a206e6f74207374617274656400000000000000000000604482015290519081900360640190fd5b60035460ff1615610b1c576040805162461bcd60e51b815260206004820152601060248201527f5061757361626c653a2070617573656400000000000000000000000000000000604482015290519081900360640190fd5b610b246132c7565b610b2c611a44565b6001600160a01b03908116825289811660208084019190915290891660408084019190915260608301899052608083018890528051601f870183900483028101830190915285815290869086908190840183828082843760009201919091525050505060a0820152610b9d81611a48565b9250925050965096945050505050565b6000818152600660205260408120819081908190606090819083610bd360048301611a6f565b82549850905087610c2b576040805162461bcd60e51b815260206004820152601660248201527f53616c653a206e6f6e2d6578697374656e7420736b7500000000000000000000604482015290519081900360640190fd5b60018201546002830154600384015491985096506001600160a01b031694508067ffffffffffffffff81118015610c6157600080fd5b50604051908082528060200260200182016040528015610c8b578160200160208202803683370190505b5093508067ffffffffffffffff81118015610ca557600080fd5b50604051908082528060200260200182016040528015610ccf578160200160208202803683370190505b50925060005b81811015610d4c57600080610cf3600486018463ffffffff611a7316565b915091508160001c878481518110610d0757fe5b60200260200101906001600160a01b031690816001600160a01b0316815250508060001c868481518110610d3757fe5b60209081029190910101525050600101610cd5565b50505091939550919395565b610d6484848484611b04565b50505050565b610d72611a44565b6000546001600160a01b03908116911614610dd4576040805162461bcd60e51b815260206004820181905260248201527f4f776e61626c653a2063616c6c6572206973206e6f7420746865206f776e6572604482015290519081900360640190fd5b600254610e28576040805162461bcd60e51b815260206004820152601660248201527f537461727461626c653a206e6f74207374617274656400000000000000000000604482015290519081900360640190fd5b610e30611d41565b565b73eeeeeeeeeeeeeeeeeeeeeeeeeeeeeeeeeeeeeeee81565b60035460ff1690565b610e5b611a44565b6000546001600160a01b03908116911614610ebd576040805162461bcd60e51b815260206004820181905260248201527f4f776e61626c653a2063616c6c6572206973206e6f7420746865206f776e6572604482015290519081900360640190fd5b815181518114610efe5760405162461bcd60e51b81526004018080602001828103825260248152602001806133f96024913960400191505060405180910390fd5b60008481526006602052604090208054610f5f576040805162461bcd60e51b815260206004820152601660248201527f53616c653a206e6f6e2d6578697374656e7420736b7500000000000000000000604482015290519081900360640190fd5b6004810182610fb6576000610f7382611a6f565b905060005b81811015610faf576000610f92848263ffffffff611a7316565b509050610fa5848263ffffffff611de816565b5050600101610f78565b5050610fc1565b610fc1818686611ec8565b857fcb3fe5489e0cd43d0f4a33d1e09a4a0463a03d0d38f56165530854e5540db1438686604051808060200180602001838103835285818151815260200191508051906020019060200280838360005b83811015611029578181015183820152602001611011565b50505050905001838103825284818151815260200191508051906020019060200280838360005b83811015611068578181015183820152602001611050565b5050505090500194505050505060405180910390a2505050505050565b606060046000018054806020026020016040519081016040528092919081815260200182805480156110d657602002820191906000526020600020905b8154815260200190600101908083116110c2575b5050505050905090565b6110e8611a44565b6000546001600160a01b0390811691161461114a576040805162461bcd60e51b815260206004820181905260248201527f4f776e61626c653a2063616c6c6572206973206e6f7420746865206f776e6572604482015290519081900360640190fd5b6001600160a01b0381166111a5576040805162461bcd60e51b815260206004820152601460248201527f5061796f75743a207a65726f2061646472657373000000000000000000000000604482015290519081900360640190fd5b6001600160a01b038116301415611203576040805162461bcd60e51b815260206004820152601f60248201527f5061796f75743a207468697320636f6e7472616374206173207061796f757400604482015290519081900360640190fd5b6001546001600160a01b0382811691161415611266576040805162461bcd60e51b815260206004820152601a60248201527f5061796f75743a2073616d65207061796f75742077616c6c6574000000000000604482015290519081900360640190fd5b6001805473ffffffffffffffffffffffffffffffffffffffff19166001600160a01b03838116919091179182905560408051929091168252517fdd880d24a789958a6398c99c2e54ce31bc10a638cbc42f7dd34285479ae0f855916020908290030190a150565b6112d5611a44565b6000546001600160a01b03908116911614611337576040805162461bcd60e51b815260206004820181905260248201527f4f776e61626c653a2063616c6c6572206973206e6f7420746865206f776e6572604482015290519081900360640190fd5b600080546040516001600160a01b03909116907f8be0079c531659141344cd1fd0a4f28419497f9722a3daafe3b4186f6b6457e0908390a36000805473ffffffffffffffffffffffffffffffffffffffff19169055565b611396611a44565b6000546001600160a01b039081169116146113f8576040805162461bcd60e51b815260206004820181905260248201527f4f776e61626c653a2063616c6c6572206973206e6f7420746865206f776e6572604482015290519081900360640190fd5b60025461144c576040805162461bcd60e51b815260206004820152601660248201527f537461727461626c653a206e6f74207374617274656400000000000000000000604482015290519081900360640190fd5b610e30611f40565b6001546001600160a01b031681565b6000546001600160a01b031690565b60001981565b6114806132c7565b611488611a44565b6001600160a01b03908116825287811660208084019190915290871660408084019190915260608301879052608083018690528051601f8501839004830281018301909152838152908490849081908401838280828437600092018290525060a086019490945250505085815260066020526040812090600482019061150e8483611fce565b9050600061151d858484612044565b90507fef3c1fcb3e366e2dc0d5fcc64ae0ae590fb62d4338c60a102f4f8136c06d4424818660e001518760c00151604051808415151515815260200180602001838152602001828103825284818151815260200191508051906020019060200280838360005b8381101561159b578181015183820152602001611583565b5050505090500194505050505060405180910390a15050505050505050505050565b600254611611576040805162461bcd60e51b815260206004820152601660248201527f537461727461626c653a206e6f74207374617274656400000000000000000000604482015290519081900360640190fd5b60035460ff1615611669576040805162461bcd60e51b815260206004820152601060248201527f5061757361626c653a2070617573656400000000000000000000000000000000604482015290519081900360640190fd5b6116716132c7565b611679611a44565b6001600160a01b03908116825287811660208084019190915290871660408084019190915260608301879052608083018690528051601f850183900483028101830190915283815290849084908190840183828082843760009201919091525050505060a08201526116ea81612155565b50505050505050565b600060066000878152602001908152602001600020905060008160040190506116ea8187878080602002602001604051908101604052809392919081815260200183836020028082843760009201919091525050604080516020808b0282810182019093528a82529093508a925089918291850190849080828437600092019190915250611ec892505050565b611788611a44565b6000546001600160a01b039081169116146117ea576040805162461bcd60e51b815260206004820181905260248201527f4f776e61626c653a2063616c6c6572206973206e6f7420746865206f776e6572604482015290519081900360640190fd5b610e28612185565b6060838067ffffffffffffffff8111801561180c57600080fd5b50604051908082528060200260200182016040528015611836578160200160208202803683370190505b50915060005b818110156118d4576118b587878381811061185357fe5b905060200201356001600160a01b0316600760009054906101000a90046001600160a01b031687878080601f01602080910402602001604051908101604052809392919081815260200183838082843760009201919091525061220792505050565b8382815181106118c157fe5b602090810291909101015260010161183c565b5050949350505050565b600860209081526000928352604080842090915290825290205481565b6001600160a01b0392831660009081526008602090815260408083209490951682529290925291902055565b60025490565b611935611a44565b6000546001600160a01b03908116911614611997576040805162461bcd60e51b815260206004820181905260248201527f4f776e61626c653a2063616c6c6572206973206e6f7420746865206f776e6572604482015290519081900360640190fd5b6001600160a01b0381166119dc5760405162461bcd60e51b81526004018080602001828103825260268152602001806133b26026913960400191505060405180910390fd5b600080546040516001600160a01b03808516939216917f8be0079c531659141344cd1fd0a4f28419497f9722a3daafe3b4186f6b6457e091a36000805473ffffffffffffffffffffffffffffffffffffffff19166001600160a01b0392909216919091179055565b3390565b60006060611a5583612269565b611a5e83612519565b505060c081015160e0909101519091565b5490565b815460009081908310611acd576040805162461bcd60e51b815260206004820152601c60248201527f456e756d4d61703a20696e646578206f7574206f6620626f756e647300000000604482015290519081900360640190fd5b6000846000018481548110611ade57fe5b906000526020600020906002020190508060000154816001015492509250509250929050565b82611b56576040805162461bcd60e51b815260206004820152601160248201527f53616c653a207a65726f20737570706c79000000000000000000000000000000604482015290519081900360640190fd5b7f0000000000000000000000000000000000000000000000000000000000000000611b816004611a6f565b10611bd3576040805162461bcd60e51b815260206004820152601360248201527f53616c653a20746f6f206d616e7920736b757300000000000000000000000000604482015290519081900360640190fd5b611be460048563ffffffff6125c116565b611c35576040805162461bcd60e51b815260206004820152601960248201527f53616c653a20736b7520616c7265616479206372656174656400000000000000604482015290519081900360640190fd5b6001600160a01b03811615611ca757611c56816001600160a01b031661260b565b611ca7576040805162461bcd60e51b815260206004820181905260248201527f53616c653a207265636569766572206973206e6f74206120636f6e7472616374604482015290519081900360640190fd5b60008481526006602090815260409182902085815560018101869055600281018590556003810180546001600160a01b03861673ffffffffffffffffffffffffffffffffffffffff1990911681179091558351888152928301879052828401869052606083015291517f38bd4aabce684540cd61351b91f2f5facf9d6963934347e25aab93d87ae7ac149181900360800190a15050505050565b60035460ff16611d98576040805162461bcd60e51b815260206004820152601460248201527f5061757361626c653a206e6f7420706175736564000000000000000000000000604482015290519081900360640190fd5b6003805460ff191690557f5db9ee0a495bf2e6ff9c91a7834c1ba4fdd244a5e8aa4e537bd38aeae4b073aa611dcb611a44565b604080516001600160a01b039092168252519081900360200190a1565b60008181526001830160205260408120548015611ebc5783546000198083019190810190600090879083908110611e1b57fe5b9060005260206000209060020201905080876000018481548110611e3b57fe5b600091825260208083208454600290930201918255600193840154918401919091558354825289830190526040902090840190558654879080611e7a57fe5b6000828152602080822060026000199094019384020182815560019081018390559290935588815289820190925260408220919091559450611ec29350505050565b60009150505b92915050565b611ed3838383612611565b611edc83611a6f565b1580611f005750600754611f009084906001600160a01b031663ffffffff61278116565b611f3b5760405162461bcd60e51b815260040180806020018281038252602381526020018061343e6023913960400191505060405180910390fd5b505050565b60035460ff1615611f98576040805162461bcd60e51b815260206004820152601060248201527f5061757361626c653a2070617573656400000000000000000000000000000000604482015290519081900360640190fd5b6003805460ff191660011790557f62e78cea01bee320cd4e420270b5ea74000d11b0c9f74754ebdbfc544b05a258611dcb611a44565b6040820151600090611ff09083906001600160a01b031663ffffffff61279916565b905080611ec2576040805162461bcd60e51b815260206004820152601f60248201527f53616c653a20756e737570706f72746564207061796d656e7420746f6b656e00604482015290519081900360640190fd5b600060001982146120575750600061214e565b6007546000906120779085906001600160a01b031663ffffffff61279916565b604086015160075460a088015192935060009261209e92916001600160a01b031690612207565b905060006120e187608001516120d5846120c9670de0b6b3a76400008861282990919063ffffffff16565b9063ffffffff61288216565b9063ffffffff61282916565b604080516002808252606082018352929350919060208301908036833750505060e08801819052805186919060009061211657fe5b6020026020010181815250508160001b8760e0015160018151811061213757fe5b602090810291909101015260c08701525060019150505b9392505050565b61215e81612269565b61216781612519565b612170816128c4565b61217981612af4565b61218281612c04565b50565b600254156121da576040805162461bcd60e51b815260206004820152601260248201527f537461727461626c653a20737461727465640000000000000000000000000000604482015290519081900360640190fd5b426002557f27029695aa5f602a4ee81f4c32dfa86e562f200a17966496f3a7c3f2ec0f9417611dcb611a44565b6001600160a01b038084166000908152600860209081526040808320938616835292905220548061214e5760405162461bcd60e51b81526004018080602001828103825260298152602001806133896029913960400191505060405180910390fd5b60208101516001600160a01b03166122c8576040805162461bcd60e51b815260206004820152601c60248201527f53616c653a207a65726f206164647265737320726563697069656e7400000000604482015290519081900360640190fd5b60408101516001600160a01b0316612327576040805162461bcd60e51b815260206004820152601860248201527f53616c653a207a65726f206164647265737320746f6b656e0000000000000000604482015290519081900360640190fd5b608081015161237d576040805162461bcd60e51b815260206004820152601c60248201527f53616c653a207a65726f207175616e7469747920707572636861736500000000604482015290519081900360640190fd5b6060810151600090815260066020526040902080546123e3576040805162461bcd60e51b815260206004820152601660248201527f53616c653a206e6f6e2d6578697374656e7420736b7500000000000000000000604482015290519081900360640190fd5b816080015181600201541015612440576040805162461bcd60e51b815260206004820152601860248201527f53616c653a2061626f7665206d6178207175616e746974790000000000000000604482015290519081900360640190fd5b8054600019146124a7578160800151816001015410156124a7576040805162461bcd60e51b815260206004820152601960248201527f53616c653a20696e73756666696369656e7420737570706c7900000000000000604482015290519081900360640190fd5b60408201516001600160a01b03166124c8600483018263ffffffff61278116565b611f3b576040805162461bcd60e51b815260206004820152601c60248201527f53616c653a206e6f6e2d6578697374656e7420736b7520746f6b656e00000000604482015290519081900360640190fd5b60608101516000908152600660205260409020805461257f576040805162461bcd60e51b815260206004820152601560248201527f53616c653a20756e737570706f7274656420534b550000000000000000000000604482015290519081900360640190fd5b60048101600061258f8483611fce565b905061259c848383612044565b610d645760808401516125b690829063ffffffff61282916565b60c085015250505050565b60006125cd8383612781565b61260357508154600181810184556000848152602080822090930184905584548482528286019093526040902091909155611ec2565b506000611ec2565b3b151590565b60005b825181101561270357600083828151811061262b57fe5b6020026020010151905060006001600160a01b0316816001600160a01b0316141561269d576040805162461bcd60e51b815260206004820152601860248201527f53616c653a207a65726f206164647265737320746f6b656e0000000000000000604482015290519081900360640190fd5b60008383815181106126ab57fe5b6020026020010151905080600014156126dd576126d7866001600160a01b03841663ffffffff611de816565b506126f9565b6126f7866001600160a01b0384168363ffffffff6130f716565b505b5050600101612614565b507f000000000000000000000000000000000000000000000000000000000000000061272e84611a6f565b1115611f3b576040805162461bcd60e51b815260206004820152601560248201527f53616c653a20746f6f206d616e7920746f6b656e730000000000000000000000604482015290519081900360640190fd5b60009081526001919091016020526040902054151590565b6000818152600183016020526040812054806127fc576040805162461bcd60e51b815260206004820152601860248201527f456e756d4d61703a206e6f6e6578697374656e74206b65790000000000000000604482015290519081900360640190fd5b83600001600182038154811061280e57fe5b90600052602060002090600202016001015491505092915050565b60008261283857506000611ec2565b8282028284828161284557fe5b041461214e5760405162461bcd60e51b81526004018080602001828103825260218152602001806133d86021913960400191505060405180910390fd5b600061214e83836040518060400160405280601a81526020017f536166654d6174683a206469766973696f6e206279207a65726f00000000000081525061318e565b60408101516001600160a01b031673eeeeeeeeeeeeeeeeeeeeeeeeeeeeeeeeeeeeeeee14156129e7578060c00151341015612946576040805162461bcd60e51b815260206004820152601f60248201527f53616c653a20696e73756666696369656e74204554482070726f766964656400604482015290519081900360640190fd5b60015460c08201516040516001600160a01b039092169181156108fc0291906000818181858888f19350505050158015612984573d6000803e3d6000fd5b50600061299e8260c001513461323090919063ffffffff16565b905080156129e15781516040516001600160a01b039091169082156108fc029083906000818181858888f193505050501580156129df573d6000803e3d6000fd5b505b50612182565b80604001516001600160a01b03166323b872dd612a02611a44565b60015460c0850151604080517fffffffff0000000000000000000000000000000000000000000000000000000060e087901b1681526001600160a01b03948516600482015293909216602484015260448301525160648083019260209291908290030181600087803b158015612a7757600080fd5b505af1158015612a8b573d6000803e3d6000fd5b505050506040513d6020811015612aa157600080fd5b5051612182576040805162461bcd60e51b815260206004820152601a60248201527f53616c653a204552433230207061796d656e74206661696c6564000000000000604482015290519081900360640190fd5b612afc613338565b6060808301516000908152600660209081526040808320815160a0810183528154815260018201548185015260028201548184015260038201546001600160a01b031695810195909552815160048201805480860283018501855294820185815292956080880195929491938593909285929085015b82821015612bb857838290600052602060002090600202016040518060400160405290816000820154815260200160018201548152505081526020019060010190612b72565b50505091525050905250805190915060001914612c005760808201516020820151612be89163ffffffff61323016565b60608301516000908152600660205260409020600101555b5050565b806060015181604001516001600160a01b031682600001516001600160a01b03167f29f844483ca6b10b5c0611d039afc15ce8f6380e905307b381c3a8ee4e90e11e846020015185608001518660a001518760c001518860e001518961010001518a610120015160405160200180848051906020019060200280838360005b83811015612c9b578181015183820152602001612c83565b50505050905001838051906020019060200280838360005b83811015612ccb578181015183820152602001612cb3565b50505050905001828051906020019060200280838360005b83811015612cfb578181015183820152602001612ce3565b50505050905001935050505060405160208183030381529060405260405180866001600160a01b03166001600160a01b031681526020018581526020018060200184815260200180602001838103835286818151815260200191508051906020019080838360005b83811015612d7b578181015183820152602001612d63565b50505050905090810190601f168015612da85780820380516001836020036101000a031916815260200191505b50838103825284518152845160209182019186019080838360005b83811015612ddb578181015183820152602001612dc3565b50505050905090810190601f168015612e085780820380516001836020036101000a031916815260200191505b5097505050505050505060405180910390a460608101516000908152600660205260409020600301546001600160a01b03168015612c00576361eceae860e01b7bffffffffffffffffffffffffffffffffffffffffffffffffffffffff1916816001600160a01b03166361eceae8846000015185602001518660400151876060015188608001518960a001518a60c001518b60e001518c61010001518d61012001516040518b63ffffffff1660e01b8152600401808b6001600160a01b03166001600160a01b031681526020018a6001600160a01b03166001600160a01b03168152602001896001600160a01b03166001600160a01b031681526020018881526020018781526020018060200186815260200180602001806020018060200185810385528a818151815260200191508051906020019080838360005b83811015612f5c578181015183820152602001612f44565b50505050905090810190601f168015612f895780820380516001836020036101000a031916815260200191505b508581038452885181528851602091820191808b01910280838360005b83811015612fbe578181015183820152602001612fa6565b50505050905001858103835287818151815260200191508051906020019060200280838360005b83811015612ffd578181015183820152602001612fe5565b50505050905001858103825286818151815260200191508051906020019060200280838360005b8381101561303c578181015183820152602001613024565b505050509050019e505050505050505050505050505050602060405180830381600087803b15801561306d57600080fd5b505af1158015613081573d6000803e3d6000fd5b505050506040513d602081101561309757600080fd5b50517fffffffff000000000000000000000000000000000000000000000000000000001614612c005760405162461bcd60e51b815260040180806020018281038252602181526020018061341d6021913960400191505060405180910390fd5b60008281526001840160205260408120548061315c57505060408051808201825283815260208082018481528654600181810189556000898152848120955160029093029095019182559151908201558654868452818801909252929091205561214e565b8285600001600183038154811061316f57fe5b906000526020600020906002020160010181905550600091505061214e565b6000818361321a5760405162461bcd60e51b81526004018080602001828103825283818151815260200191508051906020019080838360005b838110156131df5781810151838201526020016131c7565b50505050905090810190601f16801561320c5780820380516001836020036101000a031916815260200191505b509250505060405180910390fd5b50600083858161322657fe5b0495945050505050565b600061214e83836040518060400160405280601e81526020017f536166654d6174683a207375627472616374696f6e206f766572666c6f770000815250600081848411156132bf5760405162461bcd60e51b81526020600482018181528351602484015283519092839260449091019190850190808383600083156131df5781810151838201526020016131c7565b505050900390565b60405180610140016040528060006001600160a01b0316815260200160006001600160a01b0316815260200160006001600160a01b03168152602001600080191681526020016000815260200160608152602001600081526020016060815260200160608152602001606081525090565b6040518060a0016040528060008152602001600081526020016000815260200160006001600160a01b03168152602001613370613375565b905290565b604051806020016040528060608152509056fe4f7261636c6553616c654d6f636b3a20756e646566696e656420636f6e76657273696f6e20726174654f776e61626c653a206e6577206f776e657220697320746865207a65726f2061646472657373536166654d6174683a206d756c7469706c69636174696f6e206f766572666c6f7753616c653a20746f6b656e732f707269636573206c656e67746873206d69736d6174636853616c653a2077726f6e672072656365697665722072657475726e2076616c75654f7261636c6553616c653a206d697373696e67207265666572656e636520746f6b656ea2646970667358221220927007e8c4e8688faf5c01336fd3f1ae48d8b4b8ada738649e2656d1444b679a64736f6c63430006080033abb92614f53337043b55dc996a83ebb09adce78ec336ca188ea02180b61d1c14",
  "linkReferences": {},
  "deployedLinkReferences": {}
}