{
  "_format": "hh-sol-artifact-1",
  "contractName": "SwapSaleMock",
  "sourceName": "contracts/mocks/sale/abstract/SwapSaleMock.sol",
  "abi": [
    {
      "inputs": [
        {
          "internalType": "address",
          "name": "payoutWallet_",
          "type": "address"
        },
        {
          "internalType": "uint256",
          "name": "skusCapacity",
          "type": "uint256"
        },
        {
          "internalType": "uint256",
          "name": "tokensPerSkuCapacity",
          "type": "uint256"
        },
        {
          "internalType": "address",
          "name": "referenceToken",
          "type": "address"
        }
      ],
      "stateMutability": "nonpayable",
      "type": "constructor"
    },
    {
      "anonymous": false,
      "inputs": [
        {
          "indexed": false,
          "internalType": "bytes32[]",
          "name": "names",
          "type": "bytes32[]"
        },
        {
          "indexed": false,
          "internalType": "bytes32[]",
          "name": "values",
          "type": "bytes32[]"
        }
      ],
      "name": "MagicValues",
      "type": "event"
    },
    {
      "anonymous": false,
      "inputs": [
        {
          "indexed": true,
          "internalType": "address",
          "name": "previousOwner",
          "type": "address"
        },
        {
          "indexed": true,
          "internalType": "address",
          "name": "newOwner",
          "type": "address"
        }
      ],
      "name": "OwnershipTransferred",
      "type": "event"
    },
    {
      "anonymous": false,
      "inputs": [
        {
          "indexed": false,
          "internalType": "address",
          "name": "account",
          "type": "address"
        }
      ],
      "name": "Paused",
      "type": "event"
    },
    {
      "anonymous": false,
      "inputs": [
        {
          "indexed": false,
          "internalType": "address",
          "name": "payoutWallet_",
          "type": "address"
        }
      ],
      "name": "PayoutWalletSet",
      "type": "event"
    },
    {
      "anonymous": false,
      "inputs": [
        {
          "indexed": true,
          "internalType": "address",
          "name": "purchaser",
          "type": "address"
        },
        {
          "indexed": false,
          "internalType": "address",
          "name": "recipient",
          "type": "address"
        },
        {
          "indexed": true,
          "internalType": "address",
          "name": "token",
          "type": "address"
        },
        {
          "indexed": true,
          "internalType": "bytes32",
          "name": "sku",
          "type": "bytes32"
        },
        {
          "indexed": false,
          "internalType": "uint256",
          "name": "quantity",
          "type": "uint256"
        },
        {
          "indexed": false,
          "internalType": "bytes",
          "name": "userData",
          "type": "bytes"
        },
        {
          "indexed": false,
          "internalType": "uint256",
          "name": "totalPrice",
          "type": "uint256"
        },
        {
          "indexed": false,
          "internalType": "bytes",
          "name": "extData",
          "type": "bytes"
        }
      ],
      "name": "Purchase",
      "type": "event"
    },
    {
      "anonymous": false,
      "inputs": [
        {
          "indexed": false,
          "internalType": "bytes32",
          "name": "sku",
          "type": "bytes32"
        },
        {
          "indexed": false,
          "internalType": "uint256",
          "name": "totalSupply",
          "type": "uint256"
        },
        {
          "indexed": false,
          "internalType": "uint256",
          "name": "maxQuantityPerPurchase",
          "type": "uint256"
        },
        {
          "indexed": false,
          "internalType": "address",
          "name": "notificationsReceiver",
          "type": "address"
        }
      ],
      "name": "SkuCreation",
      "type": "event"
    },
    {
      "anonymous": false,
      "inputs": [
        {
          "indexed": true,
          "internalType": "bytes32",
          "name": "sku",
          "type": "bytes32"
        },
        {
          "indexed": false,
          "internalType": "address[]",
          "name": "tokens",
          "type": "address[]"
        },
        {
          "indexed": false,
          "internalType": "uint256[]",
          "name": "prices",
          "type": "uint256[]"
        }
      ],
      "name": "SkuPricingUpdate",
      "type": "event"
    },
    {
      "anonymous": false,
      "inputs": [
        {
          "indexed": false,
          "internalType": "address",
          "name": "account",
          "type": "address"
        }
      ],
      "name": "Started",
      "type": "event"
    },
    {
      "anonymous": false,
      "inputs": [
        {
          "indexed": false,
          "internalType": "address",
          "name": "account",
          "type": "address"
        }
      ],
      "name": "Unpaused",
      "type": "event"
    },
    {
      "inputs": [],
      "name": "PRICE_CONVERT_VIA_ORACLE",
      "outputs": [
        {
          "internalType": "uint256",
          "name": "",
          "type": "uint256"
        }
      ],
      "stateMutability": "view",
      "type": "function"
    },
    {
      "inputs": [],
      "name": "PRICE_SWAP_VIA_ORACLE",
      "outputs": [
        {
          "internalType": "uint256",
          "name": "",
          "type": "uint256"
        }
      ],
      "stateMutability": "view",
      "type": "function"
    },
    {
      "inputs": [],
      "name": "SUPPLY_UNLIMITED",
      "outputs": [
        {
          "internalType": "uint256",
          "name": "",
          "type": "uint256"
        }
      ],
      "stateMutability": "view",
      "type": "function"
    },
    {
      "inputs": [],
      "name": "TOKEN_ETH",
      "outputs": [
        {
          "internalType": "address",
          "name": "",
          "type": "address"
        }
      ],
      "stateMutability": "view",
      "type": "function"
    },
    {
      "inputs": [
        {
          "internalType": "address payable",
          "name": "recipient",
          "type": "address"
        },
        {
          "internalType": "address",
          "name": "token",
          "type": "address"
        },
        {
          "internalType": "bytes32",
          "name": "sku",
          "type": "bytes32"
        },
        {
          "internalType": "uint256",
          "name": "quantity",
          "type": "uint256"
        },
        {
          "internalType": "bytes",
          "name": "userData",
          "type": "bytes"
        }
      ],
      "name": "callUnderscoreOraclePricing",
      "outputs": [
        {
          "internalType": "bool",
          "name": "handled",
          "type": "bool"
        },
        {
          "internalType": "uint256",
          "name": "totalPrice",
          "type": "uint256"
        },
        {
          "internalType": "bytes32[]",
          "name": "pricingData",
          "type": "bytes32[]"
        }
      ],
      "stateMutability": "view",
      "type": "function"
    },
    {
      "inputs": [
        {
          "internalType": "address payable",
          "name": "recipient",
          "type": "address"
        },
        {
          "internalType": "address",
          "name": "token",
          "type": "address"
        },
        {
          "internalType": "bytes32",
          "name": "sku",
          "type": "bytes32"
        },
        {
          "internalType": "uint256",
          "name": "quantity",
          "type": "uint256"
        },
        {
          "internalType": "bytes",
          "name": "userData",
          "type": "bytes"
        },
        {
          "internalType": "uint256",
          "name": "totalPrice",
          "type": "uint256"
        },
        {
          "internalType": "bytes32[]",
          "name": "pricingData",
          "type": "bytes32[]"
        }
      ],
      "name": "callUnderscorePayment",
      "outputs": [],
      "stateMutability": "payable",
      "type": "function"
    },
    {
      "inputs": [
        {
          "internalType": "address payable",
          "name": "recipient",
          "type": "address"
        },
        {
          "internalType": "address",
          "name": "token",
          "type": "address"
        },
        {
          "internalType": "bytes32",
          "name": "sku",
          "type": "bytes32"
        },
        {
          "internalType": "uint256",
          "name": "quantity",
          "type": "uint256"
        },
        {
          "internalType": "bytes",
          "name": "userData",
          "type": "bytes"
        }
      ],
      "name": "callUnderscorePricing",
      "outputs": [
        {
          "internalType": "uint256",
          "name": "totalPrice",
          "type": "uint256"
        },
        {
          "internalType": "bytes32[]",
          "name": "pricingData",
          "type": "bytes32[]"
        }
      ],
      "stateMutability": "view",
      "type": "function"
    },
    {
      "inputs": [
        {
          "internalType": "address[]",
          "name": "tokens",
          "type": "address[]"
        },
        {
          "internalType": "bytes",
          "name": "data",
          "type": "bytes"
        }
      ],
      "name": "conversionRates",
      "outputs": [
        {
          "internalType": "uint256[]",
          "name": "rates",
          "type": "uint256[]"
        }
      ],
      "stateMutability": "view",
      "type": "function"
    },
    {
      "inputs": [
        {
          "internalType": "bytes32",
          "name": "sku",
          "type": "bytes32"
        },
        {
          "internalType": "uint256",
          "name": "totalSupply",
          "type": "uint256"
        },
        {
          "internalType": "uint256",
          "name": "maxQuantityPerPurchase",
          "type": "uint256"
        },
        {
          "internalType": "address",
          "name": "notificationsReceiver",
          "type": "address"
        }
      ],
      "name": "createSku",
      "outputs": [],
      "stateMutability": "nonpayable",
      "type": "function"
    },
    {
      "inputs": [
        {
          "internalType": "address payable",
          "name": "recipient",
          "type": "address"
        },
        {
          "internalType": "address",
          "name": "token",
          "type": "address"
        },
        {
          "internalType": "bytes32",
          "name": "sku",
          "type": "bytes32"
        },
        {
          "internalType": "uint256",
          "name": "quantity",
          "type": "uint256"
        },
        {
          "internalType": "bytes",
          "name": "userData",
          "type": "bytes"
        }
      ],
      "name": "estimatePurchase",
      "outputs": [
        {
          "internalType": "uint256",
          "name": "totalPrice",
          "type": "uint256"
        },
        {
          "internalType": "bytes32[]",
          "name": "pricingData",
          "type": "bytes32[]"
        }
      ],
      "stateMutability": "view",
      "type": "function"
    },
    {
      "inputs": [
        {
          "internalType": "bytes32",
          "name": "sku",
          "type": "bytes32"
        }
      ],
      "name": "getSkuInfo",
      "outputs": [
        {
          "internalType": "uint256",
          "name": "totalSupply",
          "type": "uint256"
        },
        {
          "internalType": "uint256",
          "name": "remainingSupply",
          "type": "uint256"
        },
        {
          "internalType": "uint256",
          "name": "maxQuantityPerPurchase",
          "type": "uint256"
        },
        {
          "internalType": "address",
          "name": "notificationsReceiver",
          "type": "address"
        },
        {
          "internalType": "address[]",
          "name": "tokens",
          "type": "address[]"
        },
        {
          "internalType": "uint256[]",
          "name": "prices",
          "type": "uint256[]"
        }
      ],
      "stateMutability": "view",
      "type": "function"
    },
    {
      "inputs": [],
      "name": "getSkus",
      "outputs": [
        {
          "internalType": "bytes32[]",
          "name": "skus",
          "type": "bytes32[]"
        }
      ],
      "stateMutability": "view",
      "type": "function"
    },
    {
      "inputs": [
        {
          "internalType": "address",
          "name": "",
          "type": "address"
        },
        {
          "internalType": "address",
          "name": "",
          "type": "address"
        }
      ],
      "name": "mockSwapRates",
      "outputs": [
        {
          "internalType": "uint256",
          "name": "",
          "type": "uint256"
        }
      ],
      "stateMutability": "view",
      "type": "function"
    },
    {
      "inputs": [],
      "name": "mockSwapVariance",
      "outputs": [
        {
          "internalType": "int256",
          "name": "",
          "type": "int256"
        }
      ],
      "stateMutability": "view",
      "type": "function"
    },
    {
      "inputs": [],
      "name": "owner",
      "outputs": [
        {
          "internalType": "address",
          "name": "",
          "type": "address"
        }
      ],
      "stateMutability": "view",
      "type": "function"
    },
    {
      "inputs": [],
      "name": "pause",
      "outputs": [],
      "stateMutability": "nonpayable",
      "type": "function"
    },
    {
      "inputs": [],
      "name": "paused",
      "outputs": [
        {
          "internalType": "bool",
          "name": "",
          "type": "bool"
        }
      ],
      "stateMutability": "view",
      "type": "function"
    },
    {
      "inputs": [],
      "name": "payoutWallet",
      "outputs": [
        {
          "internalType": "address payable",
          "name": "",
          "type": "address"
        }
      ],
      "stateMutability": "view",
      "type": "function"
    },
    {
      "inputs": [
        {
          "internalType": "address payable",
          "name": "recipient",
          "type": "address"
        },
        {
          "internalType": "address",
          "name": "token",
          "type": "address"
        },
        {
          "internalType": "bytes32",
          "name": "sku",
          "type": "bytes32"
        },
        {
          "internalType": "uint256",
          "name": "quantity",
          "type": "uint256"
        },
        {
          "internalType": "bytes",
          "name": "userData",
          "type": "bytes"
        }
      ],
      "name": "purchaseFor",
      "outputs": [],
      "stateMutability": "payable",
      "type": "function"
    },
    {
      "inputs": [],
      "name": "referenceToken",
      "outputs": [
        {
          "internalType": "address",
          "name": "",
          "type": "address"
        }
      ],
      "stateMutability": "view",
      "type": "function"
    },
    {
      "inputs": [],
      "name": "renounceOwnership",
      "outputs": [],
      "stateMutability": "nonpayable",
      "type": "function"
    },
    {
      "inputs": [
        {
          "internalType": "address",
          "name": "fromToken",
          "type": "address"
        },
        {
          "internalType": "address",
          "name": "toToken",
          "type": "address"
        },
        {
          "internalType": "uint256",
          "name": "rate",
          "type": "uint256"
        }
      ],
      "name": "setMockSwapRate",
      "outputs": [],
      "stateMutability": "nonpayable",
      "type": "function"
    },
    {
      "inputs": [
        {
          "internalType": "int256",
          "name": "value",
          "type": "int256"
        }
      ],
      "name": "setMockSwapVariance",
      "outputs": [],
      "stateMutability": "nonpayable",
      "type": "function"
    },
    {
      "inputs": [
        {
          "internalType": "address",
          "name": "payoutWallet_",
          "type": "address"
        }
      ],
      "name": "setPayoutWallet",
      "outputs": [],
      "stateMutability": "nonpayable",
      "type": "function"
    },
    {
      "inputs": [],
      "name": "start",
      "outputs": [],
      "stateMutability": "nonpayable",
      "type": "function"
    },
    {
      "inputs": [],
      "name": "startedAt",
      "outputs": [
        {
          "internalType": "uint256",
          "name": "",
          "type": "uint256"
        }
      ],
      "stateMutability": "view",
      "type": "function"
    },
    {
      "inputs": [
        {
          "internalType": "address[]",
          "name": "tokens",
          "type": "address[]"
        },
        {
          "internalType": "uint256",
          "name": "referenceAmount",
          "type": "uint256"
        },
        {
          "internalType": "bytes",
          "name": "data",
          "type": "bytes"
        }
      ],
      "name": "swapRates",
      "outputs": [
        {
          "internalType": "uint256[]",
          "name": "rates",
          "type": "uint256[]"
        }
      ],
      "stateMutability": "view",
      "type": "function"
    },
    {
      "inputs": [
        {
          "internalType": "address",
          "name": "newOwner",
          "type": "address"
        }
      ],
      "name": "transferOwnership",
      "outputs": [],
      "stateMutability": "nonpayable",
      "type": "function"
    },
    {
      "inputs": [],
      "name": "unpause",
      "outputs": [],
      "stateMutability": "nonpayable",
      "type": "function"
    },
    {
      "inputs": [
        {
          "internalType": "bytes32",
          "name": "sku",
          "type": "bytes32"
        },
        {
          "internalType": "address[]",
          "name": "tokens",
          "type": "address[]"
        },
        {
          "internalType": "uint256[]",
          "name": "prices",
          "type": "uint256[]"
        }
      ],
      "name": "updateSkuPricing",
      "outputs": [],
      "stateMutability": "nonpayable",
      "type": "function"
    }
  ],
  "bytecode": "0x60c06040523480156200001157600080fd5b506040516200489238038062004892833981810160405260808110156200003757600080fd5b50805160208201516040830151606090930151919290918383838383838383838383828282826000620000726001600160e01b03620005a816565b600080546001600160a01b0319166001600160a01b0383169081178255604051929350917f8be0079c531659141344cd1fd0a4f28419497f9722a3daafe3b4186f6b6457e0908290a350620000d0816001600160e01b03620005ac16565b506003805460ff19169055608082905260a081905260408051600280825260608083018452926020830190803683375050604080516002808252606080830184529495509092509060208301908036833750508351919250680a89e968a9cbe8aa8960bb1b9173eeeeeeeeeeeeeeeeeeeeeeeeeeeeeeeeeeeeeeee915084906000906200015957fe5b60200260200101836000815181106200016e57fe5b602002602001018281525082815250505060001960001b6f14d55414131657d5539312535255115160821b9083600181518110620001a857fe5b6020026020010183600181518110620001bd57fe5b6020026020010182815250828152505050600080516020620048728339815191528282604051808060200180602001838103835285818151815260200191508051906020019060200280838360005b83811015620002265781810151838201526020016200020c565b50505050905001838103825284818151815260200191508051906020019060200280838360005b83811015620002675781810151838201526020016200024d565b5050505090500194505050505060405180910390a16200028f6001600160e01b036200079b16565b5050600780546001600160a01b0319166001600160a01b03891617905550606094506001935060009250620002c2915050565b50604051908082528060200260200182016040528015620002ed578160200160208202803683370190505b50604080516001808252818301909252919250606091906020808301908036833701905050905060001960001b7f50524943455f434f4e564552545f5649415f4f5241434c45000000000000000090836000815181106200034a57fe5b60200260200101836000815181106200035f57fe5b6020026020010182815250828152505050600080516020620048728339815191528282604051808060200180602001838103835285818151815260200191508051906020019060200280838360005b83811015620003c8578181015183820152602001620003ae565b50505050905001838103825284818151815260200191508051906020019060200280838360005b8381101562000409578181015183820152602001620003ef565b5050505090500194505050505060405180910390a1505050505050606060016001600160401b03811180156200043e57600080fd5b5060405190808252806020026020018201604052801562000469578160200160208202803683370190505b506040805160018082528183019092529192506060919060208083019080368337505083519192507f50524943455f535741505f5649415f4f5241434c4500000000000000000000009160011991508490600090620004c457fe5b6020026020010183600081518110620004d957fe5b6020026020010182815250828152505050600080516020620048728339815191528282604051808060200180602001838103835285818151815260200191508051906020019060200280838360005b838110156200054257818101518382015260200162000528565b50505050905001838103825284818151815260200191508051906020019060200280838360005b838110156200058357818101518382015260200162000569565b5050505090500194505050505060405180910390a15050505050505050505062000845565b3390565b620005bf6001600160e01b03620005a816565b6000546001600160a01b0390811691161462000622576040805162461bcd60e51b815260206004820181905260248201527f4f776e61626c653a2063616c6c6572206973206e6f7420746865206f776e6572604482015290519081900360640190fd5b6001600160a01b0381166200067e576040805162461bcd60e51b815260206004820152601460248201527f5061796f75743a207a65726f2061646472657373000000000000000000000000604482015290519081900360640190fd5b6001600160a01b038116301415620006dd576040805162461bcd60e51b815260206004820152601f60248201527f5061796f75743a207468697320636f6e7472616374206173207061796f757400604482015290519081900360640190fd5b6001546001600160a01b038281169116141562000741576040805162461bcd60e51b815260206004820152601a60248201527f5061796f75743a2073616d65207061796f75742077616c6c6574000000000000604482015290519081900360640190fd5b600180546001600160a01b0319166001600160a01b03838116919091179182905560408051929091168252517fdd880d24a789958a6398c99c2e54ce31bc10a638cbc42f7dd34285479ae0f855916020908290030190a150565b60035460ff1615620007e7576040805162461bcd60e51b815260206004820152601060248201526f14185d5cd8589b194e881c185d5cd95960821b604482015290519081900360640190fd5b6003805460ff191660011790557f62e78cea01bee320cd4e420270b5ea74000d11b0c9f74754ebdbfc544b05a258620008286001600160e01b03620005a816565b604080516001600160a01b039092168252519081900360200190a1565b60805160a05161400962000869600039806130e2525080611f5e52506140096000f3fe6080604052600436106101cd5760003560e01c80638456cb59116100f7578063a0cf073511610095578063c7b778db11610064578063c7b778db14610b82578063c931f7c914610c51578063f21f537d14610c8c578063f2fde38b14610ca1576101cd565b8063a0cf0735146108fd578063a963b25714610a05578063bda4c5ab14610a9a578063be9a655514610b6d576101cd565b80638da5cb5b116100d15780638da5cb5b1461083157806397309b44146108465780639865bcc8146108e85780639e049545146108e8576101cd565b80638456cb591461071c5780638488bb4e146107315780638ce507eb14610746576101cd565b8063579f2c771161016f578063607dc0171161013e578063607dc0171461064557806361bd38511461066f5780636b8f9c43146106d4578063715018a614610707576101cd565b8063579f2c77146104b75780635c4fafc7146104cc5780635c975abb146104e15780635e6e9f701461050a576101cd565b80632c87927b116101ab5780632c87927b146103f15780633c33c51e146104385780633f4ba83a1461047b578063558884bd14610490576101cd565b80631265b651146101d25780631323b066146102035780632a8a45bc14610300575b600080fd5b3480156101de57600080fd5b506101e7610cd4565b604080516001600160a01b039092168252519081900360200190f35b34801561020f57600080fd5b506102a5600480360360a081101561022657600080fd5b6001600160a01b03823581169260208101359091169160408201359160608101359181019060a08101608082013564010000000081111561026657600080fd5b82018360208201111561027857600080fd5b8035906020019184600183028401116401000000008311171561029a57600080fd5b509092509050610ce3565b6040518083815260200180602001828103825283818151815260200191508051906020019060200280838360005b838110156102eb5781810151838201526020016102d3565b50505050905001935050505060405180910390f35b34801561030c57600080fd5b5061032a6004803603602081101561032357600080fd5b5035610e28565b60405180878152602001868152602001858152602001846001600160a01b03166001600160a01b031681526020018060200180602001838103835285818151815260200191508051906020019060200280838360005b83811015610398578181015183820152602001610380565b50505050905001838103825284818151815260200191508051906020019060200280838360005b838110156103d75781810151838201526020016103bf565b505050509050019850505050505050505060405180910390f35b3480156103fd57600080fd5b506104366004803603608081101561041457600080fd5b50803590602081013590604081013590606001356001600160a01b0316610fd3565b005b34801561044457600080fd5b506104366004803603606081101561045b57600080fd5b506001600160a01b03813581169160208101359091169060400135610fe5565b34801561048757600080fd5b50610436611011565b34801561049c57600080fd5b506104a56110d9565b60408051918252519081900360200190f35b3480156104c357600080fd5b506104a56110df565b3480156104d857600080fd5b506101e76110e5565b3480156104ed57600080fd5b506104f66110fd565b604080519115158252519081900360200190f35b34801561051657600080fd5b506104366004803603606081101561052d57600080fd5b8135919081019060408101602082013564010000000081111561054f57600080fd5b82018360208201111561056157600080fd5b8035906020019184602083028401116401000000008311171561058357600080fd5b91908080602002602001604051908101604052809392919081815260200183836020028082843760009201919091525092959493602081019350359150506401000000008111156105d357600080fd5b8201836020820111156105e557600080fd5b8035906020019184602083028401116401000000008311171561060757600080fd5b919080806020026020016040519081016040528093929190818152602001838360200280828437600092019190915250929550611106945050505050565b34801561065157600080fd5b506104366004803603602081101561066857600080fd5b5035611338565b34801561067b57600080fd5b5061068461133d565b60408051602080825283518183015283519192839290830191858101910280838360005b838110156106c05781810151838201526020016106a8565b505050509050019250505060405180910390f35b3480156106e057600080fd5b50610436600480360360208110156106f757600080fd5b50356001600160a01b0316611398565b34801561071357600080fd5b50610436611585565b34801561072857600080fd5b50610436611646565b34801561073d57600080fd5b506101e761170c565b610436600480360360e081101561075c57600080fd5b6001600160a01b03823581169260208101359091169160408201359160608101359181019060a08101608082013564010000000081111561079c57600080fd5b8201836020820111156107ae57600080fd5b803590602001918460018302840111640100000000831117156107d057600080fd5b919390928235926040810190602001356401000000008111156107f257600080fd5b82018360208201111561080457600080fd5b8035906020019184602083028401116401000000008311171561082657600080fd5b50909250905061171b565b34801561083d57600080fd5b506101e76117e5565b34801561085257600080fd5b506102a5600480360360a081101561086957600080fd5b6001600160a01b03823581169260208101359091169160408201359160608101359181019060a0810160808201356401000000008111156108a957600080fd5b8201836020820111156108bb57600080fd5b803590602001918460018302840111640100000000831117156108dd57600080fd5b5090925090506117f4565b3480156108f457600080fd5b506104a5611893565b34801561090957600080fd5b5061099f600480360360a081101561092057600080fd5b6001600160a01b03823581169260208101359091169160408201359160608101359181019060a08101608082013564010000000081111561096057600080fd5b82018360208201111561097257600080fd5b8035906020019184600183028401116401000000008311171561099457600080fd5b509092509050611899565b604051808415151515815260200183815260200180602001828103825283818151815260200191508051906020019060200280838360005b838110156109ef5781810151838201526020016109d7565b5050505090500194505050505060405180910390f35b610436600480360360a0811015610a1b57600080fd5b6001600160a01b03823581169260208101359091169160408201359160608101359181019060a081016080820135640100000000811115610a5b57600080fd5b820183602082011115610a6d57600080fd5b80359060200191846001830284011164010000000083111715610a8f57600080fd5b509092509050611961565b348015610aa657600080fd5b5061068460048036036060811015610abd57600080fd5b810190602081018135640100000000811115610ad857600080fd5b820183602082011115610aea57600080fd5b80359060200191846020830284011164010000000083111715610b0c57600080fd5b91939092823592604081019060200135640100000000811115610b2e57600080fd5b820183602082011115610b4057600080fd5b80359060200191846001830284011164010000000083111715610b6257600080fd5b509092509050611a97565b348015610b7957600080fd5b50610436611bb2565b348015610b8e57600080fd5b5061068460048036036040811015610ba557600080fd5b810190602081018135640100000000811115610bc057600080fd5b820183602082011115610bd257600080fd5b80359060200191846020830284011164010000000083111715610bf457600080fd5b919390929091602081019035640100000000811115610c1257600080fd5b820183602082011115610c2457600080fd5b80359060200191846001830284011164010000000083111715610c4657600080fd5b509092509050611c24565b348015610c5d57600080fd5b506104a560048036036040811015610c7457600080fd5b506001600160a01b0381358116916020013516611d10565b348015610c9857600080fd5b506104a5611d2d565b348015610cad57600080fd5b5061043660048036036020811015610cc457600080fd5b50356001600160a01b0316611d33565b6007546001600160a01b031681565b6000606060025460001415610d3f576040805162461bcd60e51b815260206004820152601660248201527f537461727461626c653a206e6f74207374617274656400000000000000000000604482015290519081900360640190fd5b60035460ff1615610d97576040805162461bcd60e51b815260206004820152601060248201527f5061757361626c653a2070617573656400000000000000000000000000000000604482015290519081900360640190fd5b610d9f613dfa565b610da7611e4a565b6001600160a01b03908116825289811660208084019190915290891660408084019190915260608301899052608083018890528051601f870183900483028101830190915285815290869086908190840183828082843760009201919091525050505060a0820152610e1881611e4e565b9250925050965096945050505050565b6000818152600660205260408120819081908190606090819083610e4e60048301611e75565b82549850905087610ea6576040805162461bcd60e51b815260206004820152601660248201527f53616c653a206e6f6e2d6578697374656e7420736b7500000000000000000000604482015290519081900360640190fd5b60018201546002830154600384015491985096506001600160a01b031694508067ffffffffffffffff81118015610edc57600080fd5b50604051908082528060200260200182016040528015610f06578160200160208202803683370190505b5093508067ffffffffffffffff81118015610f2057600080fd5b50604051908082528060200260200182016040528015610f4a578160200160208202803683370190505b50925060005b81811015610fc757600080610f6e600486018463ffffffff611e7916565b915091508160001c878481518110610f8257fe5b60200260200101906001600160a01b031690816001600160a01b0316815250508060001c868481518110610fb257fe5b60209081029190910101525050600101610f50565b50505091939550919395565b610fdf84848484611f0a565b50505050565b6001600160a01b0392831660009081526008602090815260408083209490951682529290925291902055565b611019611e4a565b6000546001600160a01b0390811691161461107b576040805162461bcd60e51b815260206004820181905260248201527f4f776e61626c653a2063616c6c6572206973206e6f7420746865206f776e6572604482015290519081900360640190fd5b6002546110cf576040805162461bcd60e51b815260206004820152601660248201527f537461727461626c653a206e6f74207374617274656400000000000000000000604482015290519081900360640190fd5b6110d7612147565b565b60095481565b60011981565b73eeeeeeeeeeeeeeeeeeeeeeeeeeeeeeeeeeeeeeee81565b60035460ff1690565b61110e611e4a565b6000546001600160a01b03908116911614611170576040805162461bcd60e51b815260206004820181905260248201527f4f776e61626c653a2063616c6c6572206973206e6f7420746865206f776e6572604482015290519081900360640190fd5b8151815181146111b15760405162461bcd60e51b8152600401808060200182810382526024815260200180613f246024913960400191505060405180910390fd5b60008481526006602052604090208054611212576040805162461bcd60e51b815260206004820152601660248201527f53616c653a206e6f6e2d6578697374656e7420736b7500000000000000000000604482015290519081900360640190fd5b600481018261126957600061122682611e75565b905060005b81811015611262576000611245848263ffffffff611e7916565b509050611258848263ffffffff6121ee16565b505060010161122b565b5050611274565b6112748186866122ce565b857fcb3fe5489e0cd43d0f4a33d1e09a4a0463a03d0d38f56165530854e5540db1438686604051808060200180602001838103835285818151815260200191508051906020019060200280838360005b838110156112dc5781810151838201526020016112c4565b50505050905001838103825284818151815260200191508051906020019060200280838360005b8381101561131b578181015183820152602001611303565b5050505090500194505050505060405180910390a2505050505050565b600955565b6060600460000180548060200260200160405190810160405280929190818152602001828054801561138e57602002820191906000526020600020905b81548152602001906001019080831161137a575b5050505050905090565b6113a0611e4a565b6000546001600160a01b03908116911614611402576040805162461bcd60e51b815260206004820181905260248201527f4f776e61626c653a2063616c6c6572206973206e6f7420746865206f776e6572604482015290519081900360640190fd5b6001600160a01b03811661145d576040805162461bcd60e51b815260206004820152601460248201527f5061796f75743a207a65726f2061646472657373000000000000000000000000604482015290519081900360640190fd5b6001600160a01b0381163014156114bb576040805162461bcd60e51b815260206004820152601f60248201527f5061796f75743a207468697320636f6e7472616374206173207061796f757400604482015290519081900360640190fd5b6001546001600160a01b038281169116141561151e576040805162461bcd60e51b815260206004820152601a60248201527f5061796f75743a2073616d65207061796f75742077616c6c6574000000000000604482015290519081900360640190fd5b6001805473ffffffffffffffffffffffffffffffffffffffff19166001600160a01b03838116919091179182905560408051929091168252517fdd880d24a789958a6398c99c2e54ce31bc10a638cbc42f7dd34285479ae0f855916020908290030190a150565b61158d611e4a565b6000546001600160a01b039081169116146115ef576040805162461bcd60e51b815260206004820181905260248201527f4f776e61626c653a2063616c6c6572206973206e6f7420746865206f776e6572604482015290519081900360640190fd5b600080546040516001600160a01b03909116907f8be0079c531659141344cd1fd0a4f28419497f9722a3daafe3b4186f6b6457e0908390a36000805473ffffffffffffffffffffffffffffffffffffffff19169055565b61164e611e4a565b6000546001600160a01b039081169116146116b0576040805162461bcd60e51b815260206004820181905260248201527f4f776e61626c653a2063616c6c6572206973206e6f7420746865206f776e6572604482015290519081900360640190fd5b600254611704576040805162461bcd60e51b815260206004820152601660248201527f537461727461626c653a206e6f74207374617274656400000000000000000000604482015290519081900360640190fd5b6110d7612346565b6001546001600160a01b031681565b611723613dfa565b61172b611e4a565b6001600160a01b0390811682528a8116602080840191909152908a16604080840191909152606083018a9052608083018990528051601f880183900483028101830190915286815290879087908190840183828082843760009201919091525050505060a082015260c081018490526040805160208085028281018201909352848252909185918591829185019084908082843760009201919091525050505060e08201526117d9816123d4565b50505050505050505050565b6000546001600160a01b031690565b60006060611800613dfa565b611808611e4a565b6001600160a01b03908116825289811660208084019190915290891660408084019190915260608301899052608083018890528051601f870183900483028101830190915285815290869086908190840183828082843760009201919091525050505060a0820152611879816128db565b8060c0015192508060e00151915050965096945050505050565b60001981565b60008060606118a6613dfa565b6118ae611e4a565b6001600160a01b0390811682528a8116602080840191909152908a16604080840191909152606083018a9052608083018990528051601f8801839004830281018301909152868152908790879081908401838280828437600092018290525060a08601949094525050508881526006602052604081209060048201906119348483612983565b90506119418483836129f9565b96508360c0015195508360e0015194505050505096509650969350505050565b6002546119b5576040805162461bcd60e51b815260206004820152601660248201527f537461727461626c653a206e6f74207374617274656400000000000000000000604482015290519081900360640190fd5b60035460ff1615611a0d576040805162461bcd60e51b815260206004820152601060248201527f5061757361626c653a2070617573656400000000000000000000000000000000604482015290519081900360640190fd5b611a15613dfa565b611a1d611e4a565b6001600160a01b03908116825287811660208084019190915290871660408084019190915260608301879052608083018690528051601f850183900483028101830190915283815290849084908190840183828082843760009201919091525050505060a0820152611a8e81612b10565b50505050505050565b6060848067ffffffffffffffff81118015611ab157600080fd5b50604051908082528060200260200182016040528015611adb578160200160208202803683370190505b50915060005b81811015611ba7576000611b5d898984818110611afa57fe5b905060200201356001600160a01b0316600760009054906101000a90046001600160a01b03168989898080601f016020809104026020016040519081016040528093929190818152602001838380828437600092019190915250612b3d92505050565b9050611b8781611b7b89670de0b6b3a764000063ffffffff612bc716565b9063ffffffff612c2016565b848381518110611b9357fe5b602090810291909101015250600101611ae1565b505095945050505050565b611bba611e4a565b6000546001600160a01b03908116911614611c1c576040805162461bcd60e51b815260206004820181905260248201527f4f776e61626c653a2063616c6c6572206973206e6f7420746865206f776e6572604482015290519081900360640190fd5b6110cf612c62565b6060838067ffffffffffffffff81118015611c3e57600080fd5b50604051908082528060200260200182016040528015611c68578160200160208202803683370190505b50915060005b81811015611d0657611ce7878783818110611c8557fe5b905060200201356001600160a01b0316600760009054906101000a90046001600160a01b031687878080601f016020809104026020016040519081016040528093929190818152602001838380828437600092019190915250612ce492505050565b838281518110611cf357fe5b6020908102919091010152600101611c6e565b5050949350505050565b600860209081526000928352604080842090915290825290205481565b60025490565b611d3b611e4a565b6000546001600160a01b03908116911614611d9d576040805162461bcd60e51b815260206004820181905260248201527f4f776e61626c653a2063616c6c6572206973206e6f7420746865206f776e6572604482015290519081900360640190fd5b6001600160a01b038116611de25760405162461bcd60e51b8152600401808060200182810382526026815260200180613ebc6026913960400191505060405180910390fd5b600080546040516001600160a01b03808516939216917f8be0079c531659141344cd1fd0a4f28419497f9722a3daafe3b4186f6b6457e091a36000805473ffffffffffffffffffffffffffffffffffffffff19166001600160a01b0392909216919091179055565b3390565b60006060611e5b83612ced565b611e64836128db565b505060c081015160e0909101519091565b5490565b815460009081908310611ed3576040805162461bcd60e51b815260206004820152601c60248201527f456e756d4d61703a20696e646578206f7574206f6620626f756e647300000000604482015290519081900360640190fd5b6000846000018481548110611ee457fe5b906000526020600020906002020190508060000154816001015492509250509250929050565b82611f5c576040805162461bcd60e51b815260206004820152601160248201527f53616c653a207a65726f20737570706c79000000000000000000000000000000604482015290519081900360640190fd5b7f0000000000000000000000000000000000000000000000000000000000000000611f876004611e75565b10611fd9576040805162461bcd60e51b815260206004820152601360248201527f53616c653a20746f6f206d616e7920736b757300000000000000000000000000604482015290519081900360640190fd5b611fea60048563ffffffff612f9d16565b61203b576040805162461bcd60e51b815260206004820152601960248201527f53616c653a20736b7520616c7265616479206372656174656400000000000000604482015290519081900360640190fd5b6001600160a01b038116156120ad5761205c816001600160a01b0316612fe7565b6120ad576040805162461bcd60e51b815260206004820181905260248201527f53616c653a207265636569766572206973206e6f74206120636f6e7472616374604482015290519081900360640190fd5b60008481526006602090815260409182902085815560018101869055600281018590556003810180546001600160a01b03861673ffffffffffffffffffffffffffffffffffffffff1990911681179091558351888152928301879052828401869052606083015291517f38bd4aabce684540cd61351b91f2f5facf9d6963934347e25aab93d87ae7ac149181900360800190a15050505050565b60035460ff1661219e576040805162461bcd60e51b815260206004820152601460248201527f5061757361626c653a206e6f7420706175736564000000000000000000000000604482015290519081900360640190fd5b6003805460ff191690557f5db9ee0a495bf2e6ff9c91a7834c1ba4fdd244a5e8aa4e537bd38aeae4b073aa6121d1611e4a565b604080516001600160a01b039092168252519081900360200190a1565b600081815260018301602052604081205480156122c2578354600019808301919081019060009087908390811061222157fe5b906000526020600020906002020190508087600001848154811061224157fe5b60009182526020808320845460029093020191825560019384015491840191909155835482528983019052604090209084019055865487908061228057fe5b60008281526020808220600260001990940193840201828155600190810183905592909355888152898201909252604082209190915594506122c89350505050565b60009150505b92915050565b6122d9838383612fed565b6122e283611e75565b158061230657506007546123069084906001600160a01b031663ffffffff61315d16565b6123415760405162461bcd60e51b8152600401808060200182810382526023815260200180613fb16023913960400191505060405180910390fd5b505050565b60035460ff161561239e576040805162461bcd60e51b815260206004820152601060248201527f5061757361626c653a2070617573656400000000000000000000000000000000604482015290519081900360640190fd5b6003805460ff191660011790557f62e78cea01bee320cd4e420270b5ea74000d11b0c9f74754ebdbfc544b05a2586121d1611e4a565b60e081015151158061240657506001600019038160e001516000815181106123f857fe5b602002602001015160001c14155b156124195761241481613175565b6128d8565b60408101516001600160a01b031673eeeeeeeeeeeeeeeeeeeeeeeeeeeeeeeeeeeeeeee141561248a578060c001513410156124855760405162461bcd60e51b8152600401808060200182810382526023815260200180613f8e6023913960400191505060405180910390fd5b612594565b80604001516001600160a01b03166323b872dd6124a5611e4a565b60c0840151604080517fffffffff0000000000000000000000000000000000000000000000000000000060e086901b1681526001600160a01b03909316600484015230602484015260448301919091525160648083019260209291908290030181600087803b15801561251757600080fd5b505af115801561252b573d6000803e3d6000fd5b505050506040513d602081101561254157600080fd5b5051612594576040805162461bcd60e51b815260206004820152601e60248201527f5377617053616c653a204552433230207061796d656e74206661696c65640000604482015290519081900360640190fd5b60008160e001516001815181106125a757fe5b602002602001015160001c905060006125d9670de0b6b3a7640000611b7b8560c0015185612bc790919063ffffffff16565b604084015160075460a086015192935060009261260292916001600160a01b03169085906133a5565b60408501519091506001600160a01b031673eeeeeeeeeeeeeeeeeeeeeeeeeeeeeeeeeeeeeeee1415612689576000612640348363ffffffff6133d916565b905080156126835784516040516001600160a01b039091169082156108fc029083906000818181858888f19350505050158015612681573d6000803e3d6000fd5b505b50612782565b60c08401516000906126a1908363ffffffff6133d916565b9050801561278057604080860151865182517fa9059cbb0000000000000000000000000000000000000000000000000000000081526001600160a01b03918216600482015260248101859052925191169163a9059cbb9160448083019260209291908290030181600087803b15801561271957600080fd5b505af115801561272d573d6000803e3d6000fd5b505050506040513d602081101561274357600080fd5b50516127805760405162461bcd60e51b8152600401808060200182810382526025815260200180613f696025913960400191505060405180910390fd5b505b6007546001600160a01b031673eeeeeeeeeeeeeeeeeeeeeeeeeeeeeeeeeeeeeeee14156127e9576001546040516001600160a01b039091169082156108fc029083906000818181858888f193505050501580156127e3573d6000803e3d6000fd5b50610fdf565b600754600154604080517fa9059cbb0000000000000000000000000000000000000000000000000000000081526001600160a01b039283166004820152602481018590529051919092169163a9059cbb9160448083019260209291908290030181600087803b15801561285b57600080fd5b505af115801561286f573d6000803e3d6000fd5b505050506040513d602081101561288557600080fd5b5051610fdf576040805162461bcd60e51b815260206004820152601d60248201527f5377617053616c653a204552433230207061796f7574206661696c6564000000604482015290519081900360640190fd5b50565b606081015160009081526006602052604090208054612941576040805162461bcd60e51b815260206004820152601560248201527f53616c653a20756e737570706f7274656420534b550000000000000000000000604482015290519081900360640190fd5b6004810160006129518483612983565b905061295e8483836129f9565b610fdf57608084015161297890829063ffffffff612bc716565b60c085015250505050565b60408201516000906129a59083906001600160a01b031663ffffffff61341b16565b9050806122c8576040805162461bcd60e51b815260206004820152601f60248201527f53616c653a20756e737570706f72746564207061796d656e7420746f6b656e00604482015290519081900360640190fd5b60006001198214612a1657612a0f8484846134ab565b9050612b09565b600754600090612a369085906001600160a01b031663ffffffff61341b16565b6080860151909150600090612a5290839063ffffffff612bc716565b604087015160075460a0890151929350600092612a7b92916001600160a01b0316908590612b3d565b90506000612a9b82611b7b85670de0b6b3a764000063ffffffff612bc716565b604080516002808252606082018352929350919060208301908036833750505060e089018190528051879190600090612ad057fe5b6020026020010181815250508060001b8860e00151600181518110612af157fe5b60209081029190910101525060c08701525060019150505b9392505050565b612b1981612ced565b612b22816128db565b612b2b816123d4565b612b34816135af565b6128d8816136bf565b6001600160a01b03808516600090815260086020908152604080832093871683529290529081205480612ba15760405162461bcd60e51b8152600401808060200182810382526021815260200180613ee26021913960400191505060405180910390fd5b612bbd81611b7b86670de0b6b3a764000063ffffffff612bc716565b9695505050505050565b600082612bd6575060006122c8565b82820282848281612be357fe5b0414612b095760405162461bcd60e51b8152600401808060200182810382526021815260200180613f036021913960400191505060405180910390fd5b6000612b0983836040518060400160405280601a81526020017f536166654d6174683a206469766973696f6e206279207a65726f000000000000815250613bb2565b60025415612cb7576040805162461bcd60e51b815260206004820152601260248201527f537461727461626c653a20737461727465640000000000000000000000000000604482015290519081900360640190fd5b426002557f27029695aa5f602a4ee81f4c32dfa86e562f200a17966496f3a7c3f2ec0f94176121d1611e4a565b50600192915050565b60208101516001600160a01b0316612d4c576040805162461bcd60e51b815260206004820152601c60248201527f53616c653a207a65726f206164647265737320726563697069656e7400000000604482015290519081900360640190fd5b60408101516001600160a01b0316612dab576040805162461bcd60e51b815260206004820152601860248201527f53616c653a207a65726f206164647265737320746f6b656e0000000000000000604482015290519081900360640190fd5b6080810151612e01576040805162461bcd60e51b815260206004820152601c60248201527f53616c653a207a65726f207175616e7469747920707572636861736500000000604482015290519081900360640190fd5b606081015160009081526006602052604090208054612e67576040805162461bcd60e51b815260206004820152601660248201527f53616c653a206e6f6e2d6578697374656e7420736b7500000000000000000000604482015290519081900360640190fd5b816080015181600201541015612ec4576040805162461bcd60e51b815260206004820152601860248201527f53616c653a2061626f7665206d6178207175616e746974790000000000000000604482015290519081900360640190fd5b805460001914612f2b57816080015181600101541015612f2b576040805162461bcd60e51b815260206004820152601960248201527f53616c653a20696e73756666696369656e7420737570706c7900000000000000604482015290519081900360640190fd5b60408201516001600160a01b0316612f4c600483018263ffffffff61315d16565b612341576040805162461bcd60e51b815260206004820152601c60248201527f53616c653a206e6f6e2d6578697374656e7420736b7520746f6b656e00000000604482015290519081900360640190fd5b6000612fa9838361315d565b612fdf575081546001818101845560008481526020808220909301849055845484825282860190935260409020919091556122c8565b5060006122c8565b3b151590565b60005b82518110156130df57600083828151811061300757fe5b6020026020010151905060006001600160a01b0316816001600160a01b03161415613079576040805162461bcd60e51b815260206004820152601860248201527f53616c653a207a65726f206164647265737320746f6b656e0000000000000000604482015290519081900360640190fd5b600083838151811061308757fe5b6020026020010151905080600014156130b9576130b3866001600160a01b03841663ffffffff6121ee16565b506130d5565b6130d3866001600160a01b0384168363ffffffff613c5416565b505b5050600101612ff0565b507f000000000000000000000000000000000000000000000000000000000000000061310a84611e75565b1115612341576040805162461bcd60e51b815260206004820152601560248201527f53616c653a20746f6f206d616e7920746f6b656e730000000000000000000000604482015290519081900360640190fd5b60009081526001919091016020526040902054151590565b60408101516001600160a01b031673eeeeeeeeeeeeeeeeeeeeeeeeeeeeeeeeeeeeeeee1415613298578060c001513410156131f7576040805162461bcd60e51b815260206004820152601f60248201527f53616c653a20696e73756666696369656e74204554482070726f766964656400604482015290519081900360640190fd5b60015460c08201516040516001600160a01b039092169181156108fc0291906000818181858888f19350505050158015613235573d6000803e3d6000fd5b50600061324f8260c00151346133d990919063ffffffff16565b905080156132925781516040516001600160a01b039091169082156108fc029083906000818181858888f19350505050158015613290573d6000803e3d6000fd5b505b506128d8565b80604001516001600160a01b03166323b872dd6132b3611e4a565b60015460c0850151604080517fffffffff0000000000000000000000000000000000000000000000000000000060e087901b1681526001600160a01b03948516600482015293909216602484015260448301525160648083019260209291908290030181600087803b15801561332857600080fd5b505af115801561333c573d6000803e3d6000fd5b505050506040513d602081101561335257600080fd5b50516128d8576040805162461bcd60e51b815260206004820152601a60248201527f53616c653a204552433230207061796d656e74206661696c6564000000000000604482015290519081900360640190fd5b60006133b385858585612b3d565b90506133d06133c3600954613ceb565b829063ffffffff613d4616565b50949350505050565b6000612b0983836040518060400160405280601e81526020017f536166654d6174683a207375627472616374696f6e206f766572666c6f770000815250613da0565b60008181526001830160205260408120548061347e576040805162461bcd60e51b815260206004820152601860248201527f456e756d4d61703a206e6f6e6578697374656e74206b65790000000000000000604482015290519081900360640190fd5b83600001600182038154811061349057fe5b90600052602060002090600202016001015491505092915050565b600060001982146134be57506000612b09565b6007546000906134de9085906001600160a01b031663ffffffff61341b16565b604086015160075460a088015192935060009261350592916001600160a01b031690612ce4565b9050600061353c876080015161353084611b7b670de0b6b3a764000088612bc790919063ffffffff16565b9063ffffffff612bc716565b604080516002808252606082018352929350919060208301908036833750505060e08801819052805186919060009061357157fe5b6020026020010181815250508160001b8760e0015160018151811061359257fe5b602090810291909101015260c08701525060019150509392505050565b6135b7613e6b565b6060808301516000908152600660209081526040808320815160a0810183528154815260018201548185015260028201548184015260038201546001600160a01b031695810195909552815160048201805480860283018501855294820185815292956080880195929491938593909285929085015b828210156136735783829060005260206000209060020201604051806040016040529081600082015481526020016001820154815250508152602001906001019061362d565b505050915250509052508051909150600019146136bb57608082015160208201516136a39163ffffffff6133d916565b60608301516000908152600660205260409020600101555b5050565b806060015181604001516001600160a01b031682600001516001600160a01b03167f29f844483ca6b10b5c0611d039afc15ce8f6380e905307b381c3a8ee4e90e11e846020015185608001518660a001518760c001518860e001518961010001518a610120015160405160200180848051906020019060200280838360005b8381101561375657818101518382015260200161373e565b50505050905001838051906020019060200280838360005b8381101561378657818101518382015260200161376e565b50505050905001828051906020019060200280838360005b838110156137b657818101518382015260200161379e565b50505050905001935050505060405160208183030381529060405260405180866001600160a01b03166001600160a01b031681526020018581526020018060200184815260200180602001838103835286818151815260200191508051906020019080838360005b8381101561383657818101518382015260200161381e565b50505050905090810190601f1680156138635780820380516001836020036101000a031916815260200191505b50838103825284518152845160209182019186019080838360005b8381101561389657818101518382015260200161387e565b50505050905090810190601f1680156138c35780820380516001836020036101000a031916815260200191505b5097505050505050505060405180910390a460608101516000908152600660205260409020600301546001600160a01b031680156136bb576361eceae860e01b7bffffffffffffffffffffffffffffffffffffffffffffffffffffffff1916816001600160a01b03166361eceae8846000015185602001518660400151876060015188608001518960a001518a60c001518b60e001518c61010001518d61012001516040518b63ffffffff1660e01b8152600401808b6001600160a01b03166001600160a01b031681526020018a6001600160a01b03166001600160a01b03168152602001896001600160a01b03166001600160a01b031681526020018881526020018781526020018060200186815260200180602001806020018060200185810385528a818151815260200191508051906020019080838360005b83811015613a175781810151838201526020016139ff565b50505050905090810190601f168015613a445780820380516001836020036101000a031916815260200191505b508581038452885181528851602091820191808b01910280838360005b83811015613a79578181015183820152602001613a61565b50505050905001858103835287818151815260200191508051906020019060200280838360005b83811015613ab8578181015183820152602001613aa0565b50505050905001858103825286818151815260200191508051906020019060200280838360005b83811015613af7578181015183820152602001613adf565b505050509050019e505050505050505050505050505050602060405180830381600087803b158015613b2857600080fd5b505af1158015613b3c573d6000803e3d6000fd5b505050506040513d6020811015613b5257600080fd5b50517fffffffff0000000000000000000000000000000000000000000000000000000016146136bb5760405162461bcd60e51b8152600401808060200182810382526021815260200180613f486021913960400191505060405180910390fd5b60008183613c3e5760405162461bcd60e51b81526004018080602001828103825283818151815260200191508051906020019080838360005b83811015613c03578181015183820152602001613beb565b50505050905090810190601f168015613c305780820380516001836020036101000a031916815260200191505b509250505060405180910390fd5b506000838581613c4a57fe5b0495945050505050565b600082815260018401602052604081205480613cb9575050604080518082018252838152602080820184815286546001818101895560008981528481209551600290930290950191825591519082015586548684528188019092529290912055612b09565b82856000016001830381548110613ccc57fe5b9060005260206000209060020201600101819055506000915050612b09565b600080821215613d42576040805162461bcd60e51b815260206004820181905260248201527f53616665436173743a2076616c7565206d75737420626520706f736974697665604482015290519081900360640190fd5b5090565b600082820183811015612b09576040805162461bcd60e51b815260206004820152601b60248201527f536166654d6174683a206164646974696f6e206f766572666c6f770000000000604482015290519081900360640190fd5b60008184841115613df25760405162461bcd60e51b8152602060048201818152835160248401528351909283926044909101919085019080838360008315613c03578181015183820152602001613beb565b505050900390565b60405180610140016040528060006001600160a01b0316815260200160006001600160a01b0316815260200160006001600160a01b03168152602001600080191681526020016000815260200160608152602001600081526020016060815260200160608152602001606081525090565b6040518060a0016040528060008152602001600081526020016000815260200160006001600160a01b03168152602001613ea3613ea8565b905290565b604051806020016040528060608152509056fe4f776e61626c653a206e6577206f776e657220697320746865207a65726f20616464726573735377617053616c654d6f636b3a20756e646566696e656420737761702072617465536166654d6174683a206d756c7469706c69636174696f6e206f766572666c6f7753616c653a20746f6b656e732f707269636573206c656e67746873206d69736d6174636853616c653a2077726f6e672072656365697665722072657475726e2076616c75655377617053616c653a204552433230207061796d656e74206368616e6765206661696c65645377617053616c653a20696e73756666696369656e74204554482070726f76696465644f7261636c6553616c653a206d697373696e67207265666572656e636520746f6b656ea2646970667358221220a4d53190fb6b84c202ca70768d800641ef3ec8c83d94aa1fdbae5d241e46499e64736f6c63430006080033abb92614f53337043b55dc996a83ebb09adce78ec336ca188ea02180b61d1c14",
  "linkReferences": {},
  "deployedLinkReferences": {}
}