{
  "_format": "hh-sol-artifact-1",
  "contractName": "UniswapOracleSale",
  "sourceName": "contracts/sale/UniswapOracleSale.sol",
  "abi": [
    {
      "inputs": [
        {
          "internalType": "address",
          "name": "payoutWallet_",
          "type": "address"
        },
        {
          "internalType": "uint256",
          "name": "skusCapacity",
          "type": "uint256"
        },
        {
          "internalType": "uint256",
          "name": "tokensPerSkuCapacity",
          "type": "uint256"
        },
        {
          "internalType": "address",
          "name": "referenceToken",
          "type": "address"
        },
        {
          "internalType": "contract IUniswapV2Router",
          "name": "uniswapV2Router",
          "type": "address"
        }
      ],
      "stateMutability": "nonpayable",
      "type": "constructor"
    },
    {
      "anonymous": false,
      "inputs": [
        {
          "indexed": false,
          "internalType": "bytes32[]",
          "name": "names",
          "type": "bytes32[]"
        },
        {
          "indexed": false,
          "internalType": "bytes32[]",
          "name": "values",
          "type": "bytes32[]"
        }
      ],
      "name": "MagicValues",
      "type": "event"
    },
    {
      "anonymous": false,
      "inputs": [
        {
          "indexed": true,
          "internalType": "address",
          "name": "previousOwner",
          "type": "address"
        },
        {
          "indexed": true,
          "internalType": "address",
          "name": "newOwner",
          "type": "address"
        }
      ],
      "name": "OwnershipTransferred",
      "type": "event"
    },
    {
      "anonymous": false,
      "inputs": [
        {
          "indexed": false,
          "internalType": "address",
          "name": "account",
          "type": "address"
        }
      ],
      "name": "Paused",
      "type": "event"
    },
    {
      "anonymous": false,
      "inputs": [
        {
          "indexed": false,
          "internalType": "address",
          "name": "payoutWallet_",
          "type": "address"
        }
      ],
      "name": "PayoutWalletSet",
      "type": "event"
    },
    {
      "anonymous": false,
      "inputs": [
        {
          "indexed": true,
          "internalType": "address",
          "name": "purchaser",
          "type": "address"
        },
        {
          "indexed": false,
          "internalType": "address",
          "name": "recipient",
          "type": "address"
        },
        {
          "indexed": true,
          "internalType": "address",
          "name": "token",
          "type": "address"
        },
        {
          "indexed": true,
          "internalType": "bytes32",
          "name": "sku",
          "type": "bytes32"
        },
        {
          "indexed": false,
          "internalType": "uint256",
          "name": "quantity",
          "type": "uint256"
        },
        {
          "indexed": false,
          "internalType": "bytes",
          "name": "userData",
          "type": "bytes"
        },
        {
          "indexed": false,
          "internalType": "uint256",
          "name": "totalPrice",
          "type": "uint256"
        },
        {
          "indexed": false,
          "internalType": "bytes",
          "name": "extData",
          "type": "bytes"
        }
      ],
      "name": "Purchase",
      "type": "event"
    },
    {
      "anonymous": false,
      "inputs": [
        {
          "indexed": false,
          "internalType": "bytes32",
          "name": "sku",
          "type": "bytes32"
        },
        {
          "indexed": false,
          "internalType": "uint256",
          "name": "totalSupply",
          "type": "uint256"
        },
        {
          "indexed": false,
          "internalType": "uint256",
          "name": "maxQuantityPerPurchase",
          "type": "uint256"
        },
        {
          "indexed": false,
          "internalType": "address",
          "name": "notificationsReceiver",
          "type": "address"
        }
      ],
      "name": "SkuCreation",
      "type": "event"
    },
    {
      "anonymous": false,
      "inputs": [
        {
          "indexed": true,
          "internalType": "bytes32",
          "name": "sku",
          "type": "bytes32"
        },
        {
          "indexed": false,
          "internalType": "address[]",
          "name": "tokens",
          "type": "address[]"
        },
        {
          "indexed": false,
          "internalType": "uint256[]",
          "name": "prices",
          "type": "uint256[]"
        }
      ],
      "name": "SkuPricingUpdate",
      "type": "event"
    },
    {
      "anonymous": false,
      "inputs": [
        {
          "indexed": false,
          "internalType": "address",
          "name": "account",
          "type": "address"
        }
      ],
      "name": "Started",
      "type": "event"
    },
    {
      "anonymous": false,
      "inputs": [
        {
          "indexed": false,
          "internalType": "contract IUniswapV2Router",
          "name": "uniswapV2Router",
          "type": "address"
        }
      ],
      "name": "UniswapV2RouterSet",
      "type": "event"
    },
    {
      "anonymous": false,
      "inputs": [
        {
          "indexed": false,
          "internalType": "address",
          "name": "account",
          "type": "address"
        }
      ],
      "name": "Unpaused",
      "type": "event"
    },
    {
      "inputs": [],
      "name": "PRICE_CONVERT_VIA_ORACLE",
      "outputs": [
        {
          "internalType": "uint256",
          "name": "",
          "type": "uint256"
        }
      ],
      "stateMutability": "view",
      "type": "function"
    },
    {
      "inputs": [],
      "name": "SUPPLY_UNLIMITED",
      "outputs": [
        {
          "internalType": "uint256",
          "name": "",
          "type": "uint256"
        }
      ],
      "stateMutability": "view",
      "type": "function"
    },
    {
      "inputs": [],
      "name": "TOKEN_ETH",
      "outputs": [
        {
          "internalType": "address",
          "name": "",
          "type": "address"
        }
      ],
      "stateMutability": "view",
      "type": "function"
    },
    {
      "inputs": [
        {
          "internalType": "address[]",
          "name": "tokens",
          "type": "address[]"
        },
        {
          "internalType": "bytes",
          "name": "data",
          "type": "bytes"
        }
      ],
      "name": "conversionRates",
      "outputs": [
        {
          "internalType": "uint256[]",
          "name": "rates",
          "type": "uint256[]"
        }
      ],
      "stateMutability": "view",
      "type": "function"
    },
    {
      "inputs": [
        {
          "internalType": "address payable",
          "name": "recipient",
          "type": "address"
        },
        {
          "internalType": "address",
          "name": "token",
          "type": "address"
        },
        {
          "internalType": "bytes32",
          "name": "sku",
          "type": "bytes32"
        },
        {
          "internalType": "uint256",
          "name": "quantity",
          "type": "uint256"
        },
        {
          "internalType": "bytes",
          "name": "userData",
          "type": "bytes"
        }
      ],
      "name": "estimatePurchase",
      "outputs": [
        {
          "internalType": "uint256",
          "name": "totalPrice",
          "type": "uint256"
        },
        {
          "internalType": "bytes32[]",
          "name": "pricingData",
          "type": "bytes32[]"
        }
      ],
      "stateMutability": "view",
      "type": "function"
    },
    {
      "inputs": [
        {
          "internalType": "bytes32",
          "name": "sku",
          "type": "bytes32"
        }
      ],
      "name": "getSkuInfo",
      "outputs": [
        {
          "internalType": "uint256",
          "name": "totalSupply",
          "type": "uint256"
        },
        {
          "internalType": "uint256",
          "name": "remainingSupply",
          "type": "uint256"
        },
        {
          "internalType": "uint256",
          "name": "maxQuantityPerPurchase",
          "type": "uint256"
        },
        {
          "internalType": "address",
          "name": "notificationsReceiver",
          "type": "address"
        },
        {
          "internalType": "address[]",
          "name": "tokens",
          "type": "address[]"
        },
        {
          "internalType": "uint256[]",
          "name": "prices",
          "type": "uint256[]"
        }
      ],
      "stateMutability": "view",
      "type": "function"
    },
    {
      "inputs": [],
      "name": "getSkus",
      "outputs": [
        {
          "internalType": "bytes32[]",
          "name": "skus",
          "type": "bytes32[]"
        }
      ],
      "stateMutability": "view",
      "type": "function"
    },
    {
      "inputs": [],
      "name": "owner",
      "outputs": [
        {
          "internalType": "address",
          "name": "",
          "type": "address"
        }
      ],
      "stateMutability": "view",
      "type": "function"
    },
    {
      "inputs": [],
      "name": "pause",
      "outputs": [],
      "stateMutability": "nonpayable",
      "type": "function"
    },
    {
      "inputs": [],
      "name": "paused",
      "outputs": [
        {
          "internalType": "bool",
          "name": "",
          "type": "bool"
        }
      ],
      "stateMutability": "view",
      "type": "function"
    },
    {
      "inputs": [],
      "name": "payoutWallet",
      "outputs": [
        {
          "internalType": "address payable",
          "name": "",
          "type": "address"
        }
      ],
      "stateMutability": "view",
      "type": "function"
    },
    {
      "inputs": [
        {
          "internalType": "address payable",
          "name": "recipient",
          "type": "address"
        },
        {
          "internalType": "address",
          "name": "token",
          "type": "address"
        },
        {
          "internalType": "bytes32",
          "name": "sku",
          "type": "bytes32"
        },
        {
          "internalType": "uint256",
          "name": "quantity",
          "type": "uint256"
        },
        {
          "internalType": "bytes",
          "name": "userData",
          "type": "bytes"
        }
      ],
      "name": "purchaseFor",
      "outputs": [],
      "stateMutability": "payable",
      "type": "function"
    },
    {
      "inputs": [],
      "name": "referenceToken",
      "outputs": [
        {
          "internalType": "address",
          "name": "",
          "type": "address"
        }
      ],
      "stateMutability": "view",
      "type": "function"
    },
    {
      "inputs": [],
      "name": "renounceOwnership",
      "outputs": [],
      "stateMutability": "nonpayable",
      "type": "function"
    },
    {
      "inputs": [
        {
          "internalType": "address",
          "name": "payoutWallet_",
          "type": "address"
        }
      ],
      "name": "setPayoutWallet",
      "outputs": [],
      "stateMutability": "nonpayable",
      "type": "function"
    },
    {
      "inputs": [],
      "name": "start",
      "outputs": [],
      "stateMutability": "nonpayable",
      "type": "function"
    },
    {
      "inputs": [],
      "name": "startedAt",
      "outputs": [
        {
          "internalType": "uint256",
          "name": "",
          "type": "uint256"
        }
      ],
      "stateMutability": "view",
      "type": "function"
    },
    {
      "inputs": [
        {
          "internalType": "address",
          "name": "newOwner",
          "type": "address"
        }
      ],
      "name": "transferOwnership",
      "outputs": [],
      "stateMutability": "nonpayable",
      "type": "function"
    },
    {
      "inputs": [],
      "name": "uniswapV2Router",
      "outputs": [
        {
          "internalType": "contract IUniswapV2Router",
          "name": "",
          "type": "address"
        }
      ],
      "stateMutability": "view",
      "type": "function"
    },
    {
      "inputs": [],
      "name": "unpause",
      "outputs": [],
      "stateMutability": "nonpayable",
      "type": "function"
    },
    {
      "inputs": [
        {
          "internalType": "bytes32",
          "name": "sku",
          "type": "bytes32"
        },
        {
          "internalType": "address[]",
          "name": "tokens",
          "type": "address[]"
        },
        {
          "internalType": "uint256[]",
          "name": "prices",
          "type": "uint256[]"
        }
      ],
      "name": "updateSkuPricing",
      "outputs": [],
      "stateMutability": "nonpayable",
      "type": "function"
    }
  ],
  "bytecode": "0x60c06040523480156200001157600080fd5b506040516200393a3803806200393a833981810160405260a08110156200003757600080fd5b508051602082015160408301516060840151608090940151929391929091908085858585838383828282826000620000776001600160e01b036200044616565b600080546001600160a01b0319166001600160a01b0383169081178255604051929350917f8be0079c531659141344cd1fd0a4f28419497f9722a3daafe3b4186f6b6457e0908290a350620000d5816001600160e01b036200044a16565b506003805460ff19169055608082905260a081905260408051600280825260608083018452926020830190803683375050604080516002808252606080830184529495509092509060208301908036833750508351919250680a89e968a9cbe8aa8960bb1b9173eeeeeeeeeeeeeeeeeeeeeeeeeeeeeeeeeeeeeeee915084906000906200015e57fe5b60200260200101836000815181106200017357fe5b602002602001018281525082815250505060001960001b6f14d55414131657d5539312535255115160821b9083600181518110620001ad57fe5b6020026020010183600181518110620001c257fe5b60200260200101828152508281525050506000805160206200391a8339815191528282604051808060200180602001838103835285818151815260200191508051906020019060200280838360005b838110156200022b57818101518382015260200162000211565b50505050905001838103825284818151815260200191508051906020019060200280838360005b838110156200026c57818101518382015260200162000252565b5050505090500194505050505060405180910390a1620002946001600160e01b036200063916565b5050600780546001600160a01b0319166001600160a01b03891617905550606094506001935060009250620002c7915050565b50604051908082528060200260200182016040528015620002f2578160200160208202803683370190505b50604080516001808252818301909252919250606091906020808301908036833701905050905060001960001b7f50524943455f434f4e564552545f5649415f4f5241434c45000000000000000090836000815181106200034f57fe5b60200260200101836000815181106200036457fe5b60200260200101828152508281525050506000805160206200391a8339815191528282604051808060200180602001838103835285818151815260200191508051906020019060200280838360005b83811015620003cd578181015183820152602001620003b3565b50505050905001838103825284818151815260200191508051906020019060200280838360005b838110156200040e578181015183820152602001620003f4565b5050505090500194505050505060405180910390a15050505050506200043a81620006e360201b60201c565b50505050505062000737565b3390565b6200045d6001600160e01b036200044616565b6000546001600160a01b03908116911614620004c0576040805162461bcd60e51b815260206004820181905260248201527f4f776e61626c653a2063616c6c6572206973206e6f7420746865206f776e6572604482015290519081900360640190fd5b6001600160a01b0381166200051c576040805162461bcd60e51b815260206004820152601460248201527f5061796f75743a207a65726f2061646472657373000000000000000000000000604482015290519081900360640190fd5b6001600160a01b0381163014156200057b576040805162461bcd60e51b815260206004820152601f60248201527f5061796f75743a207468697320636f6e7472616374206173207061796f757400604482015290519081900360640190fd5b6001546001600160a01b0382811691161415620005df576040805162461bcd60e51b815260206004820152601a60248201527f5061796f75743a2073616d65207061796f75742077616c6c6574000000000000604482015290519081900360640190fd5b600180546001600160a01b0319166001600160a01b03838116919091179182905560408051929091168252517fdd880d24a789958a6398c99c2e54ce31bc10a638cbc42f7dd34285479ae0f855916020908290030190a150565b60035460ff161562000685576040805162461bcd60e51b815260206004820152601060248201526f14185d5cd8589b194e881c185d5cd95960821b604482015290519081900360640190fd5b6003805460ff191660011790557f62e78cea01bee320cd4e420270b5ea74000d11b0c9f74754ebdbfc544b05a258620006c66001600160e01b036200044616565b604080516001600160a01b039092168252519081900360200190a1565b600880546001600160a01b0383166001600160a01b0319909116811790915560408051918252517ffe70995e26c62b71bbd53a5b9e09215c42e2006fad72ba845051faa8de1510ba9181900360200190a150565b60805160a0516131c46200075660003980611fac5250506131c46000f3fe60806040526004361061016a5760003560e01c8063715018a6116100cb5780639e0495451161007f578063c7b778db11610059578063c7b778db146106f0578063f21f537d146107bf578063f2fde38b146107d45761016a565b80639e0495451461061f578063a963b25714610646578063be9a6555146106db5761016a565b80638488bb4e116100b05780638488bb4e146105f55780638da5cb5b1461060a5780639865bcc81461061f5761016a565b8063715018a6146105cb5780638456cb59146105e05761016a565b80635c4fafc7116101225780635e6e9f70116101075780635e6e9f70146103f857806361bd3851146105335780636b8f9c43146105985761016a565b80635c4fafc7146103ba5780635c975abb146103cf5761016a565b80631694505e116101535780631694505e1461029d5780632a8a45bc146102b25780633f4ba83a146103a35761016a565b80631265b6511461016f5780631323b066146101a0575b600080fd5b34801561017b57600080fd5b50610184610807565b604080516001600160a01b039092168252519081900360200190f35b3480156101ac57600080fd5b50610242600480360360a08110156101c357600080fd5b6001600160a01b03823581169260208101359091169160408201359160608101359181019060a08101608082013564010000000081111561020357600080fd5b82018360208201111561021557600080fd5b8035906020019184600183028401116401000000008311171561023757600080fd5b509092509050610816565b6040518083815260200180602001828103825283818151815260200191508051906020019060200280838360005b83811015610288578181015183820152602001610270565b50505050905001935050505060405180910390f35b3480156102a957600080fd5b5061018461095b565b3480156102be57600080fd5b506102dc600480360360208110156102d557600080fd5b503561096a565b60405180878152602001868152602001858152602001846001600160a01b03166001600160a01b031681526020018060200180602001838103835285818151815260200191508051906020019060200280838360005b8381101561034a578181015183820152602001610332565b50505050905001838103825284818151815260200191508051906020019060200280838360005b83811015610389578181015183820152602001610371565b505050509050019850505050505050505060405180910390f35b3480156103af57600080fd5b506103b8610b15565b005b3480156103c657600080fd5b50610184610bdd565b3480156103db57600080fd5b506103e4610bf5565b604080519115158252519081900360200190f35b34801561040457600080fd5b506103b86004803603606081101561041b57600080fd5b8135919081019060408101602082013564010000000081111561043d57600080fd5b82018360208201111561044f57600080fd5b8035906020019184602083028401116401000000008311171561047157600080fd5b91908080602002602001604051908101604052809392919081815260200183836020028082843760009201919091525092959493602081019350359150506401000000008111156104c157600080fd5b8201836020820111156104d357600080fd5b803590602001918460208302840111640100000000831117156104f557600080fd5b919080806020026020016040519081016040528093929190818152602001838360200280828437600092019190915250929550610bfe945050505050565b34801561053f57600080fd5b50610548610e30565b60408051602080825283518183015283519192839290830191858101910280838360005b8381101561058457818101518382015260200161056c565b505050509050019250505060405180910390f35b3480156105a457600080fd5b506103b8600480360360208110156105bb57600080fd5b50356001600160a01b0316610e8b565b3480156105d757600080fd5b506103b8611078565b3480156105ec57600080fd5b506103b8611139565b34801561060157600080fd5b506101846111ff565b34801561061657600080fd5b5061018461120e565b34801561062b57600080fd5b5061063461121d565b60408051918252519081900360200190f35b6103b8600480360360a081101561065c57600080fd5b6001600160a01b03823581169260208101359091169160408201359160608101359181019060a08101608082013564010000000081111561069c57600080fd5b8201836020820111156106ae57600080fd5b803590602001918460018302840111640100000000831117156106d057600080fd5b509092509050611223565b3480156106e757600080fd5b506103b8611359565b3480156106fc57600080fd5b506105486004803603604081101561071357600080fd5b81019060208101813564010000000081111561072e57600080fd5b82018360208201111561074057600080fd5b8035906020019184602083028401116401000000008311171561076257600080fd5b91939092909160208101903564010000000081111561078057600080fd5b82018360208201111561079257600080fd5b803590602001918460018302840111640100000000831117156107b457600080fd5b5090925090506113cb565b3480156107cb57600080fd5b506106346114b7565b3480156107e057600080fd5b506103b8600480360360208110156107f757600080fd5b50356001600160a01b03166114bd565b6007546001600160a01b031681565b6000606060025460001415610872576040805162461bcd60e51b815260206004820152601660248201527f537461727461626c653a206e6f74207374617274656400000000000000000000604482015290519081900360640190fd5b60035460ff16156108ca576040805162461bcd60e51b815260206004820152601060248201527f5061757361626c653a2070617573656400000000000000000000000000000000604482015290519081900360640190fd5b6108d2612ff9565b6108da6115d4565b6001600160a01b03908116825289811660208084019190915290891660408084019190915260608301899052608083018890528051601f870183900483028101830190915285815290869086908190840183828082843760009201919091525050505060a082015261094b816115d8565b9250925050965096945050505050565b6008546001600160a01b031681565b6000818152600660205260408120819081908190606090819083610990600483016115ff565b825498509050876109e8576040805162461bcd60e51b815260206004820152601660248201527f53616c653a206e6f6e2d6578697374656e7420736b7500000000000000000000604482015290519081900360640190fd5b60018201546002830154600384015491985096506001600160a01b031694508067ffffffffffffffff81118015610a1e57600080fd5b50604051908082528060200260200182016040528015610a48578160200160208202803683370190505b5093508067ffffffffffffffff81118015610a6257600080fd5b50604051908082528060200260200182016040528015610a8c578160200160208202803683370190505b50925060005b81811015610b0957600080610ab0600486018463ffffffff61160316565b915091508160001c878481518110610ac457fe5b60200260200101906001600160a01b031690816001600160a01b0316815250508060001c868481518110610af457fe5b60209081029190910101525050600101610a92565b50505091939550919395565b610b1d6115d4565b6000546001600160a01b03908116911614610b7f576040805162461bcd60e51b815260206004820181905260248201527f4f776e61626c653a2063616c6c6572206973206e6f7420746865206f776e6572604482015290519081900360640190fd5b600254610bd3576040805162461bcd60e51b815260206004820152601660248201527f537461727461626c653a206e6f74207374617274656400000000000000000000604482015290519081900360640190fd5b610bdb611695565b565b73eeeeeeeeeeeeeeeeeeeeeeeeeeeeeeeeeeeeeeee81565b60035460ff1690565b610c066115d4565b6000546001600160a01b03908116911614610c68576040805162461bcd60e51b815260206004820181905260248201527f4f776e61626c653a2063616c6c6572206973206e6f7420746865206f776e6572604482015290519081900360640190fd5b815181518114610ca95760405162461bcd60e51b81526004018080602001828103825260248152602001806131026024913960400191505060405180910390fd5b60008481526006602052604090208054610d0a576040805162461bcd60e51b815260206004820152601660248201527f53616c653a206e6f6e2d6578697374656e7420736b7500000000000000000000604482015290519081900360640190fd5b6004810182610d61576000610d1e826115ff565b905060005b81811015610d5a576000610d3d848263ffffffff61160316565b509050610d50848263ffffffff61173c16565b5050600101610d23565b5050610d6c565b610d6c81868661181c565b857fcb3fe5489e0cd43d0f4a33d1e09a4a0463a03d0d38f56165530854e5540db1438686604051808060200180602001838103835285818151815260200191508051906020019060200280838360005b83811015610dd4578181015183820152602001610dbc565b50505050905001838103825284818151815260200191508051906020019060200280838360005b83811015610e13578181015183820152602001610dfb565b5050505090500194505050505060405180910390a2505050505050565b60606004600001805480602002602001604051908101604052809291908181526020018280548015610e8157602002820191906000526020600020905b815481526020019060010190808311610e6d575b5050505050905090565b610e936115d4565b6000546001600160a01b03908116911614610ef5576040805162461bcd60e51b815260206004820181905260248201527f4f776e61626c653a2063616c6c6572206973206e6f7420746865206f776e6572604482015290519081900360640190fd5b6001600160a01b038116610f50576040805162461bcd60e51b815260206004820152601460248201527f5061796f75743a207a65726f2061646472657373000000000000000000000000604482015290519081900360640190fd5b6001600160a01b038116301415610fae576040805162461bcd60e51b815260206004820152601f60248201527f5061796f75743a207468697320636f6e7472616374206173207061796f757400604482015290519081900360640190fd5b6001546001600160a01b0382811691161415611011576040805162461bcd60e51b815260206004820152601a60248201527f5061796f75743a2073616d65207061796f75742077616c6c6574000000000000604482015290519081900360640190fd5b6001805473ffffffffffffffffffffffffffffffffffffffff19166001600160a01b03838116919091179182905560408051929091168252517fdd880d24a789958a6398c99c2e54ce31bc10a638cbc42f7dd34285479ae0f855916020908290030190a150565b6110806115d4565b6000546001600160a01b039081169116146110e2576040805162461bcd60e51b815260206004820181905260248201527f4f776e61626c653a2063616c6c6572206973206e6f7420746865206f776e6572604482015290519081900360640190fd5b600080546040516001600160a01b03909116907f8be0079c531659141344cd1fd0a4f28419497f9722a3daafe3b4186f6b6457e0908390a36000805473ffffffffffffffffffffffffffffffffffffffff19169055565b6111416115d4565b6000546001600160a01b039081169116146111a3576040805162461bcd60e51b815260206004820181905260248201527f4f776e61626c653a2063616c6c6572206973206e6f7420746865206f776e6572604482015290519081900360640190fd5b6002546111f7576040805162461bcd60e51b815260206004820152601660248201527f537461727461626c653a206e6f74207374617274656400000000000000000000604482015290519081900360640190fd5b610bdb611894565b6001546001600160a01b031681565b6000546001600160a01b031690565b60001981565b600254611277576040805162461bcd60e51b815260206004820152601660248201527f537461727461626c653a206e6f74207374617274656400000000000000000000604482015290519081900360640190fd5b60035460ff16156112cf576040805162461bcd60e51b815260206004820152601060248201527f5061757361626c653a2070617573656400000000000000000000000000000000604482015290519081900360640190fd5b6112d7612ff9565b6112df6115d4565b6001600160a01b03908116825287811660208084019190915290871660408084019190915260608301879052608083018690528051601f850183900483028101830190915283815290849084908190840183828082843760009201919091525050505060a082015261135081611922565b50505050505050565b6113616115d4565b6000546001600160a01b039081169116146113c3576040805162461bcd60e51b815260206004820181905260248201527f4f776e61626c653a2063616c6c6572206973206e6f7420746865206f776e6572604482015290519081900360640190fd5b610bd3611952565b6060838067ffffffffffffffff811180156113e557600080fd5b5060405190808252806020026020018201604052801561140f578160200160208202803683370190505b50915060005b818110156114ad5761148e87878381811061142c57fe5b905060200201356001600160a01b0316600760009054906101000a90046001600160a01b031687878080601f0160208091040260200160405190810160405280939291908181526020018383808284376000920191909152506119d492505050565b83828151811061149a57fe5b6020908102919091010152600101611415565b5050949350505050565b60025490565b6114c56115d4565b6000546001600160a01b03908116911614611527576040805162461bcd60e51b815260206004820181905260248201527f4f776e61626c653a2063616c6c6572206973206e6f7420746865206f776e6572604482015290519081900360640190fd5b6001600160a01b03811661156c5760405162461bcd60e51b81526004018080602001828103825260268152602001806130bb6026913960400191505060405180910390fd5b600080546040516001600160a01b03808516939216917f8be0079c531659141344cd1fd0a4f28419497f9722a3daafe3b4186f6b6457e091a36000805473ffffffffffffffffffffffffffffffffffffffff19166001600160a01b0392909216919091179055565b3390565b600060606115e583611b5e565b6115ee83611e0e565b505060c081015160e0909101519091565b5490565b81546000908190831061165d576040805162461bcd60e51b815260206004820152601c60248201527f456e756d4d61703a20696e646578206f7574206f6620626f756e647300000000604482015290519081900360640190fd5b600084600001848154811061166e57fe5b906000526020600020906002020190508060000154816001015492509250505b9250929050565b60035460ff166116ec576040805162461bcd60e51b815260206004820152601460248201527f5061757361626c653a206e6f7420706175736564000000000000000000000000604482015290519081900360640190fd5b6003805460ff191690557f5db9ee0a495bf2e6ff9c91a7834c1ba4fdd244a5e8aa4e537bd38aeae4b073aa61171f6115d4565b604080516001600160a01b039092168252519081900360200190a1565b60008181526001830160205260408120548015611810578354600019808301919081019060009087908390811061176f57fe5b906000526020600020906002020190508087600001848154811061178f57fe5b6000918252602080832084546002909302019182556001938401549184019190915583548252898301905260409020908401905586548790806117ce57fe5b60008281526020808220600260001990940193840201828155600190810183905592909355888152898201909252604082209190915594506118169350505050565b60009150505b92915050565b611827838383611eb7565b611830836115ff565b158061185457506007546118549084906001600160a01b031663ffffffff61202716565b61188f5760405162461bcd60e51b815260040180806020018281038252602381526020018061316c6023913960400191505060405180910390fd5b505050565b60035460ff16156118ec576040805162461bcd60e51b815260206004820152601060248201527f5061757361626c653a2070617573656400000000000000000000000000000000604482015290519081900360640190fd5b6003805460ff191660011790557f62e78cea01bee320cd4e420270b5ea74000d11b0c9f74754ebdbfc544b05a25861171f6115d4565b61192b81611b5e565b61193481611e0e565b61193d8161203f565b6119468161226f565b61194f8161237f565b50565b600254156119a7576040805162461bcd60e51b815260206004820152601260248201527f537461727461626c653a20737461727465640000000000000000000000000000604482015290519081900360640190fd5b426002557f27029695aa5f602a4ee81f4c32dfa86e562f200a17966496f3a7c3f2ec0f941761171f6115d4565b60006001600160a01b03841673eeeeeeeeeeeeeeeeeeeeeeeeeeeeeeeeeeeeeeee1415611a7857600860009054906101000a90046001600160a01b03166001600160a01b031663ad5c46486040518163ffffffff1660e01b815260040160206040518083038186803b158015611a4957600080fd5b505afa158015611a5d573d6000803e3d6000fd5b505050506040513d6020811015611a7357600080fd5b505193505b6001600160a01b03831673eeeeeeeeeeeeeeeeeeeeeeeeeeeeeeeeeeeeeeee1415611b1a57600860009054906101000a90046001600160a01b03166001600160a01b031663ad5c46486040518163ffffffff1660e01b815260040160206040518083038186803b158015611aeb57600080fd5b505afa158015611aff573d6000803e3d6000fd5b505050506040513d6020811015611b1557600080fd5b505192505b600080611b278686612872565b9092509050611b5482611b4883670de0b6b3a764000063ffffffff61293e16565b9063ffffffff61299e16565b9695505050505050565b60208101516001600160a01b0316611bbd576040805162461bcd60e51b815260206004820152601c60248201527f53616c653a207a65726f206164647265737320726563697069656e7400000000604482015290519081900360640190fd5b60408101516001600160a01b0316611c1c576040805162461bcd60e51b815260206004820152601860248201527f53616c653a207a65726f206164647265737320746f6b656e0000000000000000604482015290519081900360640190fd5b6080810151611c72576040805162461bcd60e51b815260206004820152601c60248201527f53616c653a207a65726f207175616e7469747920707572636861736500000000604482015290519081900360640190fd5b606081015160009081526006602052604090208054611cd8576040805162461bcd60e51b815260206004820152601660248201527f53616c653a206e6f6e2d6578697374656e7420736b7500000000000000000000604482015290519081900360640190fd5b816080015181600201541015611d35576040805162461bcd60e51b815260206004820152601860248201527f53616c653a2061626f7665206d6178207175616e746974790000000000000000604482015290519081900360640190fd5b805460001914611d9c57816080015181600101541015611d9c576040805162461bcd60e51b815260206004820152601960248201527f53616c653a20696e73756666696369656e7420737570706c7900000000000000604482015290519081900360640190fd5b60408201516001600160a01b0316611dbd600483018263ffffffff61202716565b61188f576040805162461bcd60e51b815260206004820152601c60248201527f53616c653a206e6f6e2d6578697374656e7420736b7520746f6b656e00000000604482015290519081900360640190fd5b606081015160009081526006602052604090208054611e74576040805162461bcd60e51b815260206004820152601560248201527f53616c653a20756e737570706f7274656420534b550000000000000000000000604482015290519081900360640190fd5b600481016000611e8484836129e0565b9050611e91848383612a56565b611eb1576080840151611eab90829063ffffffff61293e16565b60c08501525b50505050565b60005b8251811015611fa9576000838281518110611ed157fe5b6020026020010151905060006001600160a01b0316816001600160a01b03161415611f43576040805162461bcd60e51b815260206004820152601860248201527f53616c653a207a65726f206164647265737320746f6b656e0000000000000000604482015290519081900360640190fd5b6000838381518110611f5157fe5b602002602001015190508060001415611f8357611f7d866001600160a01b03841663ffffffff61173c16565b50611f9f565b611f9d866001600160a01b0384168363ffffffff612b5a16565b505b5050600101611eba565b507f0000000000000000000000000000000000000000000000000000000000000000611fd4846115ff565b111561188f576040805162461bcd60e51b815260206004820152601560248201527f53616c653a20746f6f206d616e7920746f6b656e730000000000000000000000604482015290519081900360640190fd5b60009081526001919091016020526040902054151590565b60408101516001600160a01b031673eeeeeeeeeeeeeeeeeeeeeeeeeeeeeeeeeeeeeeee1415612162578060c001513410156120c1576040805162461bcd60e51b815260206004820152601f60248201527f53616c653a20696e73756666696369656e74204554482070726f766964656400604482015290519081900360640190fd5b60015460c08201516040516001600160a01b039092169181156108fc0291906000818181858888f193505050501580156120ff573d6000803e3d6000fd5b5060006121198260c0015134612bf190919063ffffffff16565b9050801561215c5781516040516001600160a01b039091169082156108fc029083906000818181858888f1935050505015801561215a573d6000803e3d6000fd5b505b5061194f565b80604001516001600160a01b03166323b872dd61217d6115d4565b60015460c0850151604080517fffffffff0000000000000000000000000000000000000000000000000000000060e087901b1681526001600160a01b03948516600482015293909216602484015260448301525160648083019260209291908290030181600087803b1580156121f257600080fd5b505af1158015612206573d6000803e3d6000fd5b505050506040513d602081101561221c57600080fd5b505161194f576040805162461bcd60e51b815260206004820152601a60248201527f53616c653a204552433230207061796d656e74206661696c6564000000000000604482015290519081900360640190fd5b61227761306a565b6060808301516000908152600660209081526040808320815160a0810183528154815260018201548185015260028201548184015260038201546001600160a01b031695810195909552815160048201805480860283018501855294820185815292956080880195929491938593909285929085015b82821015612333578382906000526020600020906002020160405180604001604052908160008201548152602001600182015481525050815260200190600101906122ed565b5050509152505090525080519091506000191461237b57608082015160208201516123639163ffffffff612bf116565b60608301516000908152600660205260409020600101555b5050565b806060015181604001516001600160a01b031682600001516001600160a01b03167f29f844483ca6b10b5c0611d039afc15ce8f6380e905307b381c3a8ee4e90e11e846020015185608001518660a001518760c001518860e001518961010001518a610120015160405160200180848051906020019060200280838360005b838110156124165781810151838201526020016123fe565b50505050905001838051906020019060200280838360005b8381101561244657818101518382015260200161242e565b50505050905001828051906020019060200280838360005b8381101561247657818101518382015260200161245e565b50505050905001935050505060405160208183030381529060405260405180866001600160a01b03166001600160a01b031681526020018581526020018060200184815260200180602001838103835286818151815260200191508051906020019080838360005b838110156124f65781810151838201526020016124de565b50505050905090810190601f1680156125235780820380516001836020036101000a031916815260200191505b50838103825284518152845160209182019186019080838360005b8381101561255657818101518382015260200161253e565b50505050905090810190601f1680156125835780820380516001836020036101000a031916815260200191505b5097505050505050505060405180910390a460608101516000908152600660205260409020600301546001600160a01b0316801561237b576361eceae860e01b7bffffffffffffffffffffffffffffffffffffffffffffffffffffffff1916816001600160a01b03166361eceae8846000015185602001518660400151876060015188608001518960a001518a60c001518b60e001518c61010001518d61012001516040518b63ffffffff1660e01b8152600401808b6001600160a01b03166001600160a01b031681526020018a6001600160a01b03166001600160a01b03168152602001896001600160a01b03166001600160a01b031681526020018881526020018781526020018060200186815260200180602001806020018060200185810385528a818151815260200191508051906020019080838360005b838110156126d75781810151838201526020016126bf565b50505050905090810190601f1680156127045780820380516001836020036101000a031916815260200191505b508581038452885181528851602091820191808b01910280838360005b83811015612739578181015183820152602001612721565b50505050905001858103835287818151815260200191508051906020019060200280838360005b83811015612778578181015183820152602001612760565b50505050905001858103825286818151815260200191508051906020019060200280838360005b838110156127b757818101518382015260200161279f565b505050509050019e505050505050505050505050505050602060405180830381600087803b1580156127e857600080fd5b505af11580156127fc573d6000803e3d6000fd5b505050506040513d602081101561281257600080fd5b50517fffffffff00000000000000000000000000000000000000000000000000000000161461237b5760405162461bcd60e51b815260040180806020018281038252602181526020018061314b6021913960400191505060405180910390fd5b60008060006128818585612c33565b5090506000806128918787612d0a565b6001600160a01b0316630902f1ac6040518163ffffffff1660e01b815260040160606040518083038186803b1580156128c957600080fd5b505afa1580156128dd573d6000803e3d6000fd5b505050506040513d60608110156128f357600080fd5b5080516020909101516dffffffffffffffffffffffffffff91821693501690506001600160a01b038781169084161461292d578082612930565b81815b909890975095505050505050565b60008261294d57506000611816565b8282028284828161295a57fe5b04146129975760405162461bcd60e51b81526004018080602001828103825260218152602001806130e16021913960400191505060405180910390fd5b9392505050565b600061299783836040518060400160405280601a81526020017f536166654d6174683a206469766973696f6e206279207a65726f000000000000815250612e6d565b6040820151600090612a029083906001600160a01b031663ffffffff612f0f16565b905080611816576040805162461bcd60e51b815260206004820152601f60248201527f53616c653a20756e737570706f72746564207061796d656e7420746f6b656e00604482015290519081900360640190fd5b60006000198214612a6957506000612997565b600754600090612a899085906001600160a01b031663ffffffff612f0f16565b604086015160075460a0880151929350600092612ab092916001600160a01b0316906119d4565b90506000612ae78760800151612adb84611b48670de0b6b3a76400008861293e90919063ffffffff16565b9063ffffffff61293e16565b604080516002808252606082018352929350919060208301908036833750505060e088018190528051869190600090612b1c57fe5b6020026020010181815250508160001b8760e00151600181518110612b3d57fe5b602090810291909101015260c08701525060019150509392505050565b600082815260018401602052604081205480612bbf575050604080518082018252838152602080820184815286546001818101895560008981528481209551600290930290950191825591519082015586548684528188019092529290912055612997565b82856000016001830381548110612bd257fe5b9060005260206000209060020201600101819055506000915050612997565b600061299783836040518060400160405280601e81526020017f536166654d6174683a207375627472616374696f6e206f766572666c6f770000815250612f9f565b600080826001600160a01b0316846001600160a01b03161415612c875760405162461bcd60e51b81526004018080602001828103825260258152602001806131266025913960400191505060405180910390fd5b826001600160a01b0316846001600160a01b031610612ca7578284612caa565b83835b90925090506001600160a01b03821661168e576040805162461bcd60e51b815260206004820152601e60248201527f556e69737761705632416461707465723a205a45524f5f414444524553530000604482015290519081900360640190fd5b6000806000612d198585612c33565b91509150600860009054906101000a90046001600160a01b03166001600160a01b031663c45a01556040518163ffffffff1660e01b815260040160206040518083038186803b158015612d6b57600080fd5b505afa158015612d7f573d6000803e3d6000fd5b505050506040513d6020811015612d9557600080fd5b5051604080517fffffffffffffffffffffffffffffffffffffffff000000000000000000000000606095861b811660208381019190915294861b81166034830152825160288184030181526048830184528051908601207fff0000000000000000000000000000000000000000000000000000000000000060688401529390951b9094166069850152607d8401919091527f96e8ac4277198ff8b6f785478aa9a39f403cb768dd02cbee326c3e7da348845f609d808501919091528151808503909101815260bd909301905281519101209392505050565b60008183612ef95760405162461bcd60e51b81526004018080602001828103825283818151815260200191508051906020019080838360005b83811015612ebe578181015183820152602001612ea6565b50505050905090810190601f168015612eeb5780820380516001836020036101000a031916815260200191505b509250505060405180910390fd5b506000838581612f0557fe5b0495945050505050565b600081815260018301602052604081205480612f72576040805162461bcd60e51b815260206004820152601860248201527f456e756d4d61703a206e6f6e6578697374656e74206b65790000000000000000604482015290519081900360640190fd5b836000016001820381548110612f8457fe5b90600052602060002090600202016001015491505092915050565b60008184841115612ff15760405162461bcd60e51b8152602060048201818152835160248401528351909283926044909101919085019080838360008315612ebe578181015183820152602001612ea6565b505050900390565b60405180610140016040528060006001600160a01b0316815260200160006001600160a01b0316815260200160006001600160a01b03168152602001600080191681526020016000815260200160608152602001600081526020016060815260200160608152602001606081525090565b6040518060a0016040528060008152602001600081526020016000815260200160006001600160a01b031681526020016130a26130a7565b905290565b604051806020016040528060608152509056fe4f776e61626c653a206e6577206f776e657220697320746865207a65726f2061646472657373536166654d6174683a206d756c7469706c69636174696f6e206f766572666c6f7753616c653a20746f6b656e732f707269636573206c656e67746873206d69736d61746368556e69737761705632416461707465723a204944454e544943414c5f41444452455353455353616c653a2077726f6e672072656365697665722072657475726e2076616c75654f7261636c6553616c653a206d697373696e67207265666572656e636520746f6b656ea26469706673582212209589e84b943446fd138976478e52adb84c4d67e775cb2b11823f0b72f4200a4f64736f6c63430006080033abb92614f53337043b55dc996a83ebb09adce78ec336ca188ea02180b61d1c14",
  "linkReferences": {},
  "deployedLinkReferences": {}
}