{
  "_format": "hh-sol-artifact-1",
  "contractName": "FixedOrderInventorySaleMock",
  "sourceName": "contracts/mocks/sale/FixedOrderInventorySaleMock.sol",
  "abi": [
    {
      "inputs": [
        {
          "internalType": "address",
          "name": "inventory_",
          "type": "address"
        },
        {
          "internalType": "address",
          "name": "payoutWallet",
          "type": "address"
        },
        {
          "internalType": "uint256",
          "name": "tokensPerSkuCapacity",
          "type": "uint256"
        }
      ],
      "stateMutability": "nonpayable",
      "type": "constructor"
    },
    {
      "anonymous": false,
      "inputs": [
        {
          "indexed": false,
          "internalType": "bytes32[]",
          "name": "tokens",
          "type": "bytes32[]"
        }
      ],
      "name": "DeliveryData",
      "type": "event"
    },
    {
      "anonymous": false,
      "inputs": [
        {
          "indexed": false,
          "internalType": "bytes32[]",
          "name": "names",
          "type": "bytes32[]"
        },
        {
          "indexed": false,
          "internalType": "bytes32[]",
          "name": "values",
          "type": "bytes32[]"
        }
      ],
      "name": "MagicValues",
      "type": "event"
    },
    {
      "anonymous": false,
      "inputs": [
        {
          "indexed": true,
          "internalType": "address",
          "name": "previousOwner",
          "type": "address"
        },
        {
          "indexed": true,
          "internalType": "address",
          "name": "newOwner",
          "type": "address"
        }
      ],
      "name": "OwnershipTransferred",
      "type": "event"
    },
    {
      "anonymous": false,
      "inputs": [
        {
          "indexed": false,
          "internalType": "address",
          "name": "account",
          "type": "address"
        }
      ],
      "name": "Paused",
      "type": "event"
    },
    {
      "anonymous": false,
      "inputs": [
        {
          "indexed": false,
          "internalType": "address",
          "name": "payoutWallet_",
          "type": "address"
        }
      ],
      "name": "PayoutWalletSet",
      "type": "event"
    },
    {
      "anonymous": false,
      "inputs": [
        {
          "indexed": true,
          "internalType": "address",
          "name": "purchaser",
          "type": "address"
        },
        {
          "indexed": false,
          "internalType": "address",
          "name": "recipient",
          "type": "address"
        },
        {
          "indexed": true,
          "internalType": "address",
          "name": "token",
          "type": "address"
        },
        {
          "indexed": true,
          "internalType": "bytes32",
          "name": "sku",
          "type": "bytes32"
        },
        {
          "indexed": false,
          "internalType": "uint256",
          "name": "quantity",
          "type": "uint256"
        },
        {
          "indexed": false,
          "internalType": "bytes",
          "name": "userData",
          "type": "bytes"
        },
        {
          "indexed": false,
          "internalType": "uint256",
          "name": "totalPrice",
          "type": "uint256"
        },
        {
          "indexed": false,
          "internalType": "bytes",
          "name": "extData",
          "type": "bytes"
        }
      ],
      "name": "Purchase",
      "type": "event"
    },
    {
      "anonymous": false,
      "inputs": [
        {
          "indexed": false,
          "internalType": "bytes32",
          "name": "sku",
          "type": "bytes32"
        },
        {
          "indexed": false,
          "internalType": "uint256",
          "name": "totalSupply",
          "type": "uint256"
        },
        {
          "indexed": false,
          "internalType": "uint256",
          "name": "maxQuantityPerPurchase",
          "type": "uint256"
        },
        {
          "indexed": false,
          "internalType": "address",
          "name": "notificationsReceiver",
          "type": "address"
        }
      ],
      "name": "SkuCreation",
      "type": "event"
    },
    {
      "anonymous": false,
      "inputs": [
        {
          "indexed": true,
          "internalType": "bytes32",
          "name": "sku",
          "type": "bytes32"
        },
        {
          "indexed": false,
          "internalType": "address[]",
          "name": "tokens",
          "type": "address[]"
        },
        {
          "indexed": false,
          "internalType": "uint256[]",
          "name": "prices",
          "type": "uint256[]"
        }
      ],
      "name": "SkuPricingUpdate",
      "type": "event"
    },
    {
      "anonymous": false,
      "inputs": [
        {
          "indexed": false,
          "internalType": "address",
          "name": "account",
          "type": "address"
        }
      ],
      "name": "Started",
      "type": "event"
    },
    {
      "anonymous": false,
      "inputs": [
        {
          "indexed": false,
          "internalType": "address",
          "name": "account",
          "type": "address"
        }
      ],
      "name": "Unpaused",
      "type": "event"
    },
    {
      "inputs": [],
      "name": "SUPPLY_UNLIMITED",
      "outputs": [
        {
          "internalType": "uint256",
          "name": "",
          "type": "uint256"
        }
      ],
      "stateMutability": "view",
      "type": "function"
    },
    {
      "inputs": [],
      "name": "TOKEN_ETH",
      "outputs": [
        {
          "internalType": "address",
          "name": "",
          "type": "address"
        }
      ],
      "stateMutability": "view",
      "type": "function"
    },
    {
      "inputs": [
        {
          "internalType": "uint256[]",
          "name": "tokens",
          "type": "uint256[]"
        }
      ],
      "name": "addSupply",
      "outputs": [],
      "stateMutability": "nonpayable",
      "type": "function"
    },
    {
      "inputs": [
        {
          "internalType": "bytes32",
          "name": "sku",
          "type": "bytes32"
        },
        {
          "internalType": "uint256",
          "name": "maxQuantityPerPurchase",
          "type": "uint256"
        },
        {
          "internalType": "address",
          "name": "notificationsReceiver",
          "type": "address"
        }
      ],
      "name": "createSku",
      "outputs": [],
      "stateMutability": "nonpayable",
      "type": "function"
    },
    {
      "inputs": [
        {
          "internalType": "address payable",
          "name": "recipient",
          "type": "address"
        },
        {
          "internalType": "address",
          "name": "token",
          "type": "address"
        },
        {
          "internalType": "bytes32",
          "name": "sku",
          "type": "bytes32"
        },
        {
          "internalType": "uint256",
          "name": "quantity",
          "type": "uint256"
        },
        {
          "internalType": "bytes",
          "name": "userData",
          "type": "bytes"
        }
      ],
      "name": "estimatePurchase",
      "outputs": [
        {
          "internalType": "uint256",
          "name": "totalPrice",
          "type": "uint256"
        },
        {
          "internalType": "bytes32[]",
          "name": "pricingData",
          "type": "bytes32[]"
        }
      ],
      "stateMutability": "view",
      "type": "function"
    },
    {
      "inputs": [],
      "name": "getSkuCapacity",
      "outputs": [
        {
          "internalType": "uint256",
          "name": "",
          "type": "uint256"
        }
      ],
      "stateMutability": "view",
      "type": "function"
    },
    {
      "inputs": [
        {
          "internalType": "bytes32",
          "name": "sku",
          "type": "bytes32"
        }
      ],
      "name": "getSkuInfo",
      "outputs": [
        {
          "internalType": "uint256",
          "name": "totalSupply",
          "type": "uint256"
        },
        {
          "internalType": "uint256",
          "name": "remainingSupply",
          "type": "uint256"
        },
        {
          "internalType": "uint256",
          "name": "maxQuantityPerPurchase",
          "type": "uint256"
        },
        {
          "internalType": "address",
          "name": "notificationsReceiver",
          "type": "address"
        },
        {
          "internalType": "address[]",
          "name": "tokens",
          "type": "address[]"
        },
        {
          "internalType": "uint256[]",
          "name": "prices",
          "type": "uint256[]"
        }
      ],
      "stateMutability": "view",
      "type": "function"
    },
    {
      "inputs": [],
      "name": "getSkus",
      "outputs": [
        {
          "internalType": "bytes32[]",
          "name": "skus",
          "type": "bytes32[]"
        }
      ],
      "stateMutability": "view",
      "type": "function"
    },
    {
      "inputs": [],
      "name": "getTokenList",
      "outputs": [
        {
          "internalType": "uint256[]",
          "name": "",
          "type": "uint256[]"
        }
      ],
      "stateMutability": "view",
      "type": "function"
    },
    {
      "inputs": [],
      "name": "getTokensPerSkuCapacity",
      "outputs": [
        {
          "internalType": "uint256",
          "name": "",
          "type": "uint256"
        }
      ],
      "stateMutability": "view",
      "type": "function"
    },
    {
      "inputs": [],
      "name": "getTotalSupply",
      "outputs": [
        {
          "internalType": "uint256",
          "name": "",
          "type": "uint256"
        }
      ],
      "stateMutability": "view",
      "type": "function"
    },
    {
      "inputs": [],
      "name": "inventory",
      "outputs": [
        {
          "internalType": "address",
          "name": "",
          "type": "address"
        }
      ],
      "stateMutability": "view",
      "type": "function"
    },
    {
      "inputs": [],
      "name": "owner",
      "outputs": [
        {
          "internalType": "address",
          "name": "",
          "type": "address"
        }
      ],
      "stateMutability": "view",
      "type": "function"
    },
    {
      "inputs": [],
      "name": "pause",
      "outputs": [],
      "stateMutability": "nonpayable",
      "type": "function"
    },
    {
      "inputs": [],
      "name": "paused",
      "outputs": [
        {
          "internalType": "bool",
          "name": "",
          "type": "bool"
        }
      ],
      "stateMutability": "view",
      "type": "function"
    },
    {
      "inputs": [],
      "name": "payoutWallet",
      "outputs": [
        {
          "internalType": "address payable",
          "name": "",
          "type": "address"
        }
      ],
      "stateMutability": "view",
      "type": "function"
    },
    {
      "inputs": [
        {
          "internalType": "address payable",
          "name": "recipient",
          "type": "address"
        },
        {
          "internalType": "address",
          "name": "token",
          "type": "address"
        },
        {
          "internalType": "bytes32",
          "name": "sku",
          "type": "bytes32"
        },
        {
          "internalType": "uint256",
          "name": "quantity",
          "type": "uint256"
        },
        {
          "internalType": "bytes",
          "name": "userData",
          "type": "bytes"
        }
      ],
      "name": "purchaseFor",
      "outputs": [],
      "stateMutability": "payable",
      "type": "function"
    },
    {
      "inputs": [],
      "name": "renounceOwnership",
      "outputs": [],
      "stateMutability": "nonpayable",
      "type": "function"
    },
    {
      "inputs": [
        {
          "internalType": "address",
          "name": "payoutWallet_",
          "type": "address"
        }
      ],
      "name": "setPayoutWallet",
      "outputs": [],
      "stateMutability": "nonpayable",
      "type": "function"
    },
    {
      "inputs": [
        {
          "internalType": "uint256[]",
          "name": "indexes",
          "type": "uint256[]"
        },
        {
          "internalType": "uint256[]",
          "name": "tokens",
          "type": "uint256[]"
        }
      ],
      "name": "setSupply",
      "outputs": [],
      "stateMutability": "nonpayable",
      "type": "function"
    },
    {
      "inputs": [],
      "name": "start",
      "outputs": [],
      "stateMutability": "nonpayable",
      "type": "function"
    },
    {
      "inputs": [],
      "name": "startedAt",
      "outputs": [
        {
          "internalType": "uint256",
          "name": "",
          "type": "uint256"
        }
      ],
      "stateMutability": "view",
      "type": "function"
    },
    {
      "inputs": [],
      "name": "tokenIndex",
      "outputs": [
        {
          "internalType": "uint256",
          "name": "",
          "type": "uint256"
        }
      ],
      "stateMutability": "view",
      "type": "function"
    },
    {
      "inputs": [
        {
          "internalType": "uint256",
          "name": "",
          "type": "uint256"
        }
      ],
      "name": "tokenList",
      "outputs": [
        {
          "internalType": "uint256",
          "name": "",
          "type": "uint256"
        }
      ],
      "stateMutability": "view",
      "type": "function"
    },
    {
      "inputs": [
        {
          "internalType": "address",
          "name": "newOwner",
          "type": "address"
        }
      ],
      "name": "transferOwnership",
      "outputs": [],
      "stateMutability": "nonpayable",
      "type": "function"
    },
    {
      "inputs": [
        {
          "internalType": "address payable",
          "name": "recipient",
          "type": "address"
        },
        {
          "internalType": "address",
          "name": "token",
          "type": "address"
        },
        {
          "internalType": "bytes32",
          "name": "sku",
          "type": "bytes32"
        },
        {
          "internalType": "uint256",
          "name": "quantity",
          "type": "uint256"
        },
        {
          "internalType": "bytes",
          "name": "userData",
          "type": "bytes"
        },
        {
          "internalType": "uint256",
          "name": "totalPrice",
          "type": "uint256"
        },
        {
          "internalType": "bytes32[]",
          "name": "pricingData",
          "type": "bytes32[]"
        },
        {
          "internalType": "bytes32[]",
          "name": "paymentData",
          "type": "bytes32[]"
        }
      ],
      "name": "underscoreDelivery",
      "outputs": [],
      "stateMutability": "nonpayable",
      "type": "function"
    },
    {
      "inputs": [],
      "name": "unpause",
      "outputs": [],
      "stateMutability": "nonpayable",
      "type": "function"
    },
    {
      "inputs": [
        {
          "internalType": "bytes32",
          "name": "sku",
          "type": "bytes32"
        },
        {
          "internalType": "address[]",
          "name": "tokens",
          "type": "address[]"
        },
        {
          "internalType": "uint256[]",
          "name": "prices",
          "type": "uint256[]"
        }
      ],
      "name": "updateSkuPricing",
      "outputs": [],
      "stateMutability": "nonpayable",
      "type": "function"
    }
  ],
  "bytecode": "0x60e06040523480156200001157600080fd5b5060405162003ec538038062003ec5833981810160405260608110156200003757600080fd5b508051602082015160409092015190919082828281600182828282826000620000686001600160e01b036200030516565b600080546001600160a01b0319166001600160a01b0383169081178255604051929350917f8be0079c531659141344cd1fd0a4f28419497f9722a3daafe3b4186f6b6457e0908290a350620000c6816001600160e01b036200030916565b506003805460ff19169055608082905260a081905260408051600280825260608083018452926020830190803683375050604080516002808252606080830184529495509092509060208301908036833750508351919250680a89e968a9cbe8aa8960bb1b9173eeeeeeeeeeeeeeeeeeeeeeeeeeeeeeeeeeeeeeee915084906000906200014f57fe5b60200260200101836000815181106200016457fe5b602002602001018281525082815250505060001960001b6f14d55414131657d5539312535255115160821b90836001815181106200019e57fe5b6020026020010183600181518110620001b357fe5b60200260200101828152508281525050507fabb92614f53337043b55dc996a83ebb09adce78ec336ca188ea02180b61d1c148282604051808060200180602001838103835285818151815260200191508051906020019060200280838360005b838110156200022d57818101518382015260200162000213565b50505050905001838103825284818151815260200191508051906020019060200280838360005b838110156200026e57818101518382015260200162000254565b5050505090500194505050505060405180910390a1620002966001600160e01b03620004f816565b50505050506001600160a01b03861615159250620002e99150505760405162461bcd60e51b815260040180806020018281038252602f81526020018062003e96602f913960400191505060405180910390fd5b505060601b6001600160601b03191660c05250620005a2915050565b3390565b6200031c6001600160e01b036200030516565b6000546001600160a01b039081169116146200037f576040805162461bcd60e51b815260206004820181905260248201527f4f776e61626c653a2063616c6c6572206973206e6f7420746865206f776e6572604482015290519081900360640190fd5b6001600160a01b038116620003db576040805162461bcd60e51b815260206004820152601460248201527f5061796f75743a207a65726f2061646472657373000000000000000000000000604482015290519081900360640190fd5b6001600160a01b0381163014156200043a576040805162461bcd60e51b815260206004820152601f60248201527f5061796f75743a207468697320636f6e7472616374206173207061796f757400604482015290519081900360640190fd5b6001546001600160a01b03828116911614156200049e576040805162461bcd60e51b815260206004820152601a60248201527f5061796f75743a2073616d65207061796f75742077616c6c6574000000000000604482015290519081900360640190fd5b600180546001600160a01b0319166001600160a01b03838116919091179182905560408051929091168252517fdd880d24a789958a6398c99c2e54ce31bc10a638cbc42f7dd34285479ae0f855916020908290030190a150565b60035460ff161562000544576040805162461bcd60e51b815260206004820152601060248201526f14185d5cd8589b194e881c185d5cd95960821b604482015290519081900360640190fd5b6003805460ff191660011790557f62e78cea01bee320cd4e420270b5ea74000d11b0c9f74754ebdbfc544b05a258620005856001600160e01b036200030516565b604080516001600160a01b039092168252519081900360200190a1565b60805160a05160c05160601c6138ba620005dc60003980610e315250806113e952806122c45250806112fd528061242152506138ba6000f3fe6080604052600436106101b75760003560e01c8063715018a6116100ec578063a963b2571161008a578063cf3ae77b11610064578063cf3ae77b14610a64578063d55f927314610b14578063f21f537d14610b29578063f2fde38b14610b3e576101b7565b8063a963b257146109a5578063be9a655514610a3a578063c4e41b2214610a4f576101b7565b806385b3cfac116100c657806385b3cfac146109125780638da5cb5b146109515780639e049545146109665780639ead72221461097b576101b7565b8063715018a6146108d35780638456cb59146108e85780638488bb4e146108fd576101b7565b80633f4ba83a116101595780635c975abb116101335780635c975abb146107275780635e6e9f701461075057806361bd38511461088b5780636b8f9c43146108a0576101b7565b80633f4ba83a146106e8578063451b31a2146106fd5780635c4fafc714610712576101b7565b806323f927c91161019557806323f927c914610437578063273cbaa01461056b5780632a8a45bc146105d05780633628bd93146106c1576101b7565b80631323b066146101bc57806315469171146102b957806315d52a5c14610406575b600080fd5b3480156101c857600080fd5b5061025e600480360360a08110156101df57600080fd5b6001600160a01b03823581169260208101359091169160408201359160608101359181019060a08101608082013564010000000081111561021f57600080fd5b82018360208201111561023157600080fd5b8035906020019184600183028401116401000000008311171561025357600080fd5b509092509050610b71565b6040518083815260200180602001828103825283818151815260200191508051906020019060200280838360005b838110156102a457818101518382015260200161028c565b50505050905001935050505060405180910390f35b3480156102c557600080fd5b5061040460048036036101008110156102dd57600080fd5b6001600160a01b03823581169260208101359091169160408201359160608101359181019060a08101608082013564010000000081111561031d57600080fd5b82018360208201111561032f57600080fd5b8035906020019184600183028401116401000000008311171561035157600080fd5b9193909282359260408101906020013564010000000081111561037357600080fd5b82018360208201111561038557600080fd5b803590602001918460208302840111640100000000831117156103a757600080fd5b9193909290916020810190356401000000008111156103c557600080fd5b8201836020820111156103d757600080fd5b803590602001918460208302840111640100000000831117156103f957600080fd5b509092509050610cb6565b005b34801561041257600080fd5b5061041b610e2f565b604080516001600160a01b039092168252519081900360200190f35b34801561044357600080fd5b506104046004803603604081101561045a57600080fd5b81019060208101813564010000000081111561047557600080fd5b82018360208201111561048757600080fd5b803590602001918460208302840111640100000000831117156104a957600080fd5b91908080602002602001604051908101604052809392919081815260200183836020028082843760009201919091525092959493602081019350359150506401000000008111156104f957600080fd5b82018360208201111561050b57600080fd5b8035906020019184602083028401116401000000008311171561052d57600080fd5b919080806020026020016040519081016040528093929190818152602001838360200280828437600092019190915250929550610e53945050505050565b34801561057757600080fd5b506105806110f8565b60408051602080825283518183015283519192839290830191858101910280838360005b838110156105bc5781810151838201526020016105a4565b505050509050019250505060405180910390f35b3480156105dc57600080fd5b506105fa600480360360208110156105f357600080fd5b5035611150565b60405180878152602001868152602001858152602001846001600160a01b03166001600160a01b031681526020018060200180602001838103835285818151815260200191508051906020019060200280838360005b83811015610668578181015183820152602001610650565b50505050905001838103825284818151815260200191508051906020019060200280838360005b838110156106a757818101518382015260200161068f565b505050509050019850505050505050505060405180910390f35b3480156106cd57600080fd5b506106d66112fb565b60408051918252519081900360200190f35b3480156106f457600080fd5b5061040461131f565b34801561070957600080fd5b506106d66113e7565b34801561071e57600080fd5b5061041b61140b565b34801561073357600080fd5b5061073c611423565b604080519115158252519081900360200190f35b34801561075c57600080fd5b506104046004803603606081101561077357600080fd5b8135919081019060408101602082013564010000000081111561079557600080fd5b8201836020820111156107a757600080fd5b803590602001918460208302840111640100000000831117156107c957600080fd5b919080806020026020016040519081016040528093929190818152602001838360200280828437600092019190915250929594936020810193503591505064010000000081111561081957600080fd5b82018360208201111561082b57600080fd5b8035906020019184602083028401116401000000008311171561084d57600080fd5b91908080602002602001604051908101604052809392919081815260200183836020028082843760009201919091525092955061142c945050505050565b34801561089757600080fd5b5061058061165e565b3480156108ac57600080fd5b50610404600480360360208110156108c357600080fd5b50356001600160a01b03166116b7565b3480156108df57600080fd5b506104046118a4565b3480156108f457600080fd5b50610404611965565b34801561090957600080fd5b5061041b611a2b565b34801561091e57600080fd5b506104046004803603606081101561093557600080fd5b50803590602081013590604001356001600160a01b0316611a3a565b34801561095d57600080fd5b5061041b611a4f565b34801561097257600080fd5b506106d6611a5e565b34801561098757600080fd5b506106d66004803603602081101561099e57600080fd5b5035611a64565b610404600480360360a08110156109bb57600080fd5b6001600160a01b03823581169260208101359091169160408201359160608101359181019060a0810160808201356401000000008111156109fb57600080fd5b820183602082011115610a0d57600080fd5b80359060200191846001830284011164010000000083111715610a2f57600080fd5b509092509050611a82565b348015610a4657600080fd5b50610404611baf565b348015610a5b57600080fd5b506106d6611c21565b348015610a7057600080fd5b5061040460048036036020811015610a8757600080fd5b810190602081018135640100000000811115610aa257600080fd5b820183602082011115610ab457600080fd5b80359060200191846020830284011164010000000083111715610ad657600080fd5b919080806020026020016040519081016040528093929190818152602001838360200280828437600092019190915250929550611c27945050505050565b348015610b2057600080fd5b506106d6611db4565b348015610b3557600080fd5b506106d6611dba565b348015610b4a57600080fd5b5061040460048036036020811015610b6157600080fd5b50356001600160a01b0316611dc0565b6000606060025460001415610bcd576040805162461bcd60e51b815260206004820152601660248201527f537461727461626c653a206e6f74207374617274656400000000000000000000604482015290519081900360640190fd5b60035460ff1615610c25576040805162461bcd60e51b815260206004820152601060248201527f5061757361626c653a2070617573656400000000000000000000000000000000604482015290519081900360640190fd5b610c2d6135ef565b610c35611ed7565b6001600160a01b03908116825289811660208084019190915290891660408084019190915260608301899052608083018890528051601f870183900483028101830190915285815290869086908190840183828082843760009201919091525050505060a0820152610ca681611edb565b9250925050965096945050505050565b610cbe6135ef565b610cc6611ed7565b6001600160a01b0390811682528c8116602080840191909152908c16604080840191909152606083018c9052608083018b90528051601f8a0183900483028101830190915288815290899089908190840183828082843760009201919091525050505060a082015260c081018690526040805160208087028281018201909352868252909187918791829185019084908082843760009201919091525050505060e082015260408051602080850282810182019093528482529091859185918291850190849080828437600092019190915250505050610100820152610dab81611f02565b61012081015160408051602080825283518183015283517ff94e453c69afa2e43777ec90f3a26bcfc9ac74969e1c25a72b056b9f81c93b339493839290830191818601910280838360005b83811015610e0e578181015183820152602001610df6565b505050509050019250505060405180910390a1505050505050505050505050565b7f000000000000000000000000000000000000000000000000000000000000000081565b610e5b611ed7565b6000546001600160a01b03908116911614610ebd576040805162461bcd60e51b815260206004820181905260248201527f4f776e61626c653a2063616c6c6572206973206e6f7420746865206f776e6572604482015290519081900360640190fd5b60035460ff16610f14576040805162461bcd60e51b815260206004820152601460248201527f5061757361626c653a206e6f7420706175736564000000000000000000000000604482015290519081900360640190fd5b60085480610f535760405162461bcd60e51b81526004018080602001828103825260298152602001806138156029913960400191505060405180910390fd5b825180610f915760405162461bcd60e51b815260040180806020018281038252602681526020018061385f6026913960400191505060405180910390fd5b8251818114610fd15760405162461bcd60e51b815260040180806020018281038252602e8152602001806136b1602e913960400191505060405180910390fd5b60075460005b8381146110ef576000878281518110610fec57fe5b60200260200101519050828110156110355760405162461bcd60e51b81526004018080602001828103825260268152602001806137cc6026913960400191505060405180910390fd5b8581106110735760405162461bcd60e51b815260040180806020018281038252602c81526020018061375b602c913960400191505060405180910390fd5b600087838151811061108157fe5b6020026020010151905080600014156110cb5760405162461bcd60e51b81526004018080602001828103825260238152602001806137f26023913960400191505060405180910390fd5b80600883815481106110d957fe5b6000918252602090912001555050600101610fd7565b50505050505050565b6060600880548060200260200160405190810160405280929190818152602001828054801561114657602002820191906000526020600020905b815481526020019060010190808311611132575b5050505050905090565b600081815260066020526040812081908190819060609081908361117660048301611fb3565b825498509050876111ce576040805162461bcd60e51b815260206004820152601660248201527f53616c653a206e6f6e2d6578697374656e7420736b7500000000000000000000604482015290519081900360640190fd5b60018201546002830154600384015491985096506001600160a01b031694508067ffffffffffffffff8111801561120457600080fd5b5060405190808252806020026020018201604052801561122e578160200160208202803683370190505b5093508067ffffffffffffffff8111801561124857600080fd5b50604051908082528060200260200182016040528015611272578160200160208202803683370190505b50925060005b818110156112ef57600080611296600486018463ffffffff611fb716565b915091508160001c8784815181106112aa57fe5b60200260200101906001600160a01b031690816001600160a01b0316815250508060001c8684815181106112da57fe5b60209081029190910101525050600101611278565b50505091939550919395565b7f000000000000000000000000000000000000000000000000000000000000000090565b611327611ed7565b6000546001600160a01b03908116911614611389576040805162461bcd60e51b815260206004820181905260248201527f4f776e61626c653a2063616c6c6572206973206e6f7420746865206f776e6572604482015290519081900360640190fd5b6002546113dd576040805162461bcd60e51b815260206004820152601660248201527f537461727461626c653a206e6f74207374617274656400000000000000000000604482015290519081900360640190fd5b6113e5612048565b565b7f000000000000000000000000000000000000000000000000000000000000000090565b73eeeeeeeeeeeeeeeeeeeeeeeeeeeeeeeeeeeeeeee81565b60035460ff1690565b611434611ed7565b6000546001600160a01b03908116911614611496576040805162461bcd60e51b815260206004820181905260248201527f4f776e61626c653a2063616c6c6572206973206e6f7420746865206f776e6572604482015290519081900360640190fd5b8151815181146114d75760405162461bcd60e51b81526004018080602001828103825260248152602001806137a86024913960400191505060405180910390fd5b60008481526006602052604090208054611538576040805162461bcd60e51b815260206004820152601660248201527f53616c653a206e6f6e2d6578697374656e7420736b7500000000000000000000604482015290519081900360640190fd5b600481018261158f57600061154c82611fb3565b905060005b8181101561158857600061156b848263ffffffff611fb716565b50905061157e848263ffffffff6120ef16565b5050600101611551565b505061159a565b61159a8186866121cf565b857fcb3fe5489e0cd43d0f4a33d1e09a4a0463a03d0d38f56165530854e5540db1438686604051808060200180602001838103835285818151815260200191508051906020019060200280838360005b838110156116025781810151838201526020016115ea565b50505050905001838103825284818151815260200191508051906020019060200280838360005b83811015611641578181015183820152602001611629565b5050505090500194505050505060405180910390a2505050505050565b606060046000018054806020026020016040519081016040528092919081815260200182805480156111465760200282019190600052602060002090815481526020019060010190808311611132575050505050905090565b6116bf611ed7565b6000546001600160a01b03908116911614611721576040805162461bcd60e51b815260206004820181905260248201527f4f776e61626c653a2063616c6c6572206973206e6f7420746865206f776e6572604482015290519081900360640190fd5b6001600160a01b03811661177c576040805162461bcd60e51b815260206004820152601460248201527f5061796f75743a207a65726f2061646472657373000000000000000000000000604482015290519081900360640190fd5b6001600160a01b0381163014156117da576040805162461bcd60e51b815260206004820152601f60248201527f5061796f75743a207468697320636f6e7472616374206173207061796f757400604482015290519081900360640190fd5b6001546001600160a01b038281169116141561183d576040805162461bcd60e51b815260206004820152601a60248201527f5061796f75743a2073616d65207061796f75742077616c6c6574000000000000604482015290519081900360640190fd5b6001805473ffffffffffffffffffffffffffffffffffffffff19166001600160a01b03838116919091179182905560408051929091168252517fdd880d24a789958a6398c99c2e54ce31bc10a638cbc42f7dd34285479ae0f855916020908290030190a150565b6118ac611ed7565b6000546001600160a01b0390811691161461190e576040805162461bcd60e51b815260206004820181905260248201527f4f776e61626c653a2063616c6c6572206973206e6f7420746865206f776e6572604482015290519081900360640190fd5b600080546040516001600160a01b03909116907f8be0079c531659141344cd1fd0a4f28419497f9722a3daafe3b4186f6b6457e0908390a36000805473ffffffffffffffffffffffffffffffffffffffff19169055565b61196d611ed7565b6000546001600160a01b039081169116146119cf576040805162461bcd60e51b815260206004820181905260248201527f4f776e61626c653a2063616c6c6572206973206e6f7420746865206f776e6572604482015290519081900360640190fd5b600254611a23576040805162461bcd60e51b815260206004820152601660248201527f537461727461626c653a206e6f74207374617274656400000000000000000000604482015290519081900360640190fd5b6113e561233f565b6001546001600160a01b031681565b600854611a4a90849084846123cd565b505050565b6000546001600160a01b031690565b60001981565b60088181548110611a7157fe5b600091825260209091200154905081565b600254611ad6576040805162461bcd60e51b815260206004820152601660248201527f537461727461626c653a206e6f74207374617274656400000000000000000000604482015290519081900360640190fd5b60035460ff1615611b2e576040805162461bcd60e51b815260206004820152601060248201527f5061757361626c653a2070617573656400000000000000000000000000000000604482015290519081900360640190fd5b611b366135ef565b611b3e611ed7565b6001600160a01b03908116825287811660208084019190915290871660408084019190915260608301879052608083018690528051601f850183900483028101830190915283815290849084908190840183828082843760009201919091525050505060a08201526110ef8161260a565b611bb7611ed7565b6000546001600160a01b03908116911614611c19576040805162461bcd60e51b815260206004820181905260248201527f4f776e61626c653a2063616c6c6572206973206e6f7420746865206f776e6572604482015290519081900360640190fd5b6113dd61263a565b60085490565b611c2f611ed7565b6000546001600160a01b03908116911614611c91576040805162461bcd60e51b815260206004820181905260248201527f4f776e61626c653a2063616c6c6572206973206e6f7420746865206f776e6572604482015290519081900360640190fd5b805180611ccf5760405162461bcd60e51b815260040180806020018281038252602c81526020018061372f602c913960400191505060405180910390fd5b60005b818114611d6e576000838281518110611ce757fe5b602002602001015190508060001415611d315760405162461bcd60e51b815260040180806020018281038252602a815260200180613705602a913960400191505060405180910390fd5b60088054600181810183556000929092527ff3f7a9fe364faab93b216da50a3214154f22a0a2b415b23a84c8169e8b636ee3019190915501611cd2565b50611d796004611fb3565b15611db0576000611d9160048263ffffffff6126bc16565b6000908152600660205260409020805483018155600101805483019055505b5050565b60075481565b60025490565b611dc8611ed7565b6000546001600160a01b03908116911614611e2a576040805162461bcd60e51b815260206004820181905260248201527f4f776e61626c653a2063616c6c6572206973206e6f7420746865206f776e6572604482015290519081900360640190fd5b6001600160a01b038116611e6f5760405162461bcd60e51b81526004018080602001828103825260268152602001806136df6026913960400191505060405180910390fd5b600080546040516001600160a01b03808516939216917f8be0079c531659141344cd1fd0a4f28419497f9722a3daafe3b4186f6b6457e091a36000805473ffffffffffffffffffffffffffffffffffffffff19166001600160a01b0392909216919091179055565b3390565b60006060611ee883612736565b611ef1836129e6565b505060c081015160e0909101519091565b611f0b81612a83565b806080015167ffffffffffffffff81118015611f2657600080fd5b50604051908082528060200260200182016040528015611f50578160200160208202803683370190505b506101208201526007546000905b82608001518214611fac5760088181548110611f7657fe5b906000526020600020015460001b8361012001518381518110611f9557fe5b602090810291909101015260019182019101611f5e565b6007555050565b5490565b815460009081908310612011576040805162461bcd60e51b815260206004820152601c60248201527f456e756d4d61703a20696e646578206f7574206f6620626f756e647300000000604482015290519081900360640190fd5b600084600001848154811061202257fe5b906000526020600020906002020190508060000154816001015492509250509250929050565b60035460ff1661209f576040805162461bcd60e51b815260206004820152601460248201527f5061757361626c653a206e6f7420706175736564000000000000000000000000604482015290519081900360640190fd5b6003805460ff191690557f5db9ee0a495bf2e6ff9c91a7834c1ba4fdd244a5e8aa4e537bd38aeae4b073aa6120d2611ed7565b604080516001600160a01b039092168252519081900360200190a1565b600081815260018301602052604081205480156121c3578354600019808301919081019060009087908390811061212257fe5b906000526020600020906002020190508087600001848154811061214257fe5b60009182526020808320845460029093020191825560019384015491840191909155835482528983019052604090209084019055865487908061218157fe5b60008281526020808220600260001990940193840201828155600190810183905592909355888152898201909252604082209190915594506121c99350505050565b60009150505b92915050565b60005b82518110156122c15760008382815181106121e957fe5b6020026020010151905060006001600160a01b0316816001600160a01b0316141561225b576040805162461bcd60e51b815260206004820152601860248201527f53616c653a207a65726f206164647265737320746f6b656e0000000000000000604482015290519081900360640190fd5b600083838151811061226957fe5b60200260200101519050806000141561229b57612295866001600160a01b03841663ffffffff6120ef16565b506122b7565b6122b5866001600160a01b0384168363ffffffff612b9216565b505b50506001016121d2565b507f00000000000000000000000000000000000000000000000000000000000000006122ec84611fb3565b1115611a4a576040805162461bcd60e51b815260206004820152601560248201527f53616c653a20746f6f206d616e7920746f6b656e730000000000000000000000604482015290519081900360640190fd5b60035460ff1615612397576040805162461bcd60e51b815260206004820152601060248201527f5061757361626c653a2070617573656400000000000000000000000000000000604482015290519081900360640190fd5b6003805460ff191660011790557f62e78cea01bee320cd4e420270b5ea74000d11b0c9f74754ebdbfc544b05a2586120d2611ed7565b8261241f576040805162461bcd60e51b815260206004820152601160248201527f53616c653a207a65726f20737570706c79000000000000000000000000000000604482015290519081900360640190fd5b7f000000000000000000000000000000000000000000000000000000000000000061244a6004611fb3565b1061249c576040805162461bcd60e51b815260206004820152601360248201527f53616c653a20746f6f206d616e7920736b757300000000000000000000000000604482015290519081900360640190fd5b6124ad60048563ffffffff612c2c16565b6124fe576040805162461bcd60e51b815260206004820152601960248201527f53616c653a20736b7520616c7265616479206372656174656400000000000000604482015290519081900360640190fd5b6001600160a01b038116156125705761251f816001600160a01b0316612c76565b612570576040805162461bcd60e51b815260206004820181905260248201527f53616c653a207265636569766572206973206e6f74206120636f6e7472616374604482015290519081900360640190fd5b60008481526006602090815260409182902085815560018101869055600281018590556003810180546001600160a01b03861673ffffffffffffffffffffffffffffffffffffffff1990911681179091558351888152928301879052828401869052606083015291517f38bd4aabce684540cd61351b91f2f5facf9d6963934347e25aab93d87ae7ac149181900360800190a15050505050565b61261381612736565b61261c816129e6565b61262581612c7c565b61262e81611f02565b61263781612eac565b50565b6002541561268f576040805162461bcd60e51b815260206004820152601260248201527f537461727461626c653a20737461727465640000000000000000000000000000604482015290519081900360640190fd5b426002557f27029695aa5f602a4ee81f4c32dfa86e562f200a17966496f3a7c3f2ec0f94176120d2611ed7565b81546000908210612714576040805162461bcd60e51b815260206004820152601c60248201527f456e756d5365743a20696e646578206f7574206f6620626f756e647300000000604482015290519081900360640190fd5b82600001828154811061272357fe5b9060005260206000200154905092915050565b60208101516001600160a01b0316612795576040805162461bcd60e51b815260206004820152601c60248201527f53616c653a207a65726f206164647265737320726563697069656e7400000000604482015290519081900360640190fd5b60408101516001600160a01b03166127f4576040805162461bcd60e51b815260206004820152601860248201527f53616c653a207a65726f206164647265737320746f6b656e0000000000000000604482015290519081900360640190fd5b608081015161284a576040805162461bcd60e51b815260206004820152601c60248201527f53616c653a207a65726f207175616e7469747920707572636861736500000000604482015290519081900360640190fd5b6060810151600090815260066020526040902080546128b0576040805162461bcd60e51b815260206004820152601660248201527f53616c653a206e6f6e2d6578697374656e7420736b7500000000000000000000604482015290519081900360640190fd5b81608001518160020154101561290d576040805162461bcd60e51b815260206004820152601860248201527f53616c653a2061626f7665206d6178207175616e746974790000000000000000604482015290519081900360640190fd5b80546000191461297457816080015181600101541015612974576040805162461bcd60e51b815260206004820152601960248201527f53616c653a20696e73756666696369656e7420737570706c7900000000000000604482015290519081900360640190fd5b60408201516001600160a01b0316612995600483018263ffffffff61339f16565b611a4a576040805162461bcd60e51b815260206004820152601c60248201527f53616c653a206e6f6e2d6578697374656e7420736b7520746f6b656e00000000604482015290519081900360640190fd5b606081015160009081526006602052604090208054612a4c576040805162461bcd60e51b815260206004820152601560248201527f53616c653a20756e737570706f7274656420534b550000000000000000000000604482015290519081900360640190fd5b600481016000612a5c84836133b7565b9050612a7584608001518261342d90919063ffffffff16565b60c090940193909352505050565b612a8b613660565b6060808301516000908152600660209081526040808320815160a0810183528154815260018201548185015260028201548184015260038201546001600160a01b031695810195909552815160048201805480860283018501855294820185815292956080880195929491938593909285929085015b82821015612b4757838290600052602060002090600202016040518060400160405290816000820154815260200160018201548152505081526020019060010190612b01565b50505091525050905250805190915060001914611db05760808201516020820151612b779163ffffffff61348616565b60608301516000908152600660205260409020600101555050565b600082815260018401602052604081205480612bf7575050604080518082018252838152602080820184815286546001818101895560008981528481209551600290930290950191825591519082015586548684528188019092529290912055612c25565b82856000016001830381548110612c0a57fe5b90600052602060002090600202016001018190555060009150505b9392505050565b6000612c38838361339f565b612c6e575081546001818101845560008481526020808220909301849055845484825282860190935260409020919091556121c9565b5060006121c9565b3b151590565b60408101516001600160a01b031673eeeeeeeeeeeeeeeeeeeeeeeeeeeeeeeeeeeeeeee1415612d9f578060c00151341015612cfe576040805162461bcd60e51b815260206004820152601f60248201527f53616c653a20696e73756666696369656e74204554482070726f766964656400604482015290519081900360640190fd5b60015460c08201516040516001600160a01b039092169181156108fc0291906000818181858888f19350505050158015612d3c573d6000803e3d6000fd5b506000612d568260c001513461348690919063ffffffff16565b90508015612d995781516040516001600160a01b039091169082156108fc029083906000818181858888f19350505050158015612d97573d6000803e3d6000fd5b505b50612637565b80604001516001600160a01b03166323b872dd612dba611ed7565b60015460c0850151604080517fffffffff0000000000000000000000000000000000000000000000000000000060e087901b1681526001600160a01b03948516600482015293909216602484015260448301525160648083019260209291908290030181600087803b158015612e2f57600080fd5b505af1158015612e43573d6000803e3d6000fd5b505050506040513d6020811015612e5957600080fd5b5051612637576040805162461bcd60e51b815260206004820152601a60248201527f53616c653a204552433230207061796d656e74206661696c6564000000000000604482015290519081900360640190fd5b806060015181604001516001600160a01b031682600001516001600160a01b03167f29f844483ca6b10b5c0611d039afc15ce8f6380e905307b381c3a8ee4e90e11e846020015185608001518660a001518760c001518860e001518961010001518a610120015160405160200180848051906020019060200280838360005b83811015612f43578181015183820152602001612f2b565b50505050905001838051906020019060200280838360005b83811015612f73578181015183820152602001612f5b565b50505050905001828051906020019060200280838360005b83811015612fa3578181015183820152602001612f8b565b50505050905001935050505060405160208183030381529060405260405180866001600160a01b03166001600160a01b031681526020018581526020018060200184815260200180602001838103835286818151815260200191508051906020019080838360005b8381101561302357818101518382015260200161300b565b50505050905090810190601f1680156130505780820380516001836020036101000a031916815260200191505b50838103825284518152845160209182019186019080838360005b8381101561308357818101518382015260200161306b565b50505050905090810190601f1680156130b05780820380516001836020036101000a031916815260200191505b5097505050505050505060405180910390a460608101516000908152600660205260409020600301546001600160a01b03168015611db0576361eceae860e01b7bffffffffffffffffffffffffffffffffffffffffffffffffffffffff1916816001600160a01b03166361eceae8846000015185602001518660400151876060015188608001518960a001518a60c001518b60e001518c61010001518d61012001516040518b63ffffffff1660e01b8152600401808b6001600160a01b03166001600160a01b031681526020018a6001600160a01b03166001600160a01b03168152602001896001600160a01b03166001600160a01b031681526020018881526020018781526020018060200186815260200180602001806020018060200185810385528a818151815260200191508051906020019080838360005b838110156132045781810151838201526020016131ec565b50505050905090810190601f1680156132315780820380516001836020036101000a031916815260200191505b508581038452885181528851602091820191808b01910280838360005b8381101561326657818101518382015260200161324e565b50505050905001858103835287818151815260200191508051906020019060200280838360005b838110156132a557818101518382015260200161328d565b50505050905001858103825286818151815260200191508051906020019060200280838360005b838110156132e45781810151838201526020016132cc565b505050509050019e505050505050505050505050505050602060405180830381600087803b15801561331557600080fd5b505af1158015613329573d6000803e3d6000fd5b505050506040513d602081101561333f57600080fd5b50517fffffffff000000000000000000000000000000000000000000000000000000001614611db05760405162461bcd60e51b815260040180806020018281038252602181526020018061383e6021913960400191505060405180910390fd5b60009081526001919091016020526040902054151590565b60408201516000906133d99083906001600160a01b031663ffffffff6134c816565b9050806121c9576040805162461bcd60e51b815260206004820152601f60248201527f53616c653a20756e737570706f72746564207061796d656e7420746f6b656e00604482015290519081900360640190fd5b60008261343c575060006121c9565b8282028284828161344957fe5b0414612c255760405162461bcd60e51b81526004018080602001828103825260218152602001806137876021913960400191505060405180910390fd5b6000612c2583836040518060400160405280601e81526020017f536166654d6174683a207375627472616374696f6e206f766572666c6f770000815250613558565b60008181526001830160205260408120548061352b576040805162461bcd60e51b815260206004820152601860248201527f456e756d4d61703a206e6f6e6578697374656e74206b65790000000000000000604482015290519081900360640190fd5b83600001600182038154811061353d57fe5b90600052602060002090600202016001015491505092915050565b600081848411156135e75760405162461bcd60e51b81526004018080602001828103825283818151815260200191508051906020019080838360005b838110156135ac578181015183820152602001613594565b50505050905090810190601f1680156135d95780820380516001836020036101000a031916815260200191505b509250505060405180910390fd5b505050900390565b60405180610140016040528060006001600160a01b0316815260200160006001600160a01b0316815260200160006001600160a01b03168152602001600080191681526020016000815260200160608152602001600081526020016060815260200160608152602001606081525090565b6040518060a0016040528060008152602001600081526020016000815260200160006001600160a01b0316815260200161369861369d565b905290565b604051806020016040528060608152509056fe46697865644f72646572496e76656e746f727953616c653a206172726179206c656e677468206d69736d617463684f776e61626c653a206e6577206f776e657220697320746865207a65726f206164647265737346697865644f72646572496e76656e746f727953616c653a20616464696e67207a65726f20746f6b656e46697865644f72646572496e76656e746f727953616c653a20656d70747920746f6b656e7320746f2061646446697865644f72646572496e76656e746f727953616c653a20696e646578206f75742d6f662d626f756e6473536166654d6174683a206d756c7469706c69636174696f6e206f766572666c6f7753616c653a20746f6b656e732f707269636573206c656e67746873206d69736d6174636846697865644f72646572496e76656e746f727953616c653a20696e76616c696420696e64657846697865644f72646572496e76656e746f727953616c653a207a65726f20746f6b656e46697865644f72646572496e76656e746f727953616c653a20656d70747920746f6b656e206c69737453616c653a2077726f6e672072656365697665722072657475726e2076616c756546697865644f72646572496e76656e746f727953616c653a20656d70747920696e6465786573a2646970667358221220142bf0cd4ee7fb1dd9d55a5db7089ebd07885c04fd413de8af61db0f77ed1f5e64736f6c6343000608003346697865644f72646572496e76656e746f727953616c653a207a65726f206164647265737320696e76656e746f7279",
  "linkReferences": {},
  "deployedLinkReferences": {}
}