{
  "_format": "hh-sol-artifact-1",
  "contractName": "FixedOrderInventorySale",
  "sourceName": "contracts/sale/FixedOrderInventorySale.sol",
  "abi": [
    {
      "inputs": [
        {
          "internalType": "address",
          "name": "inventory_",
          "type": "address"
        },
        {
          "internalType": "address",
          "name": "payoutWallet",
          "type": "address"
        },
        {
          "internalType": "uint256",
          "name": "tokensPerSkuCapacity",
          "type": "uint256"
        }
      ],
      "stateMutability": "nonpayable",
      "type": "constructor"
    },
    {
      "anonymous": false,
      "inputs": [
        {
          "indexed": false,
          "internalType": "bytes32[]",
          "name": "names",
          "type": "bytes32[]"
        },
        {
          "indexed": false,
          "internalType": "bytes32[]",
          "name": "values",
          "type": "bytes32[]"
        }
      ],
      "name": "MagicValues",
      "type": "event"
    },
    {
      "anonymous": false,
      "inputs": [
        {
          "indexed": true,
          "internalType": "address",
          "name": "previousOwner",
          "type": "address"
        },
        {
          "indexed": true,
          "internalType": "address",
          "name": "newOwner",
          "type": "address"
        }
      ],
      "name": "OwnershipTransferred",
      "type": "event"
    },
    {
      "anonymous": false,
      "inputs": [
        {
          "indexed": false,
          "internalType": "address",
          "name": "account",
          "type": "address"
        }
      ],
      "name": "Paused",
      "type": "event"
    },
    {
      "anonymous": false,
      "inputs": [
        {
          "indexed": false,
          "internalType": "address",
          "name": "payoutWallet_",
          "type": "address"
        }
      ],
      "name": "PayoutWalletSet",
      "type": "event"
    },
    {
      "anonymous": false,
      "inputs": [
        {
          "indexed": true,
          "internalType": "address",
          "name": "purchaser",
          "type": "address"
        },
        {
          "indexed": false,
          "internalType": "address",
          "name": "recipient",
          "type": "address"
        },
        {
          "indexed": true,
          "internalType": "address",
          "name": "token",
          "type": "address"
        },
        {
          "indexed": true,
          "internalType": "bytes32",
          "name": "sku",
          "type": "bytes32"
        },
        {
          "indexed": false,
          "internalType": "uint256",
          "name": "quantity",
          "type": "uint256"
        },
        {
          "indexed": false,
          "internalType": "bytes",
          "name": "userData",
          "type": "bytes"
        },
        {
          "indexed": false,
          "internalType": "uint256",
          "name": "totalPrice",
          "type": "uint256"
        },
        {
          "indexed": false,
          "internalType": "bytes",
          "name": "extData",
          "type": "bytes"
        }
      ],
      "name": "Purchase",
      "type": "event"
    },
    {
      "anonymous": false,
      "inputs": [
        {
          "indexed": false,
          "internalType": "bytes32",
          "name": "sku",
          "type": "bytes32"
        },
        {
          "indexed": false,
          "internalType": "uint256",
          "name": "totalSupply",
          "type": "uint256"
        },
        {
          "indexed": false,
          "internalType": "uint256",
          "name": "maxQuantityPerPurchase",
          "type": "uint256"
        },
        {
          "indexed": false,
          "internalType": "address",
          "name": "notificationsReceiver",
          "type": "address"
        }
      ],
      "name": "SkuCreation",
      "type": "event"
    },
    {
      "anonymous": false,
      "inputs": [
        {
          "indexed": true,
          "internalType": "bytes32",
          "name": "sku",
          "type": "bytes32"
        },
        {
          "indexed": false,
          "internalType": "address[]",
          "name": "tokens",
          "type": "address[]"
        },
        {
          "indexed": false,
          "internalType": "uint256[]",
          "name": "prices",
          "type": "uint256[]"
        }
      ],
      "name": "SkuPricingUpdate",
      "type": "event"
    },
    {
      "anonymous": false,
      "inputs": [
        {
          "indexed": false,
          "internalType": "address",
          "name": "account",
          "type": "address"
        }
      ],
      "name": "Started",
      "type": "event"
    },
    {
      "anonymous": false,
      "inputs": [
        {
          "indexed": false,
          "internalType": "address",
          "name": "account",
          "type": "address"
        }
      ],
      "name": "Unpaused",
      "type": "event"
    },
    {
      "inputs": [],
      "name": "SUPPLY_UNLIMITED",
      "outputs": [
        {
          "internalType": "uint256",
          "name": "",
          "type": "uint256"
        }
      ],
      "stateMutability": "view",
      "type": "function"
    },
    {
      "inputs": [],
      "name": "TOKEN_ETH",
      "outputs": [
        {
          "internalType": "address",
          "name": "",
          "type": "address"
        }
      ],
      "stateMutability": "view",
      "type": "function"
    },
    {
      "inputs": [
        {
          "internalType": "uint256[]",
          "name": "tokens",
          "type": "uint256[]"
        }
      ],
      "name": "addSupply",
      "outputs": [],
      "stateMutability": "nonpayable",
      "type": "function"
    },
    {
      "inputs": [
        {
          "internalType": "address payable",
          "name": "recipient",
          "type": "address"
        },
        {
          "internalType": "address",
          "name": "token",
          "type": "address"
        },
        {
          "internalType": "bytes32",
          "name": "sku",
          "type": "bytes32"
        },
        {
          "internalType": "uint256",
          "name": "quantity",
          "type": "uint256"
        },
        {
          "internalType": "bytes",
          "name": "userData",
          "type": "bytes"
        }
      ],
      "name": "estimatePurchase",
      "outputs": [
        {
          "internalType": "uint256",
          "name": "totalPrice",
          "type": "uint256"
        },
        {
          "internalType": "bytes32[]",
          "name": "pricingData",
          "type": "bytes32[]"
        }
      ],
      "stateMutability": "view",
      "type": "function"
    },
    {
      "inputs": [
        {
          "internalType": "bytes32",
          "name": "sku",
          "type": "bytes32"
        }
      ],
      "name": "getSkuInfo",
      "outputs": [
        {
          "internalType": "uint256",
          "name": "totalSupply",
          "type": "uint256"
        },
        {
          "internalType": "uint256",
          "name": "remainingSupply",
          "type": "uint256"
        },
        {
          "internalType": "uint256",
          "name": "maxQuantityPerPurchase",
          "type": "uint256"
        },
        {
          "internalType": "address",
          "name": "notificationsReceiver",
          "type": "address"
        },
        {
          "internalType": "address[]",
          "name": "tokens",
          "type": "address[]"
        },
        {
          "internalType": "uint256[]",
          "name": "prices",
          "type": "uint256[]"
        }
      ],
      "stateMutability": "view",
      "type": "function"
    },
    {
      "inputs": [],
      "name": "getSkus",
      "outputs": [
        {
          "internalType": "bytes32[]",
          "name": "skus",
          "type": "bytes32[]"
        }
      ],
      "stateMutability": "view",
      "type": "function"
    },
    {
      "inputs": [],
      "name": "getTotalSupply",
      "outputs": [
        {
          "internalType": "uint256",
          "name": "",
          "type": "uint256"
        }
      ],
      "stateMutability": "view",
      "type": "function"
    },
    {
      "inputs": [],
      "name": "inventory",
      "outputs": [
        {
          "internalType": "address",
          "name": "",
          "type": "address"
        }
      ],
      "stateMutability": "view",
      "type": "function"
    },
    {
      "inputs": [],
      "name": "owner",
      "outputs": [
        {
          "internalType": "address",
          "name": "",
          "type": "address"
        }
      ],
      "stateMutability": "view",
      "type": "function"
    },
    {
      "inputs": [],
      "name": "pause",
      "outputs": [],
      "stateMutability": "nonpayable",
      "type": "function"
    },
    {
      "inputs": [],
      "name": "paused",
      "outputs": [
        {
          "internalType": "bool",
          "name": "",
          "type": "bool"
        }
      ],
      "stateMutability": "view",
      "type": "function"
    },
    {
      "inputs": [],
      "name": "payoutWallet",
      "outputs": [
        {
          "internalType": "address payable",
          "name": "",
          "type": "address"
        }
      ],
      "stateMutability": "view",
      "type": "function"
    },
    {
      "inputs": [
        {
          "internalType": "address payable",
          "name": "recipient",
          "type": "address"
        },
        {
          "internalType": "address",
          "name": "token",
          "type": "address"
        },
        {
          "internalType": "bytes32",
          "name": "sku",
          "type": "bytes32"
        },
        {
          "internalType": "uint256",
          "name": "quantity",
          "type": "uint256"
        },
        {
          "internalType": "bytes",
          "name": "userData",
          "type": "bytes"
        }
      ],
      "name": "purchaseFor",
      "outputs": [],
      "stateMutability": "payable",
      "type": "function"
    },
    {
      "inputs": [],
      "name": "renounceOwnership",
      "outputs": [],
      "stateMutability": "nonpayable",
      "type": "function"
    },
    {
      "inputs": [
        {
          "internalType": "address",
          "name": "payoutWallet_",
          "type": "address"
        }
      ],
      "name": "setPayoutWallet",
      "outputs": [],
      "stateMutability": "nonpayable",
      "type": "function"
    },
    {
      "inputs": [
        {
          "internalType": "uint256[]",
          "name": "indexes",
          "type": "uint256[]"
        },
        {
          "internalType": "uint256[]",
          "name": "tokens",
          "type": "uint256[]"
        }
      ],
      "name": "setSupply",
      "outputs": [],
      "stateMutability": "nonpayable",
      "type": "function"
    },
    {
      "inputs": [],
      "name": "start",
      "outputs": [],
      "stateMutability": "nonpayable",
      "type": "function"
    },
    {
      "inputs": [],
      "name": "startedAt",
      "outputs": [
        {
          "internalType": "uint256",
          "name": "",
          "type": "uint256"
        }
      ],
      "stateMutability": "view",
      "type": "function"
    },
    {
      "inputs": [],
      "name": "tokenIndex",
      "outputs": [
        {
          "internalType": "uint256",
          "name": "",
          "type": "uint256"
        }
      ],
      "stateMutability": "view",
      "type": "function"
    },
    {
      "inputs": [
        {
          "internalType": "uint256",
          "name": "",
          "type": "uint256"
        }
      ],
      "name": "tokenList",
      "outputs": [
        {
          "internalType": "uint256",
          "name": "",
          "type": "uint256"
        }
      ],
      "stateMutability": "view",
      "type": "function"
    },
    {
      "inputs": [
        {
          "internalType": "address",
          "name": "newOwner",
          "type": "address"
        }
      ],
      "name": "transferOwnership",
      "outputs": [],
      "stateMutability": "nonpayable",
      "type": "function"
    },
    {
      "inputs": [],
      "name": "unpause",
      "outputs": [],
      "stateMutability": "nonpayable",
      "type": "function"
    },
    {
      "inputs": [
        {
          "internalType": "bytes32",
          "name": "sku",
          "type": "bytes32"
        },
        {
          "internalType": "address[]",
          "name": "tokens",
          "type": "address[]"
        },
        {
          "internalType": "uint256[]",
          "name": "prices",
          "type": "uint256[]"
        }
      ],
      "name": "updateSkuPricing",
      "outputs": [],
      "stateMutability": "nonpayable",
      "type": "function"
    }
  ],
  "bytecode": "0x60e06040523480156200001157600080fd5b50604051620037fb380380620037fb833981810160405260608110156200003757600080fd5b508051602082015160409092015190919081600182828282826000620000656001600160e01b03620002fe16565b600080546001600160a01b0319166001600160a01b0383169081178255604051929350917f8be0079c531659141344cd1fd0a4f28419497f9722a3daafe3b4186f6b6457e0908290a350620000c3816001600160e01b036200030216565b506003805460ff19169055608082905260a081905260408051600280825260608083018452926020830190803683375050604080516002808252606080830184529495509092509060208301908036833750508351919250680a89e968a9cbe8aa8960bb1b9173eeeeeeeeeeeeeeeeeeeeeeeeeeeeeeeeeeeeeeee915084906000906200014c57fe5b60200260200101836000815181106200016157fe5b602002602001018281525082815250505060001960001b6f14d55414131657d5539312535255115160821b90836001815181106200019b57fe5b6020026020010183600181518110620001b057fe5b60200260200101828152508281525050507fabb92614f53337043b55dc996a83ebb09adce78ec336ca188ea02180b61d1c148282604051808060200180602001838103835285818151815260200191508051906020019060200280838360005b838110156200022a57818101518382015260200162000210565b50505050905001838103825284818151815260200191508051906020019060200280838360005b838110156200026b57818101518382015260200162000251565b5050505090500194505050505060405180910390a1620002936001600160e01b03620004f116565b50505050506001600160a01b03861615159250620002e69150505760405162461bcd60e51b815260040180806020018281038252602f815260200180620037cc602f913960400191505060405180910390fd5b505060601b6001600160601b03191660c0526200059b565b3390565b620003156001600160e01b03620002fe16565b6000546001600160a01b0390811691161462000378576040805162461bcd60e51b815260206004820181905260248201527f4f776e61626c653a2063616c6c6572206973206e6f7420746865206f776e6572604482015290519081900360640190fd5b6001600160a01b038116620003d4576040805162461bcd60e51b815260206004820152601460248201527f5061796f75743a207a65726f2061646472657373000000000000000000000000604482015290519081900360640190fd5b6001600160a01b03811630141562000433576040805162461bcd60e51b815260206004820152601f60248201527f5061796f75743a207468697320636f6e7472616374206173207061796f757400604482015290519081900360640190fd5b6001546001600160a01b038281169116141562000497576040805162461bcd60e51b815260206004820152601a60248201527f5061796f75743a2073616d65207061796f75742077616c6c6574000000000000604482015290519081900360640190fd5b600180546001600160a01b0319166001600160a01b03838116919091179182905560408051929091168252517fdd880d24a789958a6398c99c2e54ce31bc10a638cbc42f7dd34285479ae0f855916020908290030190a150565b60035460ff16156200053d576040805162461bcd60e51b815260206004820152601060248201526f14185d5cd8589b194e881c185d5cd95960821b604482015290519081900360640190fd5b6003805460ff191660011790557f62e78cea01bee320cd4e420270b5ea74000d11b0c9f74754ebdbfc544b05a2586200057e6001600160e01b03620002fe16565b604080516001600160a01b039092168252519081900360200190a1565b60805160a05160c05160601c613206620005c660003980610ab8525080611de75250506132066000f3fe6080604052600436106101805760003560e01c80638456cb59116100d6578063be9a65551161007f578063d55f927311610059578063d55f927314610914578063f21f537d14610929578063f2fde38b1461093e57610180565b8063be9a65551461083a578063c4e41b221461084f578063cf3ae77b1461086457610180565b80639e049545116100b05780639e049545146107545780639ead72221461077b578063a963b257146107a557610180565b80638456cb59146107155780638488bb4e1461072a5780638da5cb5b1461073f57610180565b80635c4fafc71161013857806361bd38511161011257806361bd3851146106685780636b8f9c43146106cd578063715018a61461070057610180565b80635c4fafc7146104ef5780635c975abb146105045780635e6e9f701461052d57610180565b806323f927c91161016957806323f927c9146102b35780632a8a45bc146103e95780633f4ba83a146104da57610180565b80631323b0661461018557806315d52a5c14610282575b600080fd5b34801561019157600080fd5b50610227600480360360a08110156101a857600080fd5b6001600160a01b03823581169260208101359091169160408201359160608101359181019060a0810160808201356401000000008111156101e857600080fd5b8201836020820111156101fa57600080fd5b8035906020019184600183028401116401000000008311171561021c57600080fd5b509092509050610971565b6040518083815260200180602001828103825283818151815260200191508051906020019060200280838360005b8381101561026d578181015183820152602001610255565b50505050905001935050505060405180910390f35b34801561028e57600080fd5b50610297610ab6565b604080516001600160a01b039092168252519081900360200190f35b3480156102bf57600080fd5b506103e7600480360360408110156102d657600080fd5b8101906020810181356401000000008111156102f157600080fd5b82018360208201111561030357600080fd5b8035906020019184602083028401116401000000008311171561032557600080fd5b919080806020026020016040519081016040528093929190818152602001838360200280828437600092019190915250929594936020810193503591505064010000000081111561037557600080fd5b82018360208201111561038757600080fd5b803590602001918460208302840111640100000000831117156103a957600080fd5b919080806020026020016040519081016040528093929190818152602001838360200280828437600092019190915250929550610ada945050505050565b005b3480156103f557600080fd5b506104136004803603602081101561040c57600080fd5b5035610d7f565b60405180878152602001868152602001858152602001846001600160a01b03166001600160a01b031681526020018060200180602001838103835285818151815260200191508051906020019060200280838360005b83811015610481578181015183820152602001610469565b50505050905001838103825284818151815260200191508051906020019060200280838360005b838110156104c05781810151838201526020016104a8565b505050509050019850505050505050505060405180910390f35b3480156104e657600080fd5b506103e7610f2a565b3480156104fb57600080fd5b50610297610ff2565b34801561051057600080fd5b5061051961100a565b604080519115158252519081900360200190f35b34801561053957600080fd5b506103e76004803603606081101561055057600080fd5b8135919081019060408101602082013564010000000081111561057257600080fd5b82018360208201111561058457600080fd5b803590602001918460208302840111640100000000831117156105a657600080fd5b91908080602002602001604051908101604052809392919081815260200183836020028082843760009201919091525092959493602081019350359150506401000000008111156105f657600080fd5b82018360208201111561060857600080fd5b8035906020019184602083028401116401000000008311171561062a57600080fd5b919080806020026020016040519081016040528093929190818152602001838360200280828437600092019190915250929550611013945050505050565b34801561067457600080fd5b5061067d611245565b60408051602080825283518183015283519192839290830191858101910280838360005b838110156106b95781810151838201526020016106a1565b505050509050019250505060405180910390f35b3480156106d957600080fd5b506103e7600480360360208110156106f057600080fd5b50356001600160a01b03166112a0565b34801561070c57600080fd5b506103e761148d565b34801561072157600080fd5b506103e761154e565b34801561073657600080fd5b50610297611614565b34801561074b57600080fd5b50610297611623565b34801561076057600080fd5b50610769611632565b60408051918252519081900360200190f35b34801561078757600080fd5b506107696004803603602081101561079e57600080fd5b5035611638565b6103e7600480360360a08110156107bb57600080fd5b6001600160a01b03823581169260208101359091169160408201359160608101359181019060a0810160808201356401000000008111156107fb57600080fd5b82018360208201111561080d57600080fd5b8035906020019184600183028401116401000000008311171561082f57600080fd5b509092509050611656565b34801561084657600080fd5b506103e7611783565b34801561085b57600080fd5b506107696117f5565b34801561087057600080fd5b506103e76004803603602081101561088757600080fd5b8101906020810181356401000000008111156108a257600080fd5b8201836020820111156108b457600080fd5b803590602001918460208302840111640100000000831117156108d657600080fd5b9190808060200260200160405190810160405280939291908181526020018383602002808284376000920191909152509295506117fb945050505050565b34801561092057600080fd5b50610769611988565b34801561093557600080fd5b5061076961198e565b34801561094a57600080fd5b506103e76004803603602081101561096157600080fd5b50356001600160a01b0316611994565b60006060600254600014156109cd576040805162461bcd60e51b815260206004820152601660248201527f537461727461626c653a206e6f74207374617274656400000000000000000000604482015290519081900360640190fd5b60035460ff1615610a25576040805162461bcd60e51b815260206004820152601060248201527f5061757361626c653a2070617573656400000000000000000000000000000000604482015290519081900360640190fd5b610a2d612f3b565b610a35611aab565b6001600160a01b03908116825289811660208084019190915290891660408084019190915260608301899052608083018890528051601f870183900483028101830190915285815290869086908190840183828082843760009201919091525050505060a0820152610aa681611aaf565b9250925050965096945050505050565b7f000000000000000000000000000000000000000000000000000000000000000081565b610ae2611aab565b6000546001600160a01b03908116911614610b44576040805162461bcd60e51b815260206004820181905260248201527f4f776e61626c653a2063616c6c6572206973206e6f7420746865206f776e6572604482015290519081900360640190fd5b60035460ff16610b9b576040805162461bcd60e51b815260206004820152601460248201527f5061757361626c653a206e6f7420706175736564000000000000000000000000604482015290519081900360640190fd5b60085480610bda5760405162461bcd60e51b81526004018080602001828103825260298152602001806131616029913960400191505060405180910390fd5b825180610c185760405162461bcd60e51b81526004018080602001828103825260268152602001806131ab6026913960400191505060405180910390fd5b8251818114610c585760405162461bcd60e51b815260040180806020018281038252602e815260200180612ffd602e913960400191505060405180910390fd5b60075460005b838114610d76576000878281518110610c7357fe5b6020026020010151905082811015610cbc5760405162461bcd60e51b81526004018080602001828103825260268152602001806131186026913960400191505060405180910390fd5b858110610cfa5760405162461bcd60e51b815260040180806020018281038252602c8152602001806130a7602c913960400191505060405180910390fd5b6000878381518110610d0857fe5b602002602001015190508060001415610d525760405162461bcd60e51b815260040180806020018281038252602381526020018061313e6023913960400191505060405180910390fd5b8060088381548110610d6057fe5b6000918252602090912001555050600101610c5e565b50505050505050565b6000818152600660205260408120819081908190606090819083610da560048301611ad6565b82549850905087610dfd576040805162461bcd60e51b815260206004820152601660248201527f53616c653a206e6f6e2d6578697374656e7420736b7500000000000000000000604482015290519081900360640190fd5b60018201546002830154600384015491985096506001600160a01b031694508067ffffffffffffffff81118015610e3357600080fd5b50604051908082528060200260200182016040528015610e5d578160200160208202803683370190505b5093508067ffffffffffffffff81118015610e7757600080fd5b50604051908082528060200260200182016040528015610ea1578160200160208202803683370190505b50925060005b81811015610f1e57600080610ec5600486018463ffffffff611ada16565b915091508160001c878481518110610ed957fe5b60200260200101906001600160a01b031690816001600160a01b0316815250508060001c868481518110610f0957fe5b60209081029190910101525050600101610ea7565b50505091939550919395565b610f32611aab565b6000546001600160a01b03908116911614610f94576040805162461bcd60e51b815260206004820181905260248201527f4f776e61626c653a2063616c6c6572206973206e6f7420746865206f776e6572604482015290519081900360640190fd5b600254610fe8576040805162461bcd60e51b815260206004820152601660248201527f537461727461626c653a206e6f74207374617274656400000000000000000000604482015290519081900360640190fd5b610ff0611b6b565b565b73eeeeeeeeeeeeeeeeeeeeeeeeeeeeeeeeeeeeeeee81565b60035460ff1690565b61101b611aab565b6000546001600160a01b0390811691161461107d576040805162461bcd60e51b815260206004820181905260248201527f4f776e61626c653a2063616c6c6572206973206e6f7420746865206f776e6572604482015290519081900360640190fd5b8151815181146110be5760405162461bcd60e51b81526004018080602001828103825260248152602001806130f46024913960400191505060405180910390fd5b6000848152600660205260409020805461111f576040805162461bcd60e51b815260206004820152601660248201527f53616c653a206e6f6e2d6578697374656e7420736b7500000000000000000000604482015290519081900360640190fd5b600481018261117657600061113382611ad6565b905060005b8181101561116f576000611152848263ffffffff611ada16565b509050611165848263ffffffff611c1216565b5050600101611138565b5050611181565b611181818686611cf2565b857fcb3fe5489e0cd43d0f4a33d1e09a4a0463a03d0d38f56165530854e5540db1438686604051808060200180602001838103835285818151815260200191508051906020019060200280838360005b838110156111e95781810151838201526020016111d1565b50505050905001838103825284818151815260200191508051906020019060200280838360005b83811015611228578181015183820152602001611210565b5050505090500194505050505060405180910390a2505050505050565b6060600460000180548060200260200160405190810160405280929190818152602001828054801561129657602002820191906000526020600020905b815481526020019060010190808311611282575b5050505050905090565b6112a8611aab565b6000546001600160a01b0390811691161461130a576040805162461bcd60e51b815260206004820181905260248201527f4f776e61626c653a2063616c6c6572206973206e6f7420746865206f776e6572604482015290519081900360640190fd5b6001600160a01b038116611365576040805162461bcd60e51b815260206004820152601460248201527f5061796f75743a207a65726f2061646472657373000000000000000000000000604482015290519081900360640190fd5b6001600160a01b0381163014156113c3576040805162461bcd60e51b815260206004820152601f60248201527f5061796f75743a207468697320636f6e7472616374206173207061796f757400604482015290519081900360640190fd5b6001546001600160a01b0382811691161415611426576040805162461bcd60e51b815260206004820152601a60248201527f5061796f75743a2073616d65207061796f75742077616c6c6574000000000000604482015290519081900360640190fd5b6001805473ffffffffffffffffffffffffffffffffffffffff19166001600160a01b03838116919091179182905560408051929091168252517fdd880d24a789958a6398c99c2e54ce31bc10a638cbc42f7dd34285479ae0f855916020908290030190a150565b611495611aab565b6000546001600160a01b039081169116146114f7576040805162461bcd60e51b815260206004820181905260248201527f4f776e61626c653a2063616c6c6572206973206e6f7420746865206f776e6572604482015290519081900360640190fd5b600080546040516001600160a01b03909116907f8be0079c531659141344cd1fd0a4f28419497f9722a3daafe3b4186f6b6457e0908390a36000805473ffffffffffffffffffffffffffffffffffffffff19169055565b611556611aab565b6000546001600160a01b039081169116146115b8576040805162461bcd60e51b815260206004820181905260248201527f4f776e61626c653a2063616c6c6572206973206e6f7420746865206f776e6572604482015290519081900360640190fd5b60025461160c576040805162461bcd60e51b815260206004820152601660248201527f537461727461626c653a206e6f74207374617274656400000000000000000000604482015290519081900360640190fd5b610ff0611e67565b6001546001600160a01b031681565b6000546001600160a01b031690565b60001981565b6008818154811061164557fe5b600091825260209091200154905081565b6002546116aa576040805162461bcd60e51b815260206004820152601660248201527f537461727461626c653a206e6f74207374617274656400000000000000000000604482015290519081900360640190fd5b60035460ff1615611702576040805162461bcd60e51b815260206004820152601060248201527f5061757361626c653a2070617573656400000000000000000000000000000000604482015290519081900360640190fd5b61170a612f3b565b611712611aab565b6001600160a01b03908116825287811660208084019190915290871660408084019190915260608301879052608083018690528051601f850183900483028101830190915283815290849084908190840183828082843760009201919091525050505060a0820152610d7681611ef5565b61178b611aab565b6000546001600160a01b039081169116146117ed576040805162461bcd60e51b815260206004820181905260248201527f4f776e61626c653a2063616c6c6572206973206e6f7420746865206f776e6572604482015290519081900360640190fd5b610fe8611f25565b60085490565b611803611aab565b6000546001600160a01b03908116911614611865576040805162461bcd60e51b815260206004820181905260248201527f4f776e61626c653a2063616c6c6572206973206e6f7420746865206f776e6572604482015290519081900360640190fd5b8051806118a35760405162461bcd60e51b815260040180806020018281038252602c81526020018061307b602c913960400191505060405180910390fd5b60005b8181146119425760008382815181106118bb57fe5b6020026020010151905080600014156119055760405162461bcd60e51b815260040180806020018281038252602a815260200180613051602a913960400191505060405180910390fd5b60088054600181810183556000929092527ff3f7a9fe364faab93b216da50a3214154f22a0a2b415b23a84c8169e8b636ee30191909155016118a6565b5061194d6004611ad6565b1561198457600061196560048263ffffffff611fa716565b6000908152600660205260409020805483018155600101805483019055505b5050565b60075481565b60025490565b61199c611aab565b6000546001600160a01b039081169116146119fe576040805162461bcd60e51b815260206004820181905260248201527f4f776e61626c653a2063616c6c6572206973206e6f7420746865206f776e6572604482015290519081900360640190fd5b6001600160a01b038116611a435760405162461bcd60e51b815260040180806020018281038252602681526020018061302b6026913960400191505060405180910390fd5b600080546040516001600160a01b03808516939216917f8be0079c531659141344cd1fd0a4f28419497f9722a3daafe3b4186f6b6457e091a36000805473ffffffffffffffffffffffffffffffffffffffff19166001600160a01b0392909216919091179055565b3390565b60006060611abc83612021565b611ac5836122d1565b505060c081015160e0909101519091565b5490565b815460009081908310611b34576040805162461bcd60e51b815260206004820152601c60248201527f456e756d4d61703a20696e646578206f7574206f6620626f756e647300000000604482015290519081900360640190fd5b6000846000018481548110611b4557fe5b906000526020600020906002020190508060000154816001015492509250509250929050565b60035460ff16611bc2576040805162461bcd60e51b815260206004820152601460248201527f5061757361626c653a206e6f7420706175736564000000000000000000000000604482015290519081900360640190fd5b6003805460ff191690557f5db9ee0a495bf2e6ff9c91a7834c1ba4fdd244a5e8aa4e537bd38aeae4b073aa611bf5611aab565b604080516001600160a01b039092168252519081900360200190a1565b60008181526001830160205260408120548015611ce65783546000198083019190810190600090879083908110611c4557fe5b9060005260206000209060020201905080876000018481548110611c6557fe5b600091825260208083208454600290930201918255600193840154918401919091558354825289830190526040902090840190558654879080611ca457fe5b6000828152602080822060026000199094019384020182815560019081018390559290935588815289820190925260408220919091559450611cec9350505050565b60009150505b92915050565b60005b8251811015611de4576000838281518110611d0c57fe5b6020026020010151905060006001600160a01b0316816001600160a01b03161415611d7e576040805162461bcd60e51b815260206004820152601860248201527f53616c653a207a65726f206164647265737320746f6b656e0000000000000000604482015290519081900360640190fd5b6000838381518110611d8c57fe5b602002602001015190508060001415611dbe57611db8866001600160a01b03841663ffffffff611c1216565b50611dda565b611dd8866001600160a01b0384168363ffffffff61236e16565b505b5050600101611cf5565b507f0000000000000000000000000000000000000000000000000000000000000000611e0f84611ad6565b1115611e62576040805162461bcd60e51b815260206004820152601560248201527f53616c653a20746f6f206d616e7920746f6b656e730000000000000000000000604482015290519081900360640190fd5b505050565b60035460ff1615611ebf576040805162461bcd60e51b815260206004820152601060248201527f5061757361626c653a2070617573656400000000000000000000000000000000604482015290519081900360640190fd5b6003805460ff191660011790557f62e78cea01bee320cd4e420270b5ea74000d11b0c9f74754ebdbfc544b05a258611bf5611aab565b611efe81612021565b611f07816122d1565b611f1081612408565b611f1981612638565b611f22816126e9565b50565b60025415611f7a576040805162461bcd60e51b815260206004820152601260248201527f537461727461626c653a20737461727465640000000000000000000000000000604482015290519081900360640190fd5b426002557f27029695aa5f602a4ee81f4c32dfa86e562f200a17966496f3a7c3f2ec0f9417611bf5611aab565b81546000908210611fff576040805162461bcd60e51b815260206004820152601c60248201527f456e756d5365743a20696e646578206f7574206f6620626f756e647300000000604482015290519081900360640190fd5b82600001828154811061200e57fe5b9060005260206000200154905092915050565b60208101516001600160a01b0316612080576040805162461bcd60e51b815260206004820152601c60248201527f53616c653a207a65726f206164647265737320726563697069656e7400000000604482015290519081900360640190fd5b60408101516001600160a01b03166120df576040805162461bcd60e51b815260206004820152601860248201527f53616c653a207a65726f206164647265737320746f6b656e0000000000000000604482015290519081900360640190fd5b6080810151612135576040805162461bcd60e51b815260206004820152601c60248201527f53616c653a207a65726f207175616e7469747920707572636861736500000000604482015290519081900360640190fd5b60608101516000908152600660205260409020805461219b576040805162461bcd60e51b815260206004820152601660248201527f53616c653a206e6f6e2d6578697374656e7420736b7500000000000000000000604482015290519081900360640190fd5b8160800151816002015410156121f8576040805162461bcd60e51b815260206004820152601860248201527f53616c653a2061626f7665206d6178207175616e746974790000000000000000604482015290519081900360640190fd5b80546000191461225f5781608001518160010154101561225f576040805162461bcd60e51b815260206004820152601960248201527f53616c653a20696e73756666696369656e7420737570706c7900000000000000604482015290519081900360640190fd5b60408201516001600160a01b0316612280600483018263ffffffff612bdc16565b611e62576040805162461bcd60e51b815260206004820152601c60248201527f53616c653a206e6f6e2d6578697374656e7420736b7520746f6b656e00000000604482015290519081900360640190fd5b606081015160009081526006602052604090208054612337576040805162461bcd60e51b815260206004820152601560248201527f53616c653a20756e737570706f7274656420534b550000000000000000000000604482015290519081900360640190fd5b6004810160006123478483612bf4565b9050612360846080015182612c6a90919063ffffffff16565b60c090940193909352505050565b6000828152600184016020526040812054806123d3575050604080518082018252838152602080820184815286546001818101895560008981528481209551600290930290950191825591519082015586548684528188019092529290912055612401565b828560000160018303815481106123e657fe5b90600052602060002090600202016001018190555060009150505b9392505050565b60408101516001600160a01b031673eeeeeeeeeeeeeeeeeeeeeeeeeeeeeeeeeeeeeeee141561252b578060c0015134101561248a576040805162461bcd60e51b815260206004820152601f60248201527f53616c653a20696e73756666696369656e74204554482070726f766964656400604482015290519081900360640190fd5b60015460c08201516040516001600160a01b039092169181156108fc0291906000818181858888f193505050501580156124c8573d6000803e3d6000fd5b5060006124e28260c0015134612cc390919063ffffffff16565b905080156125255781516040516001600160a01b039091169082156108fc029083906000818181858888f19350505050158015612523573d6000803e3d6000fd5b505b50611f22565b80604001516001600160a01b03166323b872dd612546611aab565b60015460c0850151604080517fffffffff0000000000000000000000000000000000000000000000000000000060e087901b1681526001600160a01b03948516600482015293909216602484015260448301525160648083019260209291908290030181600087803b1580156125bb57600080fd5b505af11580156125cf573d6000803e3d6000fd5b505050506040513d60208110156125e557600080fd5b5051611f22576040805162461bcd60e51b815260206004820152601a60248201527f53616c653a204552433230207061796d656e74206661696c6564000000000000604482015290519081900360640190fd5b61264181612d05565b806080015167ffffffffffffffff8111801561265c57600080fd5b50604051908082528060200260200182016040528015612686578160200160208202803683370190505b506101208201526007546000905b826080015182146126e257600881815481106126ac57fe5b906000526020600020015460001b83610120015183815181106126cb57fe5b602090810291909101015260019182019101612694565b6007555050565b806060015181604001516001600160a01b031682600001516001600160a01b03167f29f844483ca6b10b5c0611d039afc15ce8f6380e905307b381c3a8ee4e90e11e846020015185608001518660a001518760c001518860e001518961010001518a610120015160405160200180848051906020019060200280838360005b83811015612780578181015183820152602001612768565b50505050905001838051906020019060200280838360005b838110156127b0578181015183820152602001612798565b50505050905001828051906020019060200280838360005b838110156127e05781810151838201526020016127c8565b50505050905001935050505060405160208183030381529060405260405180866001600160a01b03166001600160a01b031681526020018581526020018060200184815260200180602001838103835286818151815260200191508051906020019080838360005b83811015612860578181015183820152602001612848565b50505050905090810190601f16801561288d5780820380516001836020036101000a031916815260200191505b50838103825284518152845160209182019186019080838360005b838110156128c05781810151838201526020016128a8565b50505050905090810190601f1680156128ed5780820380516001836020036101000a031916815260200191505b5097505050505050505060405180910390a460608101516000908152600660205260409020600301546001600160a01b03168015611984576361eceae860e01b7bffffffffffffffffffffffffffffffffffffffffffffffffffffffff1916816001600160a01b03166361eceae8846000015185602001518660400151876060015188608001518960a001518a60c001518b60e001518c61010001518d61012001516040518b63ffffffff1660e01b8152600401808b6001600160a01b03166001600160a01b031681526020018a6001600160a01b03166001600160a01b03168152602001896001600160a01b03166001600160a01b031681526020018881526020018781526020018060200186815260200180602001806020018060200185810385528a818151815260200191508051906020019080838360005b83811015612a41578181015183820152602001612a29565b50505050905090810190601f168015612a6e5780820380516001836020036101000a031916815260200191505b508581038452885181528851602091820191808b01910280838360005b83811015612aa3578181015183820152602001612a8b565b50505050905001858103835287818151815260200191508051906020019060200280838360005b83811015612ae2578181015183820152602001612aca565b50505050905001858103825286818151815260200191508051906020019060200280838360005b83811015612b21578181015183820152602001612b09565b505050509050019e505050505050505050505050505050602060405180830381600087803b158015612b5257600080fd5b505af1158015612b66573d6000803e3d6000fd5b505050506040513d6020811015612b7c57600080fd5b50517fffffffff0000000000000000000000000000000000000000000000000000000016146119845760405162461bcd60e51b815260040180806020018281038252602181526020018061318a6021913960400191505060405180910390fd5b60009081526001919091016020526040902054151590565b6040820151600090612c169083906001600160a01b031663ffffffff612e1416565b905080611cec576040805162461bcd60e51b815260206004820152601f60248201527f53616c653a20756e737570706f72746564207061796d656e7420746f6b656e00604482015290519081900360640190fd5b600082612c7957506000611cec565b82820282848281612c8657fe5b04146124015760405162461bcd60e51b81526004018080602001828103825260218152602001806130d36021913960400191505060405180910390fd5b600061240183836040518060400160405280601e81526020017f536166654d6174683a207375627472616374696f6e206f766572666c6f770000815250612ea4565b612d0d612fac565b6060808301516000908152600660209081526040808320815160a0810183528154815260018201548185015260028201548184015260038201546001600160a01b031695810195909552815160048201805480860283018501855294820185815292956080880195929491938593909285929085015b82821015612dc957838290600052602060002090600202016040518060400160405290816000820154815260200160018201548152505081526020019060010190612d83565b505050915250509052508051909150600019146119845760808201516020820151612df99163ffffffff612cc316565b60608301516000908152600660205260409020600101555050565b600081815260018301602052604081205480612e77576040805162461bcd60e51b815260206004820152601860248201527f456e756d4d61703a206e6f6e6578697374656e74206b65790000000000000000604482015290519081900360640190fd5b836000016001820381548110612e8957fe5b90600052602060002090600202016001015491505092915050565b60008184841115612f335760405162461bcd60e51b81526004018080602001828103825283818151815260200191508051906020019080838360005b83811015612ef8578181015183820152602001612ee0565b50505050905090810190601f168015612f255780820380516001836020036101000a031916815260200191505b509250505060405180910390fd5b505050900390565b60405180610140016040528060006001600160a01b0316815260200160006001600160a01b0316815260200160006001600160a01b03168152602001600080191681526020016000815260200160608152602001600081526020016060815260200160608152602001606081525090565b6040518060a0016040528060008152602001600081526020016000815260200160006001600160a01b03168152602001612fe4612fe9565b905290565b604051806020016040528060608152509056fe46697865644f72646572496e76656e746f727953616c653a206172726179206c656e677468206d69736d617463684f776e61626c653a206e6577206f776e657220697320746865207a65726f206164647265737346697865644f72646572496e76656e746f727953616c653a20616464696e67207a65726f20746f6b656e46697865644f72646572496e76656e746f727953616c653a20656d70747920746f6b656e7320746f2061646446697865644f72646572496e76656e746f727953616c653a20696e646578206f75742d6f662d626f756e6473536166654d6174683a206d756c7469706c69636174696f6e206f766572666c6f7753616c653a20746f6b656e732f707269636573206c656e67746873206d69736d6174636846697865644f72646572496e76656e746f727953616c653a20696e76616c696420696e64657846697865644f72646572496e76656e746f727953616c653a207a65726f20746f6b656e46697865644f72646572496e76656e746f727953616c653a20656d70747920746f6b656e206c69737453616c653a2077726f6e672072656365697665722072657475726e2076616c756546697865644f72646572496e76656e746f727953616c653a20656d70747920696e6465786573a2646970667358221220a830806e6b12d727951fc4edd7606b71238637bb7119e71bc23867ba5a367daf64736f6c6343000608003346697865644f72646572496e76656e746f727953616c653a207a65726f206164647265737320696e76656e746f7279",
  "linkReferences": {},
  "deployedLinkReferences": {}
}